:060000000A128A1110280B
:10000800FE00030E83160313B2000A08B3007F082C
:10001800B4000A128A15802D0A128A111328831631
:1000280003130A128A1525200A128A11D5000A120A
:100038008A1526200A128A11D60083160317EA01A8
:10004800EB01EC01ED018313C1308400D5300A12B5
:100058008A11F7270A128A1183010A168A112C2C91
:100068008316031718088039A20018089D001D0779
:10007800A800971F40284128422828142808031957
:10008800462847285628280A031D4B284C28542858
:10009800003098000030970000309600003095003E
:1000A80097175E28003098000030970000309600BF
:1000B800003095001C0880399D001D08A2061C0808
:1000C8009D001D07A3009B1F6A286B286C2823141A
:1000D80023080319702871288028230A031D75280E
:1000E80076287E2800309C0000309B0000309A0063
:1000F800003099009B17882800309C0000309B0036
:1001080000309A0000309900230803198C288D28A4
:1001180092282808031D912892289B2800309800CF
:10012800003097000030960000309500D22B15085B
:1001380083160313B900831603171B080A168A11BE
:100148009E210A128A11831603133A08831603178D
:10015800AE0083160313390883160317AD002D0864
:100168009D009E019F01A0012008A7001F08A6006E
:100178001E08A5001D08A4002E089D009E019F01D1
:10018800A0012008AC001F08AB001E08AA001D082B
:10019800A900160883160313B900831603171A0853
:1001A8000A168A119E210A128A11831603133A0825
:1001B80083160317AE008316031339088316031733
:1001C800AD002D089D009E019F01A0011D08A407F8
:1001D8001E0803110318013E0319F328A5071F0879
:1001E80003110318013E0319FA28A6072008031172
:1001F8000318013E03190129A7072E089D009E0137
:100208009F01A0011D08A9071E0803110318013E3C
:1002180003190F29AA071F0803110318013E031920
:100228001629AB07200803110318013E03191D29DD
:10023800AC07170883160313B900831603171908A8
:100248000A168A119E210A128A11831603133A0884
:1002580083160317AE008316031339088316031792
:10026800AD002D089D009E019F01A0011D08A40757
:100278001E0803110318013E03194329A5071F0887
:1002880003110318013E03194A29A6072008031180
:100298000318013E03195129A7072E089D009E0146
:1002A8009F01A0011D08A9071E0803110318013E9C
:1002B80003195F29AA071F0803110318013E031930
:1002C8006629AB07200803110318013E03196D299D
:1002D800AC0708309D000310A40DA50DA60DA70DB1
:1002E8009D0B6F29160883160313B900831603178D
:1002F80019080A168A119E210A128A1183160313F5
:100308003A0883160317AE008316031339088316B9
:100318000317AD002D089D002E089E009F01A00127
:100328001D08A4071E0803110318013E03199D297F
:10033800A5071F0803110318013E0319A429A607DE
:10034800200803110318013E0319AB29A707150854
:1003580083160313B900831603171A080A168A119D
:100368009E210A128A11831603133A08831603176B
:10037800AE0083160313390883160317AD002D0842
:100388009D002E089E009F01A0011D08A4071E08BD
:1003980003110318013E0319D229A5071F080311E9
:1003A8000318013E0319D929A607200803110318C9
:1003B800013E0319E029A70708309D000310A40D8A
:1003C800A50DA60DA70D9D0BE2291508831603138D
:1003D800B9008316031719080A168A119E210A12F2
:1003E8008A11831603133A0883160317AE0083167F
:1003F8000313390883160317AD002D089D002E0836
:100408009E009F01A0011D08A4071E0803110318E0
:10041800013E0319102AA5071F0803110318013EFE
:100428000319172AA607200803110318013E031908
:100438001E2AA707160883160313B9008316031785
:100448001B080A168A119E210A128A1183160313A1
:100458003A0883160317AE00831603133908831668
:100468000317AD002D089D002E089E009F01A001D6
:100478001D08A9071E0803110318013E0319452A80
:10048800AA071F0803110318013E03194C2AAB07DA
:10049800200803110318013E0319532AAC07170853
:1004A80083160313B900831603171A080A168A114C
:1004B8009E210A128A11831603133A08831603171A
:1004C800AE0083160313390883160317AD002D08F1
:1004D8009D002E089E009F01A0011D08A9071E0867
:1004E80003110318013E03197A2AAA071F080311EA
:1004F8000318013E0319812AAB07200803110318CA
:10050800013E0319882AAC07170883160313B9009C
:10051800831603171B080A168A119E210A128A11CC
:10052800831603133A0883160317AE0083160313C2
:10053800390883160317AD002D089D002E089E006C
:100548009F01A001083003109D0D9E0D9F0DA00D69
:10055800FF3E031DA72A1D08A9071E08031103183B
:10056800013E0319B82AAA071F0803110318013E00
:100578000319BF2AAB07200803110318013E03190A
:10058800C62AAC0724089D0025089E0026089F005F
:100598002708A00018300310A00C9F0C9E0C9D0C7F
:1005A800FF3E031DCF2A1D08A9071E0803110318C3
:1005B800013E0319E02AAA071F0803110318013E88
:1005C8000319E72AAB07200803110318013E031992
:1005D800EE2AAC0708309D000310A40DA50DA60D4A
:1005E800A70D9D0BF02A280823079D009E019E0D4C
:1005F8001D08823EAD001E080318013EFF3EAE00F6
:10060800222B01309D000310A90DAA0DAB0DAC0DD6
:100618009D0B072BA71F112B122B132B291401300D
:100628009D000310A40DA50DA60DA70D9D0B152B60
:10063800FF30AD070318AE0AFF30AE07AB1F252BFE
:10064800262B052BA301A71F2A2B2B2B472BFF306B
:1006580024059D00FF3025059E00FF3026059F00DC
:100668007F302705A00020081F041E041D0403195D
:100678003E2B3F2B422BA301A30A472B291C452BBA
:10068800462B472B3F2B230803194B2B4C2B7D2B39
:100698000130A907003003180130AA0700300318F9
:1006A8000130AB07003003180130AC072C1C5D2B60
:1006B8005E2B7D2B29089D002A089E002B089F0091
:1006C8002C08A0000130A100200DA00C9F0C9E0C4E
:1006D8009D0CA10B682B2008AC001F08AB001E085E
:1006E800AA001D08A9000130AD070318AE0A0030A2
:1006F800AE072E08803AFF0080307F02031D862B4C
:10070800FF302D02031C892B8A2B952B7F308316F3
:100718000317AC008030AB000030AA000030A900FD
:10072800C62B831603172E08803AFF0080307F02FD
:10073800031DA02B01302D020318A32BA42BB02BD3
:10074800003083160317AC000030AB000030AA005D
:100758000030A900A201C62B831603172D08A80094
:10076800FF30A905FF30AA057F30AB050030AC0586
:10077800281CBF2BC02BC12BAB1728089D000310CA
:100788001D0CAC0022089D001D08AC042C08980024
:100798002B0897002A08960029089500080083125C
:1007A80003133D088039C7003D08C2004207CD0049
:1007B800BC1FDF2BE02BE12B4D144D080319E52B53
:1007C800E62BF52B4D0A031DEA2BEB2BF32B003000
:1007D800BD000030BC000030BB000030BA00BC17C0
:1007E800FD2B0030BD000030BC000030BB000030E5
:1007F800BA0041088039C2004208C7064108C20051
:100808004207CC00C01F092C0A2C0B2C4C144C0896
:1008180003190F2C102C1F2C4C0A031D142C152CFB
:100828001D2C0030C1000030C0000030BF00003077
:10083800BE00C017272C0030C1000030C0000030B7
:10084800BF000030BE004C0803192B2C2C2C312C77
:100858004D08031D302C312C3A2C0030BD000030DF
:10086800BC000030BB000030BA00172F3A08F00077
:1008780040080A128A11D0270A128A1171088312B5
:100888000313D3007008D2005208C200C301C40188
:10089800C5014508CB004408CA004308C9004208FE
:1008A800C8005308C200C301C401C5014508D100EE
:1008B8004408D0004308CF004208CE003B08F000AF
:1008C8003F080A128A11D0270A128A117108831266
:1008D8000313D3007008D2005208C200C301C40138
:1008E800C5014208C807430803110318013E03194C
:1008F8007E2CC907440803110318013E0319852CEF
:10090800CA07450803110318013E03198C2CCB07AD
:100918005308C200C301C401C5014208CE074308F9
:1009280003110318013E03199A2CCF074408031139
:100938000318013E0319A12CD00745080311031819
:10094800013E0319A82CD1073C08F0003E080A1202
:100958008A11D0270A128A11710883120313D3004F
:100968007008D2005208C200C301C401C501420880
:10097800C807430803110318013E0319C42CC9070B
:10098800440803110318013E0319CB2CCA07450874
:1009980003110318013E0319D22CCB075308C200D8
:1009A800C301C401C5014208CE0743080311031857
:1009B800013E0319E02CCF07440803110318013E38
:1009C8000319E72CD007450803110318013E031942
:1009D800EE2CD1070830C2000310C80DC90DCA0D8E
:1009E800CB0DC20BF02C3B08F0003E080A128A110E
:1009F800D0270A128A11710883120313D3007008D2
:100A0800D2005208C2005308C300C401C5014208FD
:100A1800C807430803110318013E0319142DC90719
:100A2800440803110318013E03191B2DCA07450882
:100A380003110318013E0319222DCB073A08F000D1
:100A48003F080A128A11D0270A128A1171088312E4
:100A58000313D3007008D2005208C2005308C30021
:100A6800C401C5014208C807430803110318013E21
:100A780003193F2DC907440803110318013E031940
:100A8800462DCA07450803110318013E03194D2DC9
:100A9800CB070830C2000310C80DC90DCA0DCB0D15
:100AA800C20B4F2D3A08F0003E080A128A11D027CF
:100AB8000A128A11710883120313D3007008D20036
:100AC8005208C2005308C300C401C5014208C80740
:100AD800430803110318013E0319732DC90744087D
:100AE80003110318013E03197A2DCA07450803119B
:100AF8000318013E0319812DCB073B08F00040087D
:100B08000A128A11D0270A128A1171088312031354
:100B1800D3007008D2005208C2005308C300C401B1
:100B2800C5014208CE07430803110318013E031903
:100B38009E2DCF07440803110318013E0319A52D64
:100B4800D007450803110318013E0319AC2DD1073E
:100B58003C08F0003F080A128A11D0270A128A11AD
:100B6800710883120313D3007008D2005208C20020
:100B78005308C300C401C5014208CE074308031146
:100B88000318013E0319C92DCF07440803110318A0
:100B9800013E0319D02DD007450803110318013E63
:100BA8000319D72DD1073C08F00040080A128A1112
:100BB800D0270A128A11710883120313D300700810
:100BC800D2005208C2005308C300C401C50108304E
:100BD8000310C20DC30DC40DC50DFF3E031DEC2D42
:100BE8004208CE07430803110318013E0319FD2DDF
:100BF800CF07440803110318013E0319042ED00738
:100C0800450803110318013E03190B2ED1074808A4
:100C1800C2004908C3004A08C4004B08C500183080
:100C28000310C50CC40CC30CC20CFF3E031D142ECC
:100C38004208CE07430803110318013E0319252E65
:100C4800CF07440803110318013E03192C2ED007BF
:100C5800450803110318013E0319332ED107083044
:100C6800C2000310C80DC90DCA0DCB0DC20B352E1D
:100C78004D084C07C200C301C30D4208823ED20092
:100C880043080318013EFF3ED300672E0130C2001F
:100C98000310CE0DCF0DD00DD10DC20B4C2ECB1F96
:100CA800562E572E582E4E140130C2000310C80D70
:100CB800C90DCA0DCB0DC20B5A2EFF30D20703182F
:100CC800D30AFF30D307D01F6A2E6B2E4A2ECC01D1
:100CD800CB1F6F2E702E8C2EFF304805C200FF30C0
:100CE8004905C300FF304A05C4007F304B05C500E5
:100CF80045084404430442040319832E842E872E96
:100D0800CC01CC0A8C2E4E1C8A2E8B2E8C2E842E37
:100D18004C080319902E912EC22E0130CE070030B8
:100D280003180130CF07003003180130D007003016
:100D380003180130D107511CA22EA32EC22E4E0833
:100D4800C2004F08C3005008C4005108C500013054
:100D5800C600450DC50CC40CC30CC20CC60BAD2E89
:100D68004508D1004408D0004308CF004208CE000F
:100D78000130D2070318D30A0030D3075308803A4A
:100D8800FF0080307F02031DCB2EFF305202031C70
:100D9800CE2ECF2EDA2E7F3083120313D10080306F
:100DA800D0000030CF000030CE000B2F8312031389
:100DB8005308803AFF0080307F02031DE52E013082
:100DC80052020318E82EE92EF52E00308312031381
:100DD800D1000030D0000030CF000030CE00C70175
:100DE8000B2F831203135208CD00FF30CE05FF30BE
:100DF800CF057F30D0050030D1054D1C042F052FBD
:100E0800062FD0174D08C2000310420CD100470826
:100E1800C2004208D1045108BD005008BC004F0868
:100E2800BB004E08BA000800F800780803191D2F07
:100E38001E2F322FF31F212F222F322F7009FA0075
:100E48007109FB007209FC007309FD00FA0A031915
:100E5800FB0A0319FC0A0319FD0A3A2F7308FD005F
:100E68007208FC007108FB007008FA00730872042D
:100E780071047004031D412F422F4B2F0030F300E3
:100E88000030F2000030F1000030F000CF2F963033
:100E9800F9005B2F0130F4007408F90701300310E2
:100EA800FD0CFC0CFB0CFA0CFF3E031D532FFE300F
:100EB8007D05031D602F612F4E2F7D2F0130F4001B
:100EC8007408F9070130FA07003003180130FB07EE
:100ED800003003180130FC07003003180130FD070B
:100EE80001300310FD0CFC0CFB0CFA0CFF3E031D3B
:100EF800752FFF307D05031D822F832F622F8F2FC3
:100F08000130F9020130F4000310FA0DFB0DFC0D5D
:100F1800FD0DF40B882FFC1B922F932F992F023075
:100F280079020318982F992F842F79189C2F9D2FB9
:100F3800A52FFF30FA05FF30FB057F30FC05FF3099
:100F4800FD050310F90C7908F400F501F601F70125
:100F580018300310F40DF50DF60DF70DFF3E031DC7
:100F6800AD2F7408FA047508FB047608FC047708AA
:100F7800FD0478080319C12FC22FC72FF31FC52FEF
:100F8800C62FC72FFD177D08F3007C08F2007B08E9
:100F9800F1007A08F0000800F800F401F501700883
:100FA800F200F3017208F6007308F700781CDD2FD1
:100FB800DE2FE42F7608F4070318F50A7708F507FB
:100FC80001300310F60DF70DFF3E031DE52F03104A
:100FD800F80C7808031DF12FF22FDA2F7508F100AD
:100FE8007408F000080064008001840A04060319EC
:060FF80000340406F82F8E
:10104A000134013483160313A9002903031D2E2832
:10105A002F28C028250883120313C10083160313FF
:10106A00240883120313C000831603132308831270
:10107A000313BF0083160313220883120313BE004F
:10108A004030BD008030BC000030BB000030BA00E8
:10109A000A128A11D3230A128A15831203133D08EE
:1010AA00A7003C08A6003B08A5003A08A400363071
:1010BA00A3008630A2003730A100BD30A0000A1676
:1010CA008A112D260A128A15831203132308EB00AC
:1010DA002208EA002108E9002008E8000A168A1115
:1010EA007C220A128A1583120313690883160313D2
:1010FA00AB0083120313680883160313AA002B0894
:10110A00A7002A08A600270DA70CA60C270DA70CD6
:10111A00A60C2608A23EFF3A013E8312031395004D
:10112A00831603132A080139A600A60E8312031395
:10113A001708831603132606EF39260683120313AC
:10114A009700831603132B08A7002A08A600270D69
:10115A00A70CA60C26080139A800A80EA80D831210
:10116A0003131708831603132806DF392806831288
:10117A0003139700542902302906031DC528C628DF
:10118A005429250883120313C10083160313240864
:10119A0083120313C0008316031323088312031355
:1011AA00BF0083160313220883120313BE004030C4
:1011BA00BD008030BC000030BB000030BA000A120B
:1011CA008A11D3230A128A15831203133D08A70032
:1011DA003C08A6003B08A5003A08A4003630A30044
:1011EA008630A2003730A100BD30A0000A168A114D
:1011FA002D260A128A15831203132308EB002208EC
:10120A00EA002108E9002008E8000A168A117C226F
:10121A000A128A1583120313690883160313AD0091
:10122A0083120313680883160313AC002D08A70062
:10123A002C08A600270DA70CA60C270DA70CA60C98
:10124A0026083C3E831203139B00831603132C08C3
:10125A000139A600A60E831203131D088316031371
:10126A002606EF392606831203139D0083160313FD
:10127A002D08A7002C08A600270DA70CA60C2608E7
:10128A000139A800A80EA80D831203131D0883169E
:10129A0003132806DF392806831203139D0008006A
:1012AA008316031736088039C0003608B700370797
:1012BA00C700B51F61296229632947144708031922
:1012CA00672968297829470A031D6C296D29752918
:1012DA000030B6000030B5000030B4000030B30072
:1012EA00B517B60180290030B6000030B5000030CD
:1012FA00B4000030B30032088039B7003708C0069E
:10130A003208B7003707C800B11F8C298D298E29EA
:10131A0048144808031992299329A329480A031D46
:10132A0097299829A0290030B2000030B100003076
:10133A00B0000030AF00B117B201AB290030B200E3
:10134A000030B1000030B0000030AF003208310484
:10135A0030042F04031DB229B329CC290030B6006A
:10136A000030B5000030B4000030B3008030B5045E
:10137A007F30B6044008B7003708B6043608B20012
:10138A003508B1003408B0003308AF00272B4708EE
:10139A00031DD029D129DA290030B2000030B1006A
:1013AA000030B0000030AF00272B4708B700B80163
:1013BA003808BA0048083702B900031CBA033908CA
:1013CA007F3EC1003A080318013E003EC2003608BB
:1013DA00BF003508BE003408BD003308BC00003029
:1013EA00B6000030B5000030B4000030B300003061
:1013FA00C6000030C5000030C4000030C300C80178
:10140A00502A480803190A2A0B2A2B2A0130B70046
:10141A000310BC0DBD0DBE0DBF0DB70B0D2A01305B
:10142A00B7000310B30DB40DB50DB60DB70B162AE0
:10143A00C61F202A212A222A33140130B70003109A
:10144A00C30DC40DC50DC60DB70B242A32083F02C1
:10145A00031D392A31083E02031D392A30083D028C
:10146A00031D392A2F083C02031C3C2A3D2A4C2A18
:10147A0046172F08BC023008031C300FBD02310882
:10148A00031C310FBE023208031C320FBF020130A7
:10149A00B7003708C8071A304802031C552A562ACB
:1014AA00062A3F083E043D043C0403195D2A5E2ACD
:1014BA007D2A43147D2A0130B7000310B30DB40D01
:1014CA00B50DB60DB70B622AC61F6C2A6D2A6E2A95
:1014DA0033140130B7000310C30DC40DC50DC60D7A
:1014EA00B70B702AFF30C1070318C20AFF30C207C0
:1014FA00B51F802A812A602AC801C61F852A862A22
:10150A00A22AFF304305B700FF304405B800FF3078
:10151A004505B9007F304605BA003A08390438044F
:10152A0037040319992A9A2A9D2AC801C80AA22AA5
:10153A00331CA02AA12AA22A9A2A48080319A62AF1
:10154A00A72AD82A0130B307003003180130B4079C
:10155A00003003180130B507003003180130B60710
:10156A00361CB82AB92AD82A3308B7003408B80072
:10157A003508B9003608BA000130BB003A0DBA0C7A
:10158A00B90CB80CB70CBB0BC32A3A08B600390819
:10159A00B5003808B4003708B3000130C107031892
:1015AA00C20A0030C2074208803AFF0080307F0238
:1015BA00031DE12AFF304102031CE42AE52AF32A2B
:1015CA00FF3083160317C1000030C2000030B60096
:1015DA000030B5000030B4000030B30083160317A2
:1015EA004208803AFF0080307F02031DFE2A013044
:1015FA0041020318012B022B0F2B83160317C1017B
:10160A00C2010030B6000030B5000030B40000302E
:10161A00B300C001831603174108C700471C162BE5
:10162A00172B192BB5171D2B7F30B7003708B505B7
:10163A004708B7000310370CB6004008B700370850
:10164A00B604C32908008312031357088039E4003B
:10165A005708DC005C07E600D61F342B352B362BE7
:10166A006614660803193A2B3B2B4B2B660A031D9B
:10167A003F2B402B482B0030D7000030D6000030DB
:10168A00D5000030D400D617D701532B0030D7002D
:10169A000030D6000030D5000030D4005B08803915
:1016AA00E5006508640603195B2B5C2B5D2B641748
:1016BA005B08DC005C07E500DA1F642B652B662BF0
:1016CA006514650803196A2B6B2B7B2B650A031DAE
:1016DA006F2B702B782B0030DB000030DA000030E3
:1016EA00D9000030D800DA17DB01832B0030DB0089
:1016FA000030DA000030D9000030D80066086502F0
:10170A000318882B892BAF2B641F8C2B8D2B912BC5
:10171A008030DC005C08E4066608E7006508E6003D
:10172A006708E5005408E7005808D4006708D8009D
:10173A005508E7005908D5006708D9005608E70098
:10174A005A08D6006708DA005708E7005B08D7008E
:10175A006708DB00E7016508DC00DD015D08DF00E2
:10176A0066085C02DE00031CDF035F08803AFF00A4
:10177A0080307F02031DC32B1A305E02031CC62B66
:10178A00C72BFE2B8312031357085604550454041F
:10179A00031DD02BD22B0130D32B0030E7000030B1
:1017AA00D7000030D6000030D5000030D4006508DC
:1017BA00E600062C671CE22BE32BEA2B6708DC0009
:1017CA0003105C0C0138E700EC2B0310E70C541CE7
:1017DA00EF2BF02BF12BE7170130DC00570DD70C5C
:1017EA00D60CD50CD40CDC0BF32B0130DC005C08D6
:1017FA00E6078312031365086602031C052C062CF0
:10180A00DF2B641B092C0A2C532C6608031D0E2C93
:10181A000F2C182C0030D7000030D6000030D5002D
:10182A000030D4007F2D5808D40759080311031833
:10183A00013E0319212CD5075A0803110318013E4A
:10184A000319282CD6075B0803110318013E031954
:10185A002F2CD707571C322C332C072D671C362CFC
:10186A00372C3E2C6708DC0003105C0C0138E700BB
:10187A00402C0310E70C541C432C442C452CE7172E
:10188A000130DC00570DD70CD60CD50CD40CDC0B70
:10189A00472C0130DC005C08E607072D5708803A20
:1018AA00FF005B08803A7F02031D652C5A08560226
:1018BA00031D652C59085502031D652C580854024E
:1018CA000318682C692CC12CFF30DC00FF30DD00C6
:1018DA00FF30DE00FF30DF005808E0005908E10061
:1018EA005A08E2005B08E3005408E0025508031CAA
:1018FA00550F802C812CE1025608031C560F862CAA
:10190A00872CE2025708031C570F8C2C8D2CE302FC
:10191A006008DC0761080318610F942C952CDD0719
:10192A0062080318620F9A2C9B2CDE0763080318BF
:10193A00630ADF075F08D7005E08D6005D08D50096
:10194A005C08D4008030DC005C08E406E709E70A9A
:10195A006708031DB12CB22CCF2C0130D4070030FC
:10196A0003180130D507003003180130D6070030BC
:10197A0003180130D707CF2C5808D4025908031C82
:10198A00590FD5025A08031C5A0FD6025B08031CCA
:10199A005B0FD7025708560455045404031DD62C6E
:1019AA00D72C032D6708031DDB2CDC2C032D0030FC
:1019BA00D7000030D6000030D5000030D4007F2D8B
:1019CA000130DC000310D40DD50DD60DD70DDC0B7C
:1019DA00E72CE71FF12CF22CF32C5414671CF62C7D
:1019EA00F72CFA2C0314E70DFC2C0310E70D6608FC
:1019FA000319002D012D032D0130E602D61F062DF5
:101A0A00072DE52CE501E71F0B2D0C2D1A2D670874
:101A1A007F390319112D122D152DE501E50A1A2D0D
:101A2A00541C182D192D1A2D122D650803191E2D57
:101A3A001F2D532D0130D407003003180130D5076C
:101A4A00003003180130D607003003180130D707D9
:101A5A00571C302D312D532D5408DC005508DD005C
:101A6A005608DE005708DF000130E0005F0DDF0C8A
:101A7A00DE0CDD0CDC0CE00B3B2D5F08D7005E08AA
:101A8A00D6005D08D5005C08D400660A03194E2DFD
:101A9A004F2D532D0130DC005C08E607660A031956
:101AAA00572D582D5D2D6608031D5C2D5D2D6B2D60
:101ABA000030D7000030D6000030D5000030D40006
:101ACA006608031D692D6A2D6B2DE401661C6E2DB7
:101ADA006F2D712DD617752D7F30DC005C08D60569
:101AEA006608DC0003105C0CD700E41F7D2D7E2DF8
:101AFA007F2DD71708000B1D832D842D8A2D0A16DA
:101B0A008A11D5210A128A150B110B1C8D2D8E2DC7
:101B1A009A2D831203130618932D942D992D83164B
:101B2A0003135608013ED6000B10831203130C1F31
:101B3A009F2DA02DF52F1F0C83160313AE002E0C1C
:101B4A000F39003A031DAA2DAB2D602E8312031301
:101B5A001E0883160313AE00AF01B001B1013108AC
:101B6A00F3003008F2002F08F1002E08F0000130CF
:101B7A000A128A1118270A128A1573088312031384
:101B8A00C1007208C0007108BF007008BE003F3073
:101B9A00BD006630BC006630BB006630BA000A126F
:101BAA008A11D3230A128A15831203133D08EB0004
:101BBA003C08EA003B08E9003A08E8000A168A11DC
:101BCA007C220A128A1583120313690883160313E7
:101BDA00D20083120313680883160313D100393025
:101BEA0083120313BD008330BC001230BB006F3078
:101BFA00BA004330A3007F30A2000030A1000030B9
:101C0A00A0001E0883160313AE00AF01B001B10194
:101C1A003108F3003008F2002F08F1002E08F00016
:101C2A0001300A128A1118270A128A1573088312B8
:101C3A000313A7007208A6007108A5007008A40083
:101C4A000A168A112D260A128A15831203132308EB
:101C5A00C1002208C0002108BF002008BE000A12E5
:101C6A008A11D3230A128A15831203133D08831695
:101C7A000313B800831203133C0883160313B70037
:101C8A00831203133B0883160313B600831203134C
:101C9A003A0883160313B5003808A5003708A400CC
:101CAA003608A3003508A20001300A128A15272037
:101CBA000A128A15F22F831203131F0C83160313B9
:101CCA00AE002E0C0F39043A031D6C2E6D2E222FF6
:101CDA00831203131E0883160313AE00AF01B0016B
:101CEA00B1013108F3003008F2002F08F1002E0884
:101CFA00F00001300A128A1118270A128A1573088D
:101D0A0083120313C1007208C0007108BF00700873
:101D1A00BE003F30BD006630BC006630BB00663096
:101D2A00BA000A128A11D3230A128A1583120313DC
:101D3A003D08EB003C08EA003B08E9003A08E800E5
:101D4A000A168A117C220A128A1583120313690859
:101D5A0083160313D0008312031368088316031330
:101D6A00CF00393083120313BD008330BC00123018
:101D7A00BB006F30BA004330A3007F30A2000030AE
:101D8A00A1000030A0001E0883160313AE00AF01A5
:101D9A00B001B1013108F3003008F2002F08F10058
:101DAA002E08F00001300A128A1118270A128A1521
:101DBA00730883120313A7007208A6007108A5000E
:101DCA007008A4000A168A112D260A128A1583128F
:101DDA0003132308C1002208C0002108BF002008FD
:101DEA00BE000A128A11D3230A128A158312031318
:101DFA003D0883160313B800831203133C088316A5
:101E0A000313B700831203133B0883160313B600A8
:101E1A00831203133A0883160313B5003808A50082
:101E2A003708A4003608A3003508A20002300A12B7
:101E3A008A1527200A128A15F22F831203131F0C00
:101E4A0083160313AE002E0C0F39013A031D2E2FF1
:101E5A002F2F8A2F831203131E0883160313AE0033
:101E6A00AF01B001B1013108F3003008F2002F08C8
:101E7A00F1002E08F00001300A128A1118270A12FE
:101E8A008A15730883120313C1007208C00071080F
:101E9A00BF007008BE003D30BD00F030BC00F0301D
:101EAA00BB00F130BA000A128A11D3230A128A152A
:101EBA00831203133D08DB003C08DA003B08D90013
:101ECA003A08D8004030D700C030D6000030D500DC
:101EDA000030D4000A128A1528230A128A1583129E
:101EEA0003135708EB005608EA005508E90054089E
:101EFA00E8000A168A117C220A128A158312031331
:101F0A00680883160317EF00F22F831203131F0CBE
:101F1A0083160313AE002E0C0F39023A031D962FB7
:101F2A00972FF22F831203131E0883160313AE0092
:101F3A00AF01B001B1013108F3003008F2002F08F7
:101F4A00F1002E08F00001300A128A1118270A122D
:101F5A008A15730883120313C1007208C00071083E
:101F6A00BF007008BE003D30BD00F030BC00F0304C
:101F7A00BB00F130BA000A128A11D3230A128A1559
:101F8A00831203133D08DB003C08DA003B08D90042
:101F9A003A08D8004030D700C030D6000030D5000B
:101FAA000030D4000A128A1528230A128A158312CD
:101FBA0003135708EB005608EA005508E9005408CD
:101FCA00E8000A168A117C220A128A158312031360
:101FDA00680883160317EE00F22F831203130C13FB
:101FEA00831603133408FF0033088A00320E830075
:061FFA00FE0E7E0E090040
:10233C008316031794009001910183160313390837
:10234C00BB00BC013B0883160317920083160313D2
:10235C003C08831603179300141CB529B629BC2915
:10236C00120890070318910A130891070130031003
:10237C00920D930DFF3E031DBD290310940C140800
:10238C00031DC929CA29B229110883160313BA00DF
:10239C0083160317100883160313B900080083165D
:1023AC0003135603031DDB29DC29F22983120313C3
:1023BC00071EE129E229EA29831603176F08831205
:1023CC000313810007120D2A831603176F0983125A
:1023DC000313810007160D2A02305606031DF72938
:1023EC00F8290D2A83120313871EFD29FE29062ABC
:1023FC00831603176E0883120313810087120D2AAC
:10240C00831603176E0983120313810087160800C5
:10241C0083160317D3005208B6005108B5005008B4
:10242C00B4004F08B3003730B2008630B1003730FB
:10243C00B000BD30AF000A128A1555210A168A1158
:10244C00831603173208CC003108CB003008CA00C1
:10245C002F08C9000A168A1198230A168A118316A6
:10246C0003174908831603139200831603175303AB
:10247C00031D412A422A522A8316031307153F30A3
:10248C008312031397051708F0390D389700FF30A6
:10249C00950017129712622A02305306031D572A11
:1024AC00582A622A8316031387140F3083120313DE
:1024BC009D049B011D129D12831203138C1003307B
:1024CC00920412158C1C6B2A6C2A682A8C108316A9
:1024DC0003175303031D732A742A782A83160313D4
:1024EC0007117B2A8316031387100800031083122D
:1024FC0003136A0D6B0D83160313A1002108031D32
:10250C00882A892A942A003083120313EB000030A6
:10251C00EA000030E9000030E800092B83120313B5
:10252C006808EC006908ED006A08EE006B08EF0023
:10253C001F300310EF0CEE0CED0CEC0CFF3E031DEA
:10254C009F2A6C0883160313A00083120313EA1747
:10255C00FF30E805FF30E905FF30EA050030EB05F8
:10256C00963083160313A102A11FBD2ABE2ADC2AB2
:10257C002108803A973E0318C42AC52AC62A892AFC
:10258C000130031083120313EB0CEA0CE90CE80C7A
:10259C00FF3E031DC72A0130EC006C0883160313A1
:1025AC00A107031DDA2ADB2AC62AF72A20302102CA
:1025BC00031CE12AE22AF22A892A0130831203132E
:1025CC00EC000310E80DE90DEA0DEB0DEC0BE72A1E
:1025DC00013083160313A1022108031DF62AF72AE2
:1025EC00E32A20080319FB2AFC2A092B8312031364
:1025FC00E809E909EA09EB09E80A0319E90A0319E8
:10260C00EA0A0319EB0A08008316031708140815C5
:10261C00081689010F308316031386008701880181
:10262C0089018312031385018601870188018901C1
:10263C008316031381137F3096000F088F3960388F
:10264C008F000F1481128111011581100114831256
:10265C00031381010B108B150B118B160C130B171D
:10266C00831603130C178B17831203139F14C33099
:10267C009F05831603131F129F12831203131F0847
:10268C003F3980389F00831603139F138312031363
:10269C001F14C73083160317DB00542BDB0B532B93
:1026AC00572B3C3083160317D200A330D100D73000
:1026BC00D0000A30CF0001300A168A110E220A16F9
:1026CC008A11393083160317D2008330D1001230AF
:1026DC00D0006F30CF0001300A168A1127250A1658
:1026EC008A113C3083160317D200A330D100D730A7
:1026FC00D0000A30CF0002300A168A110E220A16B8
:10270C008A11393083160317D2008330D10012306E
:10271C00D0006F30CF0002300A168A1127250A1616
:10272C008A1108000310831603174B0D4C0DCE00B5
:10273C004E08031DA22BA32BAC2B0030CC00003079
:10274C00CB000030CA000030C9002B2C490883167E
:10275C000313BD00831603174A0883160313BE0028
:10276C00831603174B0883160313BF008316031736
:10277C004C0883160313C0001F300310C00CBF0C91
:10278C00BE0CBD0CFF3E031DC32B3D088316031767
:10279C00CD00CB17FF30C905FF30CA05FF30CB0584
:1027AC000030CC059630CE02CE1FDD2BDE2BFC2B61
:1027BC004E08803A973E0318E42BE52BE62BA32B0F
:1027CC0001300310CC0CCB0CCA0CC90CFF3E031D02
:1027DC00E72B013083160313BD003D088316031746
:1027EC00CE07031DFA2BFB2BE62B1B2C20304E02A5
:1027FC00031C012C022C162CA32B01308316031363
:10280C00BD00031083160317C90DCA0DCB0DCC0DDB
:10281C0083160313BD0B072C013083160317CE024E
:10282C004E08031D1A2C1B2C032C4D0803191F2CAE
:10283C00202C2B2CC909CA09CB09CC09C90A0319AC
:10284C00CA0A0319CB0A0319CC0A080006308316EE
:10285C000317E8000030E9002430E6000030E70000
:10286C000630EF000630EE000A168A110A230A160B
:10287C008A11831203139F14033083160313560615
:10288C00031D492C4A2C4C2CD601D60A831603174F
:10289C006908803A803C031D552C68086F02031CA4
:1028AC00582C592C632C831603176F08DC00DD01A0
:1028BC005C08DE005D08DF00692C831603176908CD
:1028CC00DF006808DE005E08EF006708803ADC0075
:1028DC0080305C02031D742C6F086602031C772C7D
:1028EC00782C822C831603176F08DC00DD015C0842
:1028FC00E0005D08E100882C831603176708E100EF
:10290C006608E0006008EF006908803A803C031D0F
:10291C00912C68086E02031C942C952C9F2C83160A
:10292C0003176E08DC00DD015C08E2005D08E300C3
:10293C00A52C831603176908E3006808E2006208F7
:10294C00EE006708803ADC0080305C02031DB02C7E
:10295C006E086602031CB32CB42CBE2C8316031712
:10296C006E08DC00DD015C08E4005D08E500C42CA9
:10297C00831603176708E5006608E4006408EE0098
:10298C00831203139F18CB2CCC2C422C1F0C8316B8
:10299C000317DC005C0C0F39003A031DD62CD72C26
:1029AC00DE2C831203131F08C33910389F00182D17
:1029BC00831203131F0C83160317DC005C0C0F39F6
:1029CC00043A031DEA2CEB2CF22C831203131F0880
:1029DC00C33908389F00182D831203131F0C83165C
:1029EC000317DC005C0C0F39023A031DFE2CFF2C84
:1029FC00062D831203131F08C33904389F00182DAA
:102A0C00831203131F0C83160317DC005C0C0F39A5
:102A1C00013A031D122D132D182DC33083120313ED
:102A2C009F05182DC73083160317DC001D2DDC0BFA
:102A3C001C2D202D831203139F14422C0A128A1171
:102A4C00102883160317D6005603031D2E2D2F2D89
:102A5C00AC2D52089C0051089B0050089A004F085E
:102A6C00990040309800803097000030960000307C
:102A7C0095000A128A1134200A168A11831603173C
:102A8C001808B6001708B5001608B4001508B300EE
:102A9C003630B2008630B1003730B000BD30AF00F8
:102AAC000A128A1555210A168A1183160317320841
:102ABC00CC003108CB003008CA002F08C9000A1618
:102ACC008A1198230A168A11831603174A08D8000C
:102ADC004908D7005808D4005708D300540DD40C1B
:102AEC00D30C540DD40CD30C5308A23EFF3A013E28
:102AFC008312031395008316031757080139D3006B
:102B0C00D30E831203131708831603175306EF39DA
:102B1C005306831203139700831603175808D40027
:102B2C005708D300540DD40CD30C53080139D500DD
:102B3C00D50ED50D831203131708831603175506EC
:102B4C00DF3955068312031397002C2E02305606DC
:102B5C00031DB12DB22D2C2E52089C0051089B0048
:102B6C0050089A004F089900403098008030970028
:102B7C0000309600003095000A128A1134200A1693
:102B8C008A11831603171808B6001708B500160823
:102B9C00B4001508B3003630B2008630B1003730BF
:102BAC00B000BD30AF000A128A1555210A168A11E1
:102BBC00831603173208CC003108CB003008CA004A
:102BCC002F08C9000A168A1198230A168A1183162F
:102BDC0003174A08DA004908D9005A08D4005908E2
:102BEC00D300540DD40CD30C540DD40CD30C53086B
:102BFC003C3E831203139B008316031759080139BB
:102C0C00D300D30E831203131D0883160317530628
:102C1C00EF395306831203139D00831603175A08CA
:102C2C00D4005908D300540DD40CD30C53080139DB
:102C3C00D500D50ED50D831203131D08831603176B
:102C4C005506DF395506831203139D0008008312C5
:102C5C00031327088039B1002708A8002807B800FB
:102C6C00A61F392E3A2E3B2E3814380803193F2E46
:102C7C00402E502E380A031D442E452E4D2E00306A
:102C8C00A7000030A6000030A5000030A400A61755
:102C9C00A701582E0030A7000030A6000030A50078
:102CAC000030A40023088039A8002808B1062308A6
:102CBC00A8002807B900A21F642E652E662E3914B1
:102CCC00390803196A2E6B2E7B2E390A031D6F2EC1
:102CDC00702E782E0030A3000030A2000030A1002E
:102CEC000030A000A217A301832E0030A3000030F7
:102CFC00A2000030A1000030A0002308220421040F
:102D0C002004031D8A2E8B2EA42E0030A700003029
:102D1C00A6000030A5000030A4008030A6047F304F
:102D2C00A7043108A8002808A7042708A300260830
:102D3C00A2002508A1002408A000FF2F3808031DBD
:102D4C00A82EA92EB22E0030A3000030A200003015
:102D5C00A1000030A000FF2F3808A800A901290805
:102D6C00AB0039082802AA00031CAB032A087F3EDB
:102D7C00B2002B080318013E003EB3002708B00038
:102D8C002608AF002508AE002408AD000030A700CF
:102D9C000030A6000030A5000030A4000030B700C1
:102DAC000030B6000030B5000030B400B901282F57
:102DBC0039080319E22EE32E032F0130A80003106B
:102DCC00AD0DAE0DAF0DB00DA80BE52E0130A8006A
:102DDC000310A40DA50DA60DA70DA80BEE2EB71F65
:102DEC00F82EF92EFA2E24140130A8000310B40D7D
:102DFC00B50DB60DB70DA80BFC2E23083002031D24
:102E0C00112F22082F02031D112F21082E02031D42
:102E1C00112F20082D02031C142F152F242F3717C8
:102E2C002008AD022108031C210FAE022208031C4E
:102E3C00220FAF022308031C230FB0020130A8009D
:102E4C002808B9071A303902031C2D2F2E2FDE2E1D
:102E5C0030082F042E042D040319352F362F552F2F
:102E6C003414552F0130A8000310A40DA50DA60D88
:102E7C00A70DA80B3A2FB71F442F452F462F24140C
:102E8C000130A8000310B40DB50DB60DB70DA80B8D
:102E9C00482FFF30B2070318B30AFF30B307A61F41
:102EAC00582F592F382FB901B71F5D2F5E2F7A2F4E
:102EBC00FF303405A800FF303505A900FF3036057A
:102ECC00AA007F303705AB002B082A0429042804FC
:102EDC000319712F722F752FB901B90A7A2F241C7F
:102EEC00782F792F7A2F722F390803197E2F7F2F85
:102EFC00B02F0130A407003003180130A5070030B3
:102F0C0003180130A607003003180130A707271C4F
:102F1C00902F912FB02F2408A8002508A90026086F
:102F2C00AA002708AB000130AC002B0DAB0CAA0C8F
:102F3C00A90CA80CAC0B9B2F2B08A7002A08A600E9
:102F4C002908A5002808A4000130B2070318B30A09
:102F5C000030B3073308803AFF0080307F02031D36
:102F6C00B92FFF303202031CBC2FBD2FCB2FFF30EB
:102F7C0083120313B2000030B3000030A7000030FE
:102F8C00A6000030A5000030A40083120313330800
:102F9C00803AFF0080307F02031DD62F01303202B1
:102FAC000318D92FDA2FE72F83120313B201B301C1
:102FBC000030A7000030A6000030A5000030A400AF
:102FCC00B101831203133208B800381CEE2FEF2F17
:102FDC00F12FA617F52F7F30A8002808A605380872
:102FEC00A8000310280CA7003108A8002808A70483
:042FFC009B2E080000
:08400000FF3FFF3FFF3FFF3FC0
:04400E00D420FF3F7C
:00000001FF
