:060000000A128A11122809
:10000800FE00030E83160313BD000408BE000A0891
:10001800BF007F08C0000A128A15B7290A128A1180
:100028001528831603130A168A1532210A128A1113
:10003800D6000A168A1533210A128A11D7000A1621
:100048008A1534210A128A11D8000A168A15352110
:100058000A128A11D9008317273084002F300A1218
:100068008A1502200A128A118313C5308400D630FB
:100078000A128A1502200A128A1183010A128A15A5
:10008800DB2C831603173B088039C5003B08C000EA
:100098004007CB00BA1F5128522853284B144B084D
:1000A80003195728582867284B0A031D5C285D2820
:1000B80065280030BB000030BA000030B9000030BD
:1000C800B800BA176F280030BB000030BA00003003
:1000D800B9000030B8003F088039C0004008C506A4
:1000E8003F08C0004007C600BE1F7B287C287D282B
:1000F800461446080319812882289128460A031DB8
:10010800862887288F280030BF000030BE000030C6
:10011800BD000030BC00BE1799280030BF00003079
:10012800BE000030BD000030BC00460803199D2801
:100138009E28A3284B08031DA228A328AC2800301A
:10014800BB000030BA000030B9000030B800892B7D
:10015800380890003E080A168A15E0210A128A110A
:10016800831603171108D1001008D0005008C000EA
:10017800C101C201C3014308CA004208C9004108BD
:10018800C8004008C7005108C000C101C201C3012E
:100198004308CF004208CE004108CD004008CC00FB
:1001A800390890003D080A168A15E0210A128A11BA
:1001B800831603171108D1001008D0005008C0009A
:1001C800C101C201C3014008C70741080311031850
:1001D800013E0319F028C807420803110318013E1D
:1001E8000319F728C907430803110318013E031927
:1001F800FE28CA075108C000C101C201C301400856
:10020800CC07410803110318013E03190C29CD0737
:10021800420803110318013E03191329CE074308A6
:1002280003110318013E03191A29CF073A08900051
:100238003C080A168A15E0210A128A118316031748
:100248001108D1001008D0005008C000C101C20137
:10025800C3014008C707410803110318013E0319E9
:100268003629C807420803110318013E03193D291E
:10027800C907430803110318013E03194429CA0793
:100288005108C000C101C201C3014008CC074108A0
:1002980003110318013E03195229CD07420803111F
:1002A8000318013E03195929CE07430803110318FF
:1002B800013E03196029CF070830C0000310C70D9D
:1002C800C80DC90DCA0DC00B6229390890003C0839
:1002D8000A168A15E0210A128A11831603171108D3
:1002E800D1001008D0005008C0005108C100C20158
:1002F800C3014008C707410803110318013E031949
:100308008629C807420803110318013E03198D29DD
:10031800C907430803110318013E03199429CA07A2
:10032800380890003D080A168A15E0210A128A1139
:10033800831603171108D1001008D0005008C00018
:100348005108C100C201C3014008C7074108031191
:100358000318013E0319B129C807420803110318FD
:10036800013E0319B829C907430803110318013EC0
:100378000319BF29CA070830C0000310C70DC80DEC
:10038800C90DCA0DC00BC129380890003C080A16CF
:100398008A15E0210A128A11831603171108D10061
:1003A8001008D0005008C0005108C100C201C301A4
:1003B8004008C707410803110318013E0319E5293E
:1003C800C807420803110318013E0319EC29C9079D
:1003D800430803110318013E0319F329CA07390812
:1003E80090003E080A168A15E0210A128A1183161F
:1003F80003171108D1001008D0005008C000510898
:10040800C100C201C3014008CC0741080311031809
:10041800013E0319102ACD07420803110318013EB3
:100428000319172ACE07430803110318013E0319BD
:100438001E2ACF073A0890003D080A168A15E021BF
:100448000A128A11831603171108D1001008D00068
:100458005008C0005108C100C201C3014008CC07C0
:10046800410803110318013E03193B2ACD0742082E
:1004780003110318013E0319422ACE07430803114A
:100488000318013E0319492ACF073A0890003E088D
:100498000A168A15E0210A128A1183160317110811
:1004A800D1001008D0005008C0005108C100C20196
:1004B800C30108300310C00DC10DC20DC30DFF3EAE
:1004C800031D5E2A4008CC07410803110318013EAA
:1004D80003196F2ACD07420803110318013E0319B7
:1004E800762ACE07430803110318013E03197D2A13
:1004F800CF074708C0004808C1004908C2004A0899
:10050800C30018300310C30CC20CC10CC00CFF3E52
:10051800031D862A4008CC07410803110318013E31
:100528000319972ACD07420803110318013E03193E
:100538009E2ACE07430803110318013E0319A52A72
:10054800CF070830C0000310C70DC80DC90DCA0D6C
:10055800C00BA72A4B084607C000C101C10D4008BF
:10056800823ED00041080318013EFF3ED100D92A3F
:100578000130C0000310CC0DCD0DCE0DCF0DC00B3A
:10058800BE2ACA1FC82AC92ACA2A4C140130C00068
:100598000310C70DC80DC90DCA0DC00BCC2AFF30FA
:1005A800D0070318D10AFF30D107CE1FDC2ADD2A75
:1005B800BC2AC601CA1FE12AE22AFE2AFF304705E3
:1005C800C000FF304805C100FF304905C2007F3038
:1005D8004A05C30043084204410440040319F52AAC
:1005E800F62AF92AC601C60AFE2A4C1CFC2AFD2A4C
:1005F800FE2AF62A46080319022B032B342B013056
:10060800CC07003003180130CD0700300318013043
:10061800CE07003003180130CF074F1C142B152BC1
:10062800342B4C08C0004D08C1004E08C2004F08CA
:10063800C3000130C400430DC30CC20CC10CC00C74
:10064800C40B1F2B4308CF004208CE004108CD0041
:100658004008CC000130D0070318D10A0030D10778
:100668005108803AFF0080307F02031D3D2BFF3088
:100678005002031C402B412B4C2B7F308316031751
:10068800CF008030CE000030CD000030CC007D2B74
:10069800831603175108803AFF0080307F02031D3C
:1006A800572B0130500203185A2B5B2B672B003055
:1006B80083160317CF000030CE000030CD00003085
:1006C800CC00C5017D2B831603175008CB00FF30E3
:1006D800CC05FF30CD057F30CE050030CF054B1C53
:1006E800762B772B782BCE174B08C0000310400CC5
:1006F800CF004508C0004008CF044F08BB004E0893
:10070800BA004D08B9004C08B8000800831203135A
:100718003D088039C7003D08C2004207CD00BC1F14
:10072800962B972B982B4D144D0803199C2B9D2B1A
:10073800AC2B4D0A031DA12BA22BAA2B0030BD0008
:100748000030BC000030BB000030BA00BC17B42B2E
:100758000030BD000030BC000030BB000030BA00E3
:1007680041088039C2004208C7064108C200420752
:10077800CC00C01FC02BC12BC22B4C144C08031932
:10078800C62BC72BD62B4C0A031DCB2BCC2BD42B1B
:100798000030C1000030C0000030BF000030BE0093
:1007A800C017DE2B0030C1000030C0000030BF0091
:1007B8000030BE004C080319E22BE32BE82B4D0850
:1007C800031DE72BE82BF12B0030BD000030BC00E7
:1007D8000030BB000030BA00CE2E3A08F0004008C6
:1007E8000A168A15B9210A128A117108831203138D
:1007F800D3007008D2005208C200C301C401C50169
:100808004508CB004408CA004308C9004208C8008C
:100818005308C200C301C401C5014508D1004408FA
:10082800D0004308CF004208CE003B08F0003F0844
:100838000A168A15B9210A128A117108831203133C
:10084800D3007008D2005208C200C301C401C50118
:100858004208C807430803110318013E0319352C41
:10086800C907440803110318013E03193C2CCA07A1
:10087800450803110318013E0319432CCB075308FD
:10088800C200C301C401C5014208CE0743080311D1
:100898000318013E0319512CCF074408031103180C
:1008A800013E0319582CD007450803110318013ECF
:1008B80003195F2CD1073C08F0003E080A168A1578
:1008C800B9210A128A11710883120313D300700820
:1008D800D2005208C200C301C401C5014208C807BA
:1008E800430803110318013E03197B2CC907440868
:1008F80003110318013E0319822CCA074508031186
:100908000318013E0319892CCB075308C200C30101
:10091800C401C5014208CE07430803110318013E6C
:100928000319972CCF07440803110318013E031934
:100938009E2CD007450803110318013E0319A52C66
:10094800D1070830C2000310C80DC90DCA0DCB0D60
:10095800C20BA72C3B08F0003E080A168A15B921DD
:100968000A128A11710883120313D3007008D20087
:100978005208C2005308C300C401C5014208C80791
:10098800430803110318013E0319CB2CC907440877
:1009980003110318013E0319D22CCA074508031195
:1009A8000318013E0319D92CCB073A08F0003F0879
:1009B8000A168A15B9210A128A11710883120313BB
:1009C800D3007008D2005208C2005308C300C40103
:1009D800C5014208C807430803110318013E03195B
:1009E800F62CC907440803110318013E0319FD2C0E
:1009F800CA07450803110318013E0319042DCB0744
:100A08000830C2000310C80DC90DCA0DCB0DC20BAA
:100A1800062D3A08F0003E080A168A15B9210A126E
:100A28008A11710883120313D3007008D200520888
:100A3800C2005308C300C401C5014208C8074308DF
:100A480003110318013E03192A2DC907440803118D
:100A58000318013E0319312DCA074508031103186D
:100A6800013E0319382DCB073B08F00040080A1651
:100A78008A15B9210A128A11710883120313D30047
:100A88007008D2005208C2005308C300C401C5014F
:100A98004208CE07430803110318013E0319552DD8
:100AA800CF07440803110318013E03195C2DD00732
:100AB800450803110318013E0319632DD1073C08AB
:100AC800F0003F080A168A15B9210A128A1171081E
:100AD80083120313D3007008D2005208C2005308CF
:100AE800C300C401C5014208CE0743080311031817
:100AF800013E0319802DCF07440803110318013E56
:100B08000319872DD007450803110318013E03195F
:100B18008E2DD1073C08F00040080A168A15B92125
:100B28000A128A11710883120313D3007008D200C5
:100B38005208C2005308C300C401C501083003109D
:100B4800C20DC30DC40DC50DFF3E031DA32D4208E4
:100B5800CE07430803110318013E0319B42DCF072C
:100B6800440803110318013E0319BB2DD00745089B
:100B780003110318013E0319C22DD1074808C2000A
:100B88004908C3004A08C4004B08C50018300310C0
:100B9800C50CC40CC30CC20CFF3E031DCB2D420870
:100BA800CE07430803110318013E0319DC2DCF07B4
:100BB800440803110318013E0319E32DD007450823
:100BC80003110318013E0319EA2DD1070830C200AA
:100BD8000310C80DC90DCA0DCB0DC20BEC2D4D0865
:100BE8004C07C200C301C30D4208823ED20043082D
:100BF8000318013EFF3ED3001E2E0130C200031031
:100C0800CE0DCF0DD00DD10DC20B032ECB1F0D2E47
:100C18000E2E0F2E4E140130C2000310C80DC90D40
:100C2800CA0DCB0DC20B112EFF30D2070318D30A01
:100C3800FF30D307D01F212E222E012ECC01CB1F2F
:100C4800262E272E432EFF304805C200FF304905C7
:100C5800C300FF304A05C4007F304B05C500450876
:100C680044044304420403193A2E3B2E3E2ECC0181
:100C7800CC0A432E4E1C412E422E432E3B2E4C08AE
:100C88000319472E482E792E0130CE07003003185D
:100C98000130CF07003003180130D00700300318A7
:100CA8000130D107511C592E5A2E792E4E08C200F8
:100CB8004F08C3005008C4005108C5000130C600E1
:100CC800450DC50CC40CC30CC20CC60B642E4508DC
:100CD800D1004408D0004308CF004208CE000130BC
:100CE800D2070318D30A0030D3075308803AFF000D
:100CF80080307F02031D822EFF305202031C852E96
:100D0800862E912E7F3083120313D1008030D000BD
:100D18000030CF000030CE00C22E831203135308D8
:100D2800803AFF0080307F02031D9C2E0130520262
:100D380003189F2EA02EAC2E003083120313D1006F
:100D48000030D0000030CF000030CE00C701C22EE6
:100D5800831203135208CD00FF30CE05FF30CF05B4
:100D68007F30D0050030D1054D1CBB2EBC2EBD2ECA
:100D7800D0174D08C2000310420CD1004708C2002A
:100D88004208D1045108BD005008BC004F08BB0000
:100D98004E08BA0008008312031797001703031DB3
:100DA800D62ED72E682F130883160317BF00831279
:100DB8000317120883160317BE00831203171108BE
:100DC80083160317BD008312031710088316031731
:100DD800BC004030BB008030BA000030B9000030A1
:100DE800B8000A128A1145200A128A1183160317BD
:100DF8003B08A5003A08A4003908A3003808A20057
:100E08003630A1008630A00037309F00BD309E00EC
:100E18000A168A152D260A128A1183160317210825
:100E2800E9002008E8001F08E7001E08E6000A1687
:100E38008A1544220A128A11831603176708831237
:100E4800031799008316031766088312031798007F
:100E58001908950018089400150D950C940C150D9B
:100E6800950C940C1408BB3EFF3A013E8312031301
:100E7800950083120317180801399400940E831201
:100E880003131708831203171406EF391406831285
:100E98000313970083120317190895001808940084
:100EA800150D950C940C140801399600960E960DA4
:100EB800831203131708831203171606DF39160661
:100EC800831203139700FC2F02301706031D6D2FA2
:100ED8006E2FFC2F130883160317BF008312031706
:100EE800120883160317BE0083120317110883160E
:100EF8000317BD0083120317100883160317BC00DD
:100F08004030BB008030BA000030B9000030B80073
:100F18000A128A1145200A128A11831603173B0800
:100F2800A5003A08A4003908A3003808A200363002
:100F3800A1008630A00037309F00BD309E000A1601
:100F48008A152D260A128A11831603172108E9002B
:100F58002008E8001F08E7001E08E6000A168A15A0
:100F680044220A128A11831603176708831203178B
:100F78009B00831603176608831203179A001B0841
:100F880095001A089400150D950C940C150D950CE8
:100F9800940C14083C3E831203139B00831203171E
:100FA8001A0801399400940E831203131D08831242
:100FB80003171406EF391406831203139D008312D6
:100FC80003171B0895001A089400150D950C940C2E
:100FD800140801399600960E960D831203131D0806
:100FE800831203171606DF391606831203139D00B2
:020FF8000800EF
:1010040064008001840A04060319003404060328DA
:1010140002308316031351065204031D12281328A9
:10102400882883128C1E1728182813280130831649
:101034000313D6070318D70A0030D7075608C73E4C
:101044008400831203131A08831380008316031386
:101054005608C73E84000008D03EC500FF30031880
:101064000030C6005608CB3E84004508800002309C
:1010740056065704031D3F2840288828FF30D60011
:10108400FF30D700013083120317A9000030AA00F3
:10109400831603134B08F600F7017608F00077086F
:1010A400F1006430F2000030F3000A168A156F2153
:1010B4000A128A157008F8007108F90083160313E0
:1010C4004C08FA00FB017A08F0007B08F1000A30B2
:1010D400F2000030F3000A168A156F210A128A15ED
:1010E40070087807FC0071080318710A7907FD007D
:1010F400831603134D087C07C90000300318013020
:101104007D07CA0049088312031388000800831668
:101114000313A9002903031D9028912822292508D7
:1011240083120313C10083160313240883120313C9
:10113400C00083160313230883120313BF0083160E
:101144000313220883120313BE004030BD00803015
:10115400BC000030BB000030BA000A128A118A2396
:101164000A128A15831203133D08A7003C08A6003F
:101174003B08A5003A08A4003630A3008630A2003C
:101184003730A100BD30A0000A168A155A240A126D
:101194008A15831203132308EB002208EA002108AE
:1011A400E9002008E8000A168A1537230A128A156E
:1011B40083120313690883160313AB00831203130A
:1011C400680883160313AA002B08A7002A08A600A0
:1011D400270DA70CA60C270DA70CA60C2608BB3EB2
:1011E400FF3A013E831203139500831603132A0862
:1011F4000139A600A60E83120313170883160313DE
:101204002606EF3926068312031397008316031369
:101214002B08A7002A08A600270DA70CA60C260851
:101224000139A800A80EA80D83120313170883160A
:1012340003132806DF392806831203139700B629FF
:1012440002302906031D27292829B62925088312D7
:101254000313C10083160313240883120313C0006D
:1012640083160313230883120313BF008316031387
:10127400220883120313BE004030BD008030BC003E
:101284000030BB000030BA000A128A118A230A1205
:101294008A15831203133D08A7003C08A6003B08E7
:1012A400A5003A08A4003630A3008630A2003730E7
:1012B400A100BD30A0000A168A155A240A128A1504
:1012C400831203132308EB002208EA002108E90033
:1012D4002008E8000A168A1537230A128A15831291
:1012E4000313690883160313AD00831203136808FC
:1012F40083160313AC002D08A7002C08A600270DA5
:10130400A70CA60C270DA70CA60C26083C3E83129E
:1013140003139B00831603132C080139A600A60EA1
:10132400831203131D08831603132606EF392606BA
:10133400831203139D00831603132D08A7002C08A2
:10134400A600270DA70CA60C26080139A800A80E94
:10135400A80D831203131D08831603132806DF390F
:101364002806831203139D0008000B1DBA29BB290C
:10137400C1290A168A1509220A128A150B11831229
:1013840003138C1EC629C729CC290A128A150A20E0
:101394000A128A150B1CCF29D029432A831203135E
:1013A4000618D529D629E129831603135108013ECD
:1013B400D10052080318013E003ED200422A86188A
:1013C400E429E529F029831603135808013ED800BF
:1013D40059080318013E003ED900422A0619F32990
:1013E400F429FF29013083160313B9003908D507FE
:1013F40083120317AB01AC01422A8619022A032A7D
:10140400082A013083160313D502FA29061A0B2A77
:101414000C2A172A831603135308F00055080A16DA
:101424008A154D210A128A15FA29861A1A2A1B2AA4
:10143400372A8316031355080A168A1536210A1209
:101444008A1583160313D40083120317AB01AC016E
:10145400831603135208AF005108AE0054080A164D
:101464008A1173210A128A15422A061B3A2A3B2A38
:10147400422A013083120317AB000030AC00422A29
:101484000B10831203130C1F482A492ACE2C8316EF
:10149400031351085204031D502A512AAE2C8312FF
:1014A40003131F0C83160313B900390C0F39003AC8
:1014B400031D5D2A5E2A0F2B831203131E08831655
:1014C4000313B900BA01BB01BC013C08F3003B089B
:1014D400F2003A08F1003908F00001300A168A11C6
:1014E40001200A128A15730883120313C1007208BB
:1014F400C0007108BF007008BE003F30BD00193045
:10150400BC009930BB009A30BA000A128A118A23AF
:101514000A128A15831203133D08EB003C08EA0003
:101524003B08E9003A08E8000A168A1537230A122C
:101534008A1583120313690883160313D0008312D8
:101544000313680883160313CF003930831203137F
:10155400BD008330BC001230BB006F30BA00433092
:10156400A3007F30A2000030A1000030A000831649
:1015740003134F08F0005008F1000030F11BFF3056
:10158400F200F30001300A168A1101200A128A15AA
:10159400730883120313A7007208A6007108A5003C
:1015A4007008A4000A168A155A240A128A1583128E
:1015B40003132308C1002208C0002108BF0020082B
:1015C400BE000A128A118A230A128A15831203138F
:1015D4003D0883160313C400831203133C088316C7
:1015E4000313C300831203133B0883160313C200BF
:1015F400831203133A0883160313C1004408A50099
:101604004308A4004208A3004108A20001300A12C2
:101614008A1589200A128A15CB2C831203131F0CF6
:1016240083160313B900390C0F39013A031D1B2B20
:101634001C2B7D2B831203131E0883160313B9007E
:10164400BA01BB01BC013C08F3003B08F2003A08B4
:10165400F1003908F00001300A168A1101200A123B
:101664008A15730883120313C1007208C00071083D
:10167400BF007008BE003D30BD004030BC00833068
:10168400BB001230BA000A128A118A230A128A1580
:10169400831203133D08DB003C08DA003B08D90041
:1016A4003A08D8004030D700C030D6000030D5000A
:1016B4000030D4000A168A1150230A128A158312A4
:1016C40003135708EB005608EA005508E9005408CC
:1016D400E8000A168A1537230A128A15831203139F
:1016E400690883120317B200831203136808831274
:1016F4000317B100CB2C831203131F0C831603139F
:10170400B900390C0F39023A031D892B8A2BEB2BB4
:10171400831203131E0883160313B900BA01BB0115
:10172400BC013C08F3003B08F2003A08F100390818
:10173400F00001300A168A1101200A128A15730872
:1017440083120313C1007208C0007108BF0070083F
:10175400BE003D30BD004030BC008330BB001230C1
:10176400BA000A128A118A230A128A1583120313F1
:101774003D08DB003C08DA003B08D9003A08D800F1
:101784004030D700C030D6000030D5000030D4003F
:101794000A168A1150230A128A1583120313570852
:1017A400EB005608EA005508E9005408E8000A1658
:1017B4008A1537230A128A158312031369088312C0
:1017C4000317B00083120313680883120317AF00D2
:1017D400CB2C831203131F0C83160313B900390C8B
:1017E4000F39033A031DF72BF82BAD2C8312031387
:1017F4001E0883160313B900BA01BB01BC013C08DF
:10180400F3003B08F2003A08F1003908F000013017
:101814000A168A1101200A128A1573088312031307
:10182400C1007208C0007108BF007008BE003F30DC
:10183400BD006630BC006630BB006630BA000A12D8
:101844008A118A230A128A15831203133D08EB00B6
:101854003C08EA003B08E9003A08E8000A168A1541
:1018640037230A128A158312031369088316031394
:10187400CE0083120313680883160313CD00393096
:1018840083120313BD008330BC001230BB006F30E1
:10189400BA004330A3007F30A2000030A100003022
:1018A400A0001E0883160313B900BA01BB01BC01D2
:1018B4003C08F3003B08F2003A08F1003908F00054
:1018C40001300A168A1101200A128A15730883123C
:1018D4000313A7007208A6007108A5007008A400ED
:1018E4000A168A155A240A128A1583120313230826
:1018F400C1002208C0002108BF002008BE000A124F
:101904008A118A230A128A15831203133D08831647
:101914000313C400831203133C0883160313C30088
:10192400831203133B0883160313C20083120313A9
:101934003A0883160313C1004408A5004308A40011
:101944004208A3004108A20002300A128A15892025
:101954000A128A15CB2CCB2C51035204031DB32C31
:10196400B42CCB2C831203131F0C83160313B9005E
:10197400390C0F39043A031DC02CC12CCB2C831213
:1019840003131E0883160313D30083120317AB013A
:10199400AC01831203130C13831603134008FF00D6
:1019A4003F088A003E0884003D0E8300FE0E7E0E32
:1019B4000900063083120317A5000030A600133077
:1019C400A3000030A4000630B1000030B20006309D
:1019D400AF000030B0000A168A15C5230A128A1512
:1019E4000A168A1594210A128A15831203139F1466
:1019F4008312031729032A04031D012D022D132D1D
:101A0400A901AA010130A7000030A8008312031322
:101A14000808831203179D009E011D08AD001E08CF
:101A2400AE002B032C04031D182D192D1A2D630051
:101A340083160313510883120313890083160313B7
:101A44005208803AFF0080307F02031D2B2D0330A3
:101A54005102031C2E2D2F2D332D83160313D10178
:101A6400D201831603135908803AFF0080307F02A5
:101A7400031D3E2D03305802031C412D422D482DD9
:101A8400013083160313D8000030D90083120317E2
:101A94003208803A9D002608803A1D02031D542D09
:101AA40025083102031C572D582D592D5F2D831203
:101AB40003172608B2002508B1008312031724086F
:101AC400803A9D003208803A1D02031D6B2D3108B7
:101AD4002302031C6E2D6F2D702D762D8312031798
:101AE4002408B2002308B100831203173008803A97
:101AF4009D002608803A1D02031D822D25082F0211
:101B0400031C852D862D872D8D2D83120317260802
:101B1400B0002508AF00831203172408803A9D0003
:101B24003008803A1D02031D992D2F082302031C3F
:101B34009C2D9D2D9E2DA42D831203172408B000E7
:101B44002308AF00831203139F18A92DAA2D152E65
:101B54001F0C831203179D001D0C0F39003A031D3F
:101B6400B42DB52DBC2D831203131F08C3391038AF
:101B74009F000A2E831203131F0C831203179D0068
:101B84001D0C0F39043A031DC82DC92DD02D831205
:101B940003131F08C3390C389F000A2E8312031342
:101BA4001F0C831203179D001D0C0F39033A031DEC
:101BB400DC2DDD2DE42D831203131F08C3390838EF
:101BC4009F000A2E831203131F0C831203179D0018
:101BD4001D0C0F39023A031DF02DF12DF82D83123F
:101BE40003131F08C33904389F000A2E83120313FA
:101BF4001F0C831203179D001D0C0F39013A031D9E
:101C0400042E052E0A2EC330831203139F050A2EB9
:101C1400C730831203179D000F2E9D0B0E2E122E1C
:101C2400831203139F148312031727032804031D2D
:101C34001C2E1D2EFA2CA701A8012D0883160317AC
:101C44009000831203172E088316031791000030A7
:101C5400911BFF309200930001300A168A11B920BB
:101C64000A128A15831603171308BF001208BE0050
:101C74001108BD001008BC003D30BB004030BA0064
:101C84008330B9001230B8000A128A1145200A12B2
:101C94008A15831603173B08D9003A08D800390877
:101CA400D7003808D6004030D500C030D40000300A
:101CB400D3000030D2000A168A11A8250A128A1508
:101CC400831603175508E9005408E8005308E70091
:101CD4005208E6000A168A1544220A128A15831647
:101CE4000317670883120317B200831603176608E5
:101CF40083120317B1002D08831603179000831273
:101D040003172E088316031791000030911BFF3030
:101D14009200930001300A168A11B9200A128A151A
:101D2400831603171308BF001208BE001108BD0074
:101D34001008BC003D30BB004030BA008330B9000D
:101D44001230B8000A128A1145200A128A15831625
:101D540003173B08D9003A08D8003908D7003808D7
:101D6400D6004030D500C030D4000030D30000305D
:101D7400D2000A168A11A8250A128A158316031797
:101D84005508E9005408E8005308E7005208E60043
:101D94000A168A1544220A128A158316031767083D
:101DA40083120317B0008316031766088312031700
:101DB400AF002D08831603179000831203172E0813
:101DC4008316031791000030911BFF30920093009B
:101DD40001300A168A11B9200A128A1583160317CC
:101DE4001308BF001208BE001108BD001008BC0093
:101DF4003F30BB001930BA009930B9009A30B800AE
:101E04000A128A1145200A128A15831603173B0801
:101E1400E9003A08E8003908E7003808E6000A163D
:101E24008A1544220A128A15831603176708831633
:101E34000313D00083160317660883160313CF0019
:101E4400393083160317BB008330BA001230B9004F
:101E54006F30B8004330A1007F30A00000309F00F5
:101E640000309E00831603134F0883160317900057
:101E74008316031350088316031791000030911B37
:101E8400FF309200930001300A168A11B9200A1219
:101E94008A15831603171308A5001208A400110855
:101EA400A3001008A2000A168A152D260A128A1504
:101EB400831603172108BF002008BE001F08BD00B9
:101EC4001E08BC000A128A1145200A128A158316BC
:101ED40003173B0883120317A200831603173A085B
:101EE40083120317A10083160317390883120317FB
:101EF400A000831603173808831203179F002208D3
:101F0400930021089200200891001F0890000130DE
:101F14000A128A11CF260A128A153930831603173A
:101F2400BB008330BA001230B9006F30B8004330C0
:101F3400A1007F30A00000309F0000309E0083127B
:101F440003172D08831603179000831203172E0816
:101F54008316031791000030911BFF309200930009
:101F640001300A168A11B9200A128A15831603173A
:101F74001308A5001208A4001108A3001008A20069
:101F84000A168A152D260A128A15831603172108A4
:101F9400BF002008BE001F08BD001E08BC000A12B6
:101FA4008A1145200A128A15831603173B088312E7
:101FB4000317A200831603173A0883120317A1001C
:101FC40083160317390883120317A0008316031717
:101FD4003808831203179F002208930021089200F7
:101FE400200891001F08900002300A128A11CF269F
:0C1FF4000A128A15FA2C0A128A1112280F
:10200200F80078080319062807281B28F31F0A2856
:102012000B281B287009FA007109FB007209FC00E9
:102022007309FD00FA0A0319FB0A0319FC0A0319D2
:10203200FD0A23287308FD007208FC007108FB00EA
:102042007008FA007308720471047004031D2A28D0
:102052002B2834280030F3000030F2000030F10069
:102062000030F000B8289630F90044280130F4001E
:102072007408F90701300310FD0CFC0CFB0CFA0C80
:10208200FF3E031D3C28FE307D05031D49284A28DA
:10209200372866280130F4007408F9070130FA077E
:1020A200003003180130FB07003003180130FC0731
:1020B200003003180130FD0701300310FD0CFC0C49
:1020C200FB0CFA0CFF3E031D5E28FF307D05031D4D
:1020D2006B286C284B2878280130F9020130F40073
:1020E2000310FA0DFB0DFC0DFD0DF40B7128FC1B0A
:1020F2007B287C28822802307902031881288228D2
:102102006D287918852886288E28FF30FA05FF3039
:10211200FB057F30FC05FF30FD050310F90C790843
:10212200F400F501F601F70118300310F40DF50D76
:10213200F60DF70DFF3E031D96287408FA04750884
:10214200FB047608FC047708FD0478080319AA2822
:10215200AB28B028F31FAE28AF28B028FD177D08A2
:10216200F3007C08F2007B08F1007A08F000080016
:1021720083160317980018080319C028C128D52808
:10218200931FC428C528D52810099A0011099B005D
:1021920012099C0013099D009A0A03199B0A03194C
:1021A2009C0A03199D0ADD2813089D0012089C0051
:1021B20011089B0010089A0013081204110410045D
:1021C200031DE428E528EE28003093000030920039
:1021D2000030910000309000722996309900FE285C
:1021E2000130940014089907013003109D0C9C0CD7
:1021F2009B0C9A0CFF3E031DF628FE301D05031DA5
:1022020003290429F1282029013094001408990790
:1022120001309A070030031801309B070030031881
:1022220001309C070030031801309D070130031074
:102232009D0C9C0C9B0C9A0CFF3E031D1829FF3031
:102242001D05031D25292629052932290130990258
:102252000130940003109A0D9B0D9C0D9D0D940B63
:102262002B299C1B352936293C29023019020318D7
:102272003B293C29272919183F2940294829FF30A1
:102282009A05FF309B057F309C05FF309D050310AA
:10229200990C1908940095019601970118300310C2
:1022A200940D950D960D970DFF3E031D50291408B0
:1022B2009A0415089B0416089C0417089D04180824
:1022C2000319642965296A29931F682969296A29DA
:1022D2009D171D0893001C0892001B0891001A0804
:1022E2009000080083160313B8002E032F04031D69
:1022F2007B297C294F2B3808B000B101B201B30110
:102302003308F3003208F2003108F1003008F0001F
:1023120001300A168A1101200A168A1173088312E3
:102322000313C1007208C0007108BF007008BE002C
:102332003D30BD004030BC008330BB001230BA00DB
:102342000A128A118A230A168A11831203133D087C
:10235200DB003C08DA003B08D9003A08D8004030DC
:10236200D700C030D6000030D5000030D4000A16A5
:102372008A1150230A168A11831203135708EB009D
:102382005608EA005508E9005408E8000A168A15BA
:1023920037230A168A11831203136908831203175B
:1023A200B20083120313680883120317B100831665
:1023B20003133808B000B101B201B3013308F300CE
:1023C2003208F2003108F1003008F00001300A163C
:1023D2008A1101200A168A11730883120313C1009D
:1023E2007208C0007108BF007008BE003D30BD0019
:1023F2004030BC008330BB001230BA000A128A118E
:102402008A230A168A11831203133D08DB003C0853
:10241200DA003B08D9003A08D8004030D700C03073
:10242200D6000030D5000030D4000A168A1150239D
:102432000A168A11831203135708EB005608EA00A2
:102442005508E9005408E8000A168A1537230A16C7
:102452008A1183120313690883120317B0008312CF
:102462000313680883120317AF0083160313380897
:10247200B000B101B201B3013308F3003208F20037
:102482003108F1003008F00001300A168A110120EB
:102492000A168A11730883120313C1007208C0005E
:1024A2007108BF007008BE003F30BD001930BC008B
:1024B2009930BB009A30BA000A128A118A230A168E
:1024C2008A11831203133D08EB003C08EA003B0823
:1024D200E9003A08E8000A168A1537230A168A1113
:1024E20083120313690883160313D00083120313A4
:1024F200680883160313CF00393083120313BD001B
:102502008330BC001230BB006F30BA004330A300EE
:102512007F30A2000030A1000030A0008316031318
:102522004F08F0005008F1000030F11BFF30F200BC
:10253200F30001300A168A1101200A168A11730863
:1025420083120313A7007208A6007108A500700881
:10255200A4000A168A155A240A168A118312031332
:102562002308C1002208C0002108BF002008BE00C5
:102572000A128A118A230A168A11831203133D084A
:1025820083160313B700831203133C088316031345
:10259200B600831203133B0883160313B50083129C
:1025A20003133A0883160313B4003708A50036084C
:1025B200A4003508A3003408A20001300A128A15CB
:1025C20089200A168A11393083120313BD00833021
:1025D200BC001230BB006F30BA004330A3007F3022
:1025E200A2000030A1000030A000831603133808B7
:1025F200B000B101B201B3013308F3003208F200B6
:102602003108F1003008F00001300A168A11012069
:102612000A168A11730883120313A7007208A60010
:102622007108A5007008A4000A168A155A240A1611
:102632008A11831203132308C1002208C000210853
:10264200BF002008BE000A128A118A230A168A11C4
:10265200831203133D0883160313B7008312031377
:102662003C0883160313B600831203133B08831638
:102672000313B500831203133A0883160313B4003D
:102682003708A5003608A4003508A3003408A200C4
:1026920002300A128A1589200A168A11080083124A
:1026A200031357088039E4005708DC005C07E60092
:1026B200D61F5C2B5D2B5E2B661466080319622BFA
:1026C200632B732B660A031D672B682B702B00305C
:1026D200D7000030D6000030D5000030D400D61725
:1026E200D7017B2B0030D7000030D6000030D50058
:1026F2000030D4005B088039E500650864060319E0
:10270200832B842B852B64175B08DC005C07E500B8
:10271200DA1F8C2B8D2B8E2B651465080319922BD7
:10272200932BA32B650A031D972B982BA02B00300C
:10273200DB000030DA000030D9000030D800DA17B0
:10274200DB01AB2B0030DB000030DA000030D900B7
:102752000030D800660865020318B02BB12BD72BC6
:10276200641FB42BB52BB92B8030DC005C08E40667
:102772006608E7006508E6006708E5005408E70018
:102782005808D4006708D8005508E7005908D50052
:102792006708D9005608E7005A08D6006708DA0029
:1027A2005708E7005B08D7006708DB00E701650808
:1027B200DC00DD015D08DF0066085C02DE00031C50
:1027C200DF035F08803AFF0080307F02031DEB2B9E
:1027D2001A305E02031CEE2BEF2B262C83120313FE
:1027E2005708560455045404031DF82BFA2B0130E4
:1027F200FB2B0030E7000030D7000030D60000305D
:10280200D5000030D4006508E6002E2C671C0A2C87
:102812000B2C122C6708DC0003105C0C0138E7005B
:10282200142C0310E70C541C172C182C192CE71726
:102832000130DC00570DD70CD60CD50CD40CDC0BB8
:102842001B2C0130DC005C08E607831203136508C9
:102852006602031C2D2C2E2C072C641B312C322CCF
:102862007B2C6608031D362C372C402C0030D700F9
:102872000030D6000030D5000030D400A72D580813
:10288200D407590803110318013E0319492CD5072F
:102892005A0803110318013E0319502CD6075B088E
:1028A20003110318013E0319572CD707571C5A2C42
:1028B2005B2C2F2D671C5E2C5F2C662C6708DC00BE
:1028C20003105C0C0138E700682C0310E70C541C61
:1028D2006B2C6C2C6D2CE7170130DC00570DD70CDC
:1028E200D60CD50CD40CDC0B6F2C0130DC005C0850
:1028F200E6072F2D5708803AFF005B08803A7F02D7
:10290200031D8D2C5A085602031D8D2C59085502A1
:10291200031D8D2C580854020318902C912CE92C7D
:10292200FF30DC00FF30DD00FF30DE00FF30DF0073
:102932005808E0005908E1005A08E2005B08E30089
:102942005408E0025508031C550FA82CA92CE102DB
:102952005608031C560FAE2CAF2CE2025708031C7C
:10296200570FB42CB52CE3026008DC07610803188A
:10297200610FBC2CBD2CDD0762080318620FC22C4C
:10298200C32CDE0763080318630ADF075F08D7005A
:102992005E08D6005D08D5005C08D4008030DC00FB
:1029A2005C08E406E709E70A6708031DD92CDA2C5C
:1029B200F72C0130D407003003180130D50700305E
:1029C20003180130D607003003180130D707F72C5F
:1029D2005808D4025908031C590FD5025A08031C7F
:1029E2005A0FD6025B08031C5B0FD7025708560426
:1029F20055045404031DFE2CFF2C2B2D6708031DC8
:102A0200032D042D2B2D0030D7000030D6000030CE
:102A1200D5000030D400A72D0130DC000310D40D06
:102A2200D50DD60DD70DDC0B0F2DE71F192D1A2D45
:102A32001B2D5414671C1E2D1F2D222D0314E70D70
:102A4200242D0310E70D66080319282D292D2B2D9F
:102A52000130E602D61F2E2D2F2D0D2DE501E71F89
:102A6200332D342D422D67087F390319392D3A2D24
:102A72003D2DE501E50A422D541C402D412D422DEC
:102A82003A2D65080319462D472D7B2D0130D407B9
:102A9200003003180130D507003003180130D60783
:102AA200003003180130D707571C582D592D7B2DA4
:102AB2005408DC005508DD005608DE005708DF0028
:102AC2000130E0005F0DDF0CDE0CDD0CDC0CE00BF6
:102AD200632D5F08D7005E08D6005D08D5005C084C
:102AE200D400660A0319762D772D7B2D0130DC0088
:102AF2005C08E607660A03197F2D802D852D66087E
:102B0200031D842D852D932D0030D7000030D60073
:102B12000030D5000030D4006608031D912D922D9F
:102B2200932DE401661C962D972D992DD6179D2D78
:102B32007F30DC005C08D6056608DC0003105C0C04
:102B4200D700E41FA52DA62DA72DD71708008316A1
:102B5200031755088039E2005508DA005A07E400E5
:102B6200D41FB42DB52DB62D641464080319BA2DE3
:102B7200BB2DCB2D640A031DBF2DC02DC82D0030E7
:102B8200D5000030D4000030D3000030D200D4177A
:102B9200D501D32D0030D5000030D4000030D30051
:102BA2000030D20059088039E30063086206031935
:102BB200DB2DDC2DDD2D62175908DA005A07E30000
:102BC200D81FE42DE52DE62D631463080319EA2DC1
:102BD200EB2DFB2D630A031DEF2DF02DF82D003098
:102BE200D9000030D8000030D7000030D600D81706
:102BF200D901032E0030D9000030D8000030D700B0
:102C02000030D600640863020318082E092E2F2E06
:102C1200621F0C2E0D2E112E8030DA005A08E206A9
:102C22006408E5006308E4006508E3005208E50073
:102C32005608D2006508D6005308E5005708D300AD
:102C42006508D7005408E5005808D4006508D80084
:102C52005508E5005908D5006508D900E501630863
:102C6200DA00DB015B08DD0064085A02DC00031CA9
:102C7200DD035D08803AFF0080307F02031D432E92
:102C82001A305C02031C462E472E7E2E8316031733
:102C92005508540453045204031D502E522E013081
:102CA200532E0030E5000030D5000030D400003053
:102CB200D3000030D2006308E400862E651C622E29
:102CC200632E6A2E6508DA0003105A0C0138E500FB
:102CD2006C2E0310E50C521C6F2E702E712EE51710
:102CE2000130DA00550DD50CD40CD30CD20CDA0B12
:102CF200732E0130DA005A08E407831603176308BB
:102D02006402031C852E862E5F2E621B892E8A2E5C
:102D1200D32E6408031D8E2E8F2E982E0030D500E0
:102D22000030D4000030D3000030D200FF2F56080C
:102D3200D207570803110318013E0319A12ED30726
:102D4200580803110318013E0319A82ED407590885
:102D520003110318013E0319AF2ED507551CB22EDD
:102D6200B32E872F651CB62EB72EBE2E6508DA004D
:102D720003105A0C0138E500C02E0310E50C521C5A
:102D8200C32EC42EC52EE5170130DA00550DD50C21
:102D9200D40CD30CD20CDA0BC72E0130DA005A084D
:102DA200E407872F5508803AFF005908803A7F02CE
:102DB200031DE52E58085402031DE52E5708530241
:102DC200031DE52E560852020318E82EE92E412F64
:102DD200FF30DA00FF30DB00FF30DC00FF30DD00C7
:102DE2005608DE005708DF005808E0005908E100E5
:102DF2005208DE025308031C530F002F012FDF027B
:102E02005408031C540F062F072FE0025508031C19
:102E1200550F0C2F0D2FE1025E08DA075F08031829
:102E22005F0F142F152FDB0760080318600F1A2F8E
:102E32001B2FDC0761080318610ADD075D08D50056
:102E42005C08D4005B08D3005A08D2008030DA0054
:102E52005A08E206E509E50A6508031D312F322FFB
:102E62004F2F0130D207003003180130D307003052
:102E720003180130D407003003180130D5074F2F53
:102E82005608D2025708031C570FD3025808031CD6
:102E9200580FD4025908031C590FD502550854047F
:102EA20053045204031D562F572F832F6508031D09
:102EB2005B2F5C2F832F0030D5000030D400003010
:102EC200D3000030D200FF2F0130DA000310D20D00
:102ED200D30DD40DD50DDA0B672FE51F712F722F8D
:102EE200732F5214651C762F772F7A2F0314E50D5A
:102EF2007C2F0310E50D64080319802F812F832F87
:102F02000130E402D41F862F872F652FE301E51FCE
:102F12008B2F8C2F9A2F65087F390319912F922FAF
:102F2200952FE301E30A9A2F521C982F992F9A2F7B
:102F3200922F630803199E2F9F2FD32F0130D207A0
:102F4200003003180130D307003003180130D407D2
:102F5200003003180130D507551CB02FB12FD32FE5
:102F62005208DA005308DB005408DC005508DD0083
:102F72000130DE005D0DDD0CDC0CDB0CDA0CDE0B4F
:102F8200BB2F5D08D5005C08D4005B08D3005A084B
:102F9200D200640A0319CE2FCF2FD32F0130DA00CB
:102FA2005A08E407640A0319D72FD82FDD2F6408C3
:102FB200031DDC2FDD2FEB2F0030D5000030D400B5
:102FC2000030D3000030D2006408031DE92FEA2F3D
:102FD200EB2FE201641CEE2FEF2FF12FD417F52F08
:102FE2007F30DA005A08D4056408DA0003105A0C5C
:0E2FF200D500E21FFD2FFE2FFF2FD517080080
:10326400FF34FF3401340034F000831603178C1844
:103274003C293D2937290C18402941293729700850
:10328400831203178D00831603178C130C148312F7
:1032940003170C080800F100831603178C18532930
:1032A40054294E297108831203178D0070088C006D
:1032B400831603178C130C1500308B1B0130F2009E
:1032C4008B1355308D00AA308D008C140C11720CA8
:1032D400031C8B1303188B170800F401F501701CF1
:1032E400742975297B297208F4070318F50A7308F1
:1032F400F50701300310F20DF30DFF3E031D7C2989
:1033040001300310F10CF00CFF3E031D83297008FB
:103314007104031D8E298F2971297508F100740821
:10332400F000080019308316031399009A01181548
:1033340083160317871183120313181683160313B6
:103344001812831203139817831603139816831203
:1033540003131813831603139816831203130C1202
:10336400831603138C16831203138C120800F800BF
:10337400F401F5017008F200F3017208F600730815
:10338400F700781CC629C729CD297608F407031845
:10339400F50A7708F50701300310F60DF70DFF3E27
:1033A400031DCE290310F80C7808031DDA29DB2944
:1033B400C3297508F1007408F00008008316031788
:1033C4009800940195011008920093011208960048
:1033D40013089700181CEF29F029F62916089407FA
:1033E4000318950A1708950701300310960D970DD9
:1033F400FF3E031DF7290310980C1808031D032A28
:10340400042AEC291508910014089000080083167A
:10341400031358035904031D102A112A272A83125F
:103424000313071E162A172A1F2A831203173108AB
:103434008312031381000712432A831203173109ED
:103444008312031381000716432A023058065904D5
:10345400031D2D2A2E2A432A83120313871E332A7F
:10346400342A3C2A831203172F0883120313810082
:103474008712432A831203172F098312031381002F
:1034840087160800031083160317680D690DEF00F3
:103494006F08031D4E2A4F2A582A0030E9000030D5
:1034A400E8000030E7000030E600BB2A6608EA00C6
:1034B4006708EB006808EC006908ED001F30031092
:1034C400ED0CEC0CEB0CEA0CFF3E031D612A6A08C0
:1034D400EE00E817FF30E605FF30E705FF30E805AA
:1034E4000030E9059630EF02EF1F792A7A2A942AF0
:1034F4006F08803A973E0318802A812A822A4F2A2D
:1035040001300310E90CE80CE70CE60CFF3E031D48
:10351400832A0130EA006A08EF07031D922A932ADE
:10352400822AAB2A20306F02031C992A9A2AA62ADF
:103534004F2A0130EA000310E60DE70DE80DE90D0E
:10354400EA0B9D2A0130EF026F08031DAA2AAB2A59
:103554009B2A6E080319AF2AB02ABB2AE609E70999
:10356400E809E909E60A0319E70A0319E80A03194D
:10357400E90A08008312031794001308831603173B
:10358400A50083120317120883160317A4008312DD
:103594000317110883160317A300831203171008D7
:1035A40083160317A2003730A1008630A0003730FD
:1035B4009F00BD309E000A168A152D260A168A150C
:1035C400831603172108E9002008E8001F08E70014
:1035D4001E08E6000A168A1544220A168A1583165E
:1035E4000317660883160313920083120317140348
:1035F400031DFD2AFE2A0E2B8316031307153F30E5
:103604008312031397051708F0390D389700FF301C
:103614009500171297121E2B02301406031D132B4C
:10362400142B1E2B8316031387140F3083120313DA
:103634009D049B011D129D1203138C1003309204F0
:1036440012158C1C262B272B232B8C10831203176B
:103654001403031D2E2B2F2B332B83160313071157
:10366400362B8316031387100800031083120313E9
:103674006A0D6B0D83160313A1002108031D432B50
:10368400442B4F2B003083120313EB000030EA006D
:103694000030E9000030E800C42B831203136808EB
:1036A400EC006908ED006A08EE006B08EF001F30BB
:1036B4000310EF0CEE0CED0CEC0CFF3E031D5A2B2B
:1036C4006C0883160313A00083120313EA17FF3058
:1036D400E805FF30E905FF30EA050030EB059630D8
:1036E40083160313A102A11F782B792B972B210892
:1036F400803A973E03187F2B802B812B442B01307B
:10370400031083120313EB0CEA0CE90CE80CFF3EE4
:10371400031D822B0130EC006C0883160313A107F0
:10372400031D952B962B812BB22B20302102031CD9
:103734009C2B9D2BAD2B442B013083120313EC00E7
:103744000310E80DE90DEA0DEB0DEC0BA22B013093
:1037540083160313A1022108031DB12BB22B9E2B48
:1037640020080319B62BB72BC42B83120313E809C3
:10377400E909EA09EB09E80A0319E90A0319EA0A5B
:103784000319EB0A08008316031708148814081594
:10379400881508168901FF30831603138600FF304D
:1037A4008500C030870088018901D101D2018312CC
:1037B4000313850186018701880189018316031398
:1037C4008113FF3096000F088F3960388F000F1473
:1037D40081128111011581100114831203138101D7
:1037E4000B108B150B118B160C130B17831603136D
:1037F4000C178B17831203139F14C3309F05831672
:1038040003131F129F12831203131F083F398038BA
:103814009F00831603139F13831203131F14C730CF
:10382400831203179C00162C9C0B152C192C3C306E
:10383400831203179300A3309200D73091000A300B
:10384400900001300A168A15BC220A168A153930EE
:1038540083120317930083309200123091006F306B
:10386400900001300A128A11CF260A168A153C30BC
:10387400831203179300A3309200D73091000A30CB
:10388400900002300A168A15BC220A168A153930AD
:1038940083120317930083309200123091006F302B
:1038A400900002300A128A11CF260A168A150800DF
:1038B4008312031327088039B1002708A8002807BA
:1038C400B800A61F662C672C682C38143808031916
:1038D4006C2C6D2C7D2C380A031D712C722C7A2CC7
:1038E4000030A7000030A6000030A5000030A4007E
:1038F400A617A701852C0030A7000030A6000030D1
:10390400A5000030A40023088039A8002808B106C7
:103914002308A8002807B900A21F912C922C932CED
:10392400391439080319972C982CA82C390A031D2B
:103934009C2C9D2CA52C0030A3000030A20000304C
:10394400A1000030A000A217A301B02C0030A300F6
:103954000030A2000030A1000030A000230822049F
:1039640021042004031DB72CB82CD12C0030A7004F
:103974000030A6000030A5000030A4008030A6046A
:103984007F30A7043108A8002808A7042708A3004B
:103994002608A2002508A1002408A0002C2E38081F
:1039A400031DD52CD62CDF2C0030A3000030A20040
:1039B4000030A1000030A0002C2E3808A800A90176
:1039C4002908AB0039082802AA00031CAB032A0803
:1039D4007F3EB2002B080318013E003EB3002708C7
:1039E400B0002608AF002508AE002408AD00003062
:1039F400A7000030A6000030A5000030A40000306D
:103A0400B7000030B6000030B5000030B400B90192
:103A1400552D390803190F2D102D302D0130A80014
:103A24000310AD0DAE0DAF0DB00DA80B122D01306E
:103A3400A8000310A40DA50DA60DA70DA80B1B2D02
:103A4400B71F252D262D272D24140130A80003107F
:103A5400B40DB50DB60DB70DA80B292D23083002F2
:103A6400031D3E2D22082F02031D3E2D21082E0288
:103A7400031D3E2D20082D02031C412D422D512DE6
:103A840037172008AD022108031C210FAE022208BB
:103A9400031C220FAF022308031C230FB0020130C2
:103AA400A8002808B9071A303902031C5A2D5B2DC7
:103AB4000B2D30082F042E042D040319622D632DC1
:103AC400822D3414822D0130A8000310A40DA50DFD
:103AD400A60DA70DA80B672DB71F712D722D732D81
:103AE40024140130A8000310B40DB50DB60DB70DA4
:103AF400A80B752DFF30B2070318B30AFF30B307C4
:103B0400A61F852D862D652DB901B71F8A2D8B2DF6
:103B1400A72DFF303405A800FF303505A900FF307C
:103B24003605AA007F303705AB002B082A04290488
:103B3400280403199E2D9F2DA22DB901B90AA72D82
:103B4400241CA52DA62DA72D9F2D39080319AB2DB7
:103B5400AC2DDD2D0130A407003003180130A5077A
:103B6400003003180130A607003003180130A707FE
:103B7400271CBD2DBE2DDD2D2408A8002508A90075
:103B84002608AA002708AB000130AC002B0DAB0CB3
:103B9400AA0CA90CA80CAC0BC82D2B08A7002A084A
:103BA400A6002908A5002808A4000130B2070318BC
:103BB400B30A0030B3073308803AFF0080307F0235
:103BC400031DE62DFF303202031CE92DEA2DF82DEA
:103BD400FF3083120313B2000030B3000030A7009B
:103BE4000030A6000030A5000030A40083120313A7
:103BF4003308803AFF0080307F02031D032E01301A
:103C040032020318062E072E142E83120313B20158
:103C1400B3010030A7000030A6000030A50000303A
:103C2400A400B101831203133208B800381C1B2E00
:103C34001C2E1E2EA617222E7F30A8002808A605AB
:103C44003808A8000310280CA7003108A800280889
:103C5400A704C82C08008316031725088039AF0071
:103C64002508A6002607B600A41F392E3A2E3B2E9F
:103C74003614360803193F2E402E502E360A031DE3
:103C8400442E452E4D2E0030A5000030A4000030F7
:103C9400A3000030A200A417A501582E0030A500EF
:103CA4000030A4000030A3000030A20021088039B5
:103CB400A6002608AF062108A6002607B700A01F05
:103CC400642E652E662E3714370803196A2E6B2E60
:103CD4007B2E370A031D6F2E702E782E0030A10024
:103CE4000030A00000309F0000309E00A017A1010A
:103CF400832E0030A1000030A00000309F0000306F
:103D04009E00210820041F041E04031D8A2E8B2EEE
:103D1400A42E0030A5000030A4000030A300003021
:103D2400A2008030A4047F30A5042F08A600260832
:103D3400A5042508A1002408A00023089F00220848
:103D44009E00FF2F3608031DA82EA92EB22E003088
:103D5400A1000030A00000309F0000309E00FF2F23
:103D64003608A600A7012708A90037082602A800DC
:103D7400031CA90328087F3EB00029080318013E4C
:103D8400003EB1002508AE002408AD002308AC00B5
:103D94002208AB000030A5000030A4000030A300CE
:103DA4000030A2000030B5000030B4000030B30091
:103DB4000030B200B701282F37080319E22EE32E92
:103DC400032F0130A6000310AB0DAC0DAD0DAE0DED
:103DD400A60BE52E0130A6000310A20DA30DA40D21
:103DE400A50DA60BEE2EB51FF82EF92EFA2E2214D1
:103DF4000130A6000310B20DB30DB40DB50DA60B22
:103E0400FC2E21082E02031D112F20082D02031D54
:103E1400112F1F082C02031D112F1E082B02031C37
:103E2400142F152F242F35171E08AB021F08031C4F
:103E34001F0FAC022008031C200FAD022108031C35
:103E4400210FAE020130A6002608B7071A30370248
:103E5400031C2D2F2E2FDE2E2E082D042C042B04B4
:103E64000319352F362F552F3214552F0130A60044
:103E74000310A20DA30DA40DA50DA60B3A2FB51F7B
:103E8400442F452F462F22140130A6000310B20DF3
:103E9400B30DB40DB50DA60B482FFF30B0070318B2
:103EA400B10AFF30B107A41F582F592F382FB7017B
:103EB400B51F5D2F5E2F7A2FFF303205A600FF302D
:103EC4003305A700FF303405A8007F303505A9006D
:103ED40029082804270426040319712F722F752F2B
:103EE400B701B70A7A2F221C782F792F7A2F722FD5
:103EF400370803197E2F7F2FB02F0130A20700301F
:103F040003180130A307003003180130A407003060
:103F140003180130A507251C902F912FB02F2208DC
:103F2400A6002308A7002408A8002508A90001303A
:103F3400AA00290DA90CA80CA70CA60CAA0B9B2F50
:103F44002908A5002808A4002708A3002608A20021
:103F54000130B0070318B10A0030B1073108803AC4
:103F6400FF0080307F02031DB92FFF303002031C95
:103F7400BC2FBD2FCB2FFF3083160317B0000030AA
:103F8400B1000030A5000030A4000030A3000030D0
:103F9400A200831603173108803AFF0080307F02A5
:103FA400031DD62F013030020318D92FDA2FE72F43
:103FB40083160317B001B1010030A5000030A4003E
:103FC4000030A3000030A200AF01831603173008AD
:103FD400B600361CEE2FEF2FF12FA417F52F7F30EC
:103FE400A6002608A4053608A6000310260CA50082
:103FF4002F08A6002608A5049B2E0800FF3FFF3FBC
:04400400FF3FFF3F3C
:04400E00D420FF3F7C
:00000001FF
