:060000000A128A1110280B
:10000800FE00030E83160313B2000A08B3007F082C
:10001800B4000A128A15672D0A128A11132883164A
:1000280003130A128A11FB270A128A11D5000A1231
:100038008A11FC270A128A11D6008313C53084005E
:10004800D5300A128A11F3270A128A1183010A1677
:100058008A111E2D83160317130880399D00130873
:1000680098001807A300921F3A283B283C2823141D
:1000780023080319402841285028230A031D45282E
:1000880046284E280030930000309200003091003E
:1000980000309000921758280030930000309200EA
:1000A8000030910000309000170880399800180837
:1000B8009D061708980018079E00961F6428652853
:1000C80066281E141E0803196A286B287A281E0A37
:1000D800031D6F287028782800309700003096009C
:1000E8000030950000309400961782280030970061
:1000F8000030960000309500003094001E08031967
:10010800862887288C282308031D8B288C28952867
:1001180000309300003092000030910000309000D1
:10012800CC2B100883160313B9008316031716087F
:100138000A128A11CA270A128A11831603133A0867
:1001480083160317A90083160313390883160317A8
:10015800A8002808980099019A019B011B08A20091
:100168001A08A1001908A00018089F00290898007B
:1001780099019A019B011B08A7001A08A6001908F3
:10018800A5001808A400110883160313B9008316E4
:10019800031715080A128A11CA270A128A11831628
:1001A80003133A0883160317A900831603133908A3
:1001B80083160317A8002808980099019A019B0143
:1001C80018089F07190803110318013E0319ED28A1
:1001D800A0071A0803110318013E0319F428A10700
:1001E8001B0803110318013E0319FB28A20729085D
:1001F800980099019A019B011808A407190803118E
:100208000318013E03190929A5071A080311031841
:10021800013E03191029A6071B0803110318013E04
:1002280003191729A707120883160313B9008316A1
:10023800031714080A128A11CA270A128A11831688
:1002480003133A0883160317A90083160313390802
:1002580083160317A8002808980099019A019B01A2
:1002680018089F07190803110318013E03193D29AF
:10027800A0071A0803110318013E03194429A1070E
:100288001B0803110318013E03194B29A20729086B
:10029800980099019A019B011808A40719080311ED
:1002A8000318013E03195929A5071A080311031851
:1002B800013E03196029A6071B0803110318013E14
:1002C80003196729A7070830980003109F0DA00D90
:1002D800A10DA20D980B6929110883160313B90003
:1002E8008316031714080A128A11CA270A128A11D8
:1002F800831603133A0883160317A90083160313FA
:10030800390883160317A8002808980029089900B7
:100318009A019B0118089F07190803110318013E49
:1003280003199729A0071A0803110318013E031996
:100338009E29A1071B0803110318013E0319A529CB
:10034800A207100883160313B900831603171508AC
:100358000A128A11CA270A128A11831603133A0845
:1003680083160317A9008316031339088316031786
:10037800A80028089800290899009A019B011808E4
:100388009F07190803110318013E0319CC29A00778
:100398001A0803110318013E0319D329A1071B08E2
:1003A80003110318013E0319DA29A207083098003F
:1003B80003109F0DA00DA10DA20D980BDC291008AC
:1003C80083160313B9008316031714080A128A1137
:1003D800CA270A128A11831603133A0883160317C9
:1003E800A90083160313390883160317A8002808E1
:1003F8009800290899009A019B0118089F07190875
:1004080003110318013E03190A2AA0071A08031149
:100418000318013E0319112AA1071B080311031829
:10042800013E0319182AA207110883160313B900FD
:100438008316031716080A128A11CA270A128A1184
:10044800831603133A0883160317A90083160313A8
:10045800390883160317A800280898002908990066
:100468009A019B011808A407190803110318013EF3
:1004780003193F2AA5071A0803110318013E031997
:10048800462AA6071B0803110318013E03194D2A23
:10049800A707120883160313B90083160317150854
:1004A8000A128A11CA270A128A11831603133A08F4
:1004B80083160317A9008316031339088316031735
:1004C800A80028089800290899009A019B01180893
:1004D800A407190803110318013E0319742AA50774
:1004E8001A0803110318013E03197B2AA6071B08E3
:1004F80003110318013E0319822AA707120883165D
:100508000313B9008316031716080A128A11CA279B
:100518000A128A11831603133A0883160317A900CF
:1005280083160313390883160317A80028089800B0
:10053800290899009A019B0108300310980D990D1C
:100548009A0D9B0DFF3E031DA12A1808A407190840
:1005580003110318013E0319B22AA5071A0803114B
:100568000318013E0319B92AA6071B08031103182B
:10057800013E0319C02AA7071F0898002008990000
:1005880021089A0022089B00183003109B0C9A0C33
:10059800990C980CFF3E031DC92A1808A4071908CE
:1005A80003110318013E0319DA2AA5071A080311D3
:1005B8000318013E0319E12AA6071B0803110318B3
:1005C800013E0319E82AA7070830980003109F0D79
:1005D800A00DA10DA20D980BEA2A23081E0798006A
:1005E8009901990D1808823EA80019080318013EC0
:1005F800FF3EA9001C2B013098000310A40DA50D87
:10060800A60DA70D980B012BA21F0B2B0C2B0D2B46
:1006180024140130980003109F0DA00DA10DA20D08
:10062800980B0F2BFF30A8070318A90AFF30A9075A
:10063800A61F1F2B202BFF2A9E01A21F242B252B30
:10064800412BFF301F059800FF3020059900FF302F
:1006580021059A007F3022059B001B081A04190403
:1006680018040319382B392B3C2B9E019E0A412B69
:10067800241C3F2B402B412B392B1E080319452BDB
:10068800462B772B0130A407003003180130A5074B
:10069800003003180130A607003003180130A707FF
:1006A800271C572B582B772B2408980025089900CE
:1006B80026089A0027089B0001309C001B0D9B0C04
:1006C8009A0C990C980C9C0B622B1B08A7001A0813
:1006D800A6001908A5001808A4000130A8070318E7
:1006E800A90A0030A9072908803AFF0080307F0254
:1006F800031D802BFF302802031C832B842B8F2B98
:100708007F3083160317A7008030A6000030A500AD
:100718000030A400C02B831603172908803AFF0075
:1007280080307F02031D9A2B0130280203189D2B6D
:100738009E2BAA2B003083160317A7000030A600B3
:100748000030A5000030A4009D01C02B83160317BC
:100758002808A300FF30A405FF30A5057F30A605B3
:100768000030A705231CB92BBA2BBB2BA6172308CF
:1007780098000310180CA7001D0898001808A70473
:100788002708930026089200250891002408900065
:100798000800831203133D088039C7003D08C200D2
:1007A8004207CD00BC1FD92BDA2BDB2B4D144D088B
:1007B8000319DF2BE02BEF2B4D0A031DE42BE52B50
:1007C800ED2B0030BD000030BC000030BB00003015
:1007D800BA00BC17F72B0030BD000030BC00003059
:1007E800BB000030BA0041088039C2004208C70681
:1007F8004108C2004207CC00C01F032C042C052C62
:100808004C144C080319092C0A2C192C4C0A031DEA
:100818000E2C0F2C172C0030C1000030C000003007
:10082800BF000030BE00C017212C0030C1000030CE
:10083800C0000030BF000030BE004C080319252C52
:10084800262C2B2C4D08031D2A2C2B2C342C003045
:10085800BD000030BC000030BB000030BA00112FD2
:100868003A08F00040080A168A11A7210A128A11CC
:10087800710883120313D3007008D2005208C20013
:10088800C301C401C5014508CB004408CA00430898
:10089800C9004208C8005308C200C301C401C50109
:1008A8004508D1004408D0004308CF004208CE00D4
:1008B8003B08F0003F080A168A11A7210A128A117C
:1008C800710883120313D3007008D2005208C200C3
:1008D800C301C401C5014208C8074308031103182E
:1008E800013E0319782CC907440803110318013E77
:1008F80003197F2CCA07450803110318013E031981
:10090800862CCB075308C200C301C401C5014208A5
:10091800CE07430803110318013E0319942CCF078F
:10092800440803110318013E03199B2CD0074508FE
:1009380003110318013E0319A22CD1073C08F0004B
:100948003E080A168A11A7210A128A117108831211
:100958000313D3007008D2005208C200C301C401B7
:10096800C5014208C807430803110318013E0319CB
:10097800BE2CC907440803110318013E0319C52CEE
:10098800CA07450803110318013E0319CC2CCB07ED
:100998005308C200C301C401C5014208CE07430879
:1009A80003110318013E0319DA2CCF074408031179
:1009B8000318013E0319E12CD00745080311031859
:1009C800013E0319E82CD1070830C2000310C80DF6
:1009D800C90DCA0DCB0DC20BEA2C3B08F0003E082E
:1009E8000A168A11A7210A128A11710883120313A1
:1009F800D3007008D2005208C2005308C300C401D3
:100A0800C5014208C807430803110318013E03192A
:100A18000E2DC907440803110318013E0319152DAB
:100A2800CA07450803110318013E03191C2DCB07FB
:100A38003A08F0003F080A168A11A7210A128A11FB
:100A4800710883120313D3007008D2005208C20041
:100A58005308C300C401C5014208C807430803116D
:100A68000318013E0319392DC90744080311031857
:100A7800013E0319402DCA07450803110318013E1A
:100A88000319472DCB070830C2000310C80DC90D44
:100A9800CA0DCB0DC20B492D3A08F0003E080A16C4
:100AA8008A11A7210A128A11710883120313D3002D
:100AB8007008D2005208C2005308C300C401C5011F
:100AC8004208C807430803110318013E03196D2D96
:100AD800C907440803110318013E0319742DCA07F6
:100AE800450803110318013E03197B2DCB073B086A
:100AF800F00040080A168A11A7210A128A11710803
:100B080083120313D3007008D2005208C20053089E
:100B1800C300C401C5014208CE07430803110318E6
:100B2800013E0319982DCF07440803110318013E0D
:100B380003199F2DD007450803110318013E031917
:100B4800A62DD1073C08F0003F080A168A11A721F4
:100B58000A128A11710883120313D3007008D20095
:100B68005208C2005308C300C401C5014208CE0799
:100B7800430803110318013E0319C32DCF07440886
:100B880003110318013E0319CA2DD00745080311A4
:100B98000318013E0319D12DD1073C08F000400885
:100BA8000A168A11A7210A128A11710883120313DF
:100BB800D3007008D2005208C2005308C300C40111
:100BC800C50108300310C20DC30DC40DC50DFF3E8D
:100BD800031DE62D4208CE07430803110318013E02
:100BE8000319F72DCF07440803110318013E031911
:100BF800FE2DD007450803110318013E0319052EE1
:100C0800D1074808C2004908C3004A08C4004B0875
:100C1800C50018300310C50CC40CC30CC20CFF3E31
:100C2800031D0E2E4208CE07430803110318013E88
:100C380003191F2ECF07440803110318013E031997
:100C4800262ED007450803110318013E03192D2E3F
:100C5800D1070830C2000310C80DC90DCA0DCB0D4D
:100C6800C20B2F2E4D084C07C200C301C30D42080A
:100C7800823ED20043080318013EFF3ED300612E96
:100C88000130C2000310CE0DCF0DD00DD10DC20B17
:100C9800462ECB1F502E512E522E4E140130C2001C
:100CA8000310C80DC90DCA0DCB0DC20B542EFF3051
:100CB800D2070318D30AFF30D307D01F642E652E3E
:100CC800442ECC01CB1F692E6A2E862EFF30480594
:100CD800C200FF304905C300FF304A05C4007F3019
:100CE8004B05C500450844044304420403197D2EFE
:100CF8007E2E812ECC01CC0A862E4E1C842E852E6B
:100D0800862E7E2E4C0803198A2E8B2EBC2E01307F
:100D1800CE07003003180130CF0700300318013028
:100D2800D007003003180130D107511C9C2E9D2E8E
:100D3800BC2E4E08C2004F08C3005008C40051081A
:100D4800C5000130C600450DC50CC40CC30CC20C4F
:100D5800C60BA72E4508D1004408D0004308CF0091
:100D68004208CE000130D2070318D30A0030D30757
:100D78005308803AFF0080307F02031DC52EFF30E4
:100D88005202031CC82EC92ED42E7F30831203139F
:100D9800D1008030D0000030CF000030CE00052FC9
:100DA800831203135308803AFF0080307F02031D2B
:100DB800DF2E013052020318E22EE32EEF2E003010
:100DC80083120313D1000030D0000030CF00003070
:100DD800CE00C701052F831203135208CD00FF3040
:100DE800CE05FF30CF057F30D0050030D1054D1C32
:100DF800FE2EFF2E002FD0174D08C2000310420C04
:100E0800D1004708C2004208D1045108BD0050086B
:100E1800BC004F08BB004E08BA000800F80078086C
:100E28000319172F182F2C2FF31F1B2F1C2F2C2FB4
:100E38007009FA007109FB007209FC007309FD00D2
:100E4800FA0A0319FB0A0319FC0A0319FD0A342FCD
:100E58007308FD007208FC007108FB007008FA00B6
:100E68007308720471047004031D3B2F3C2F452F37
:100E78000030F3000030F2000030F1000030F000E4
:100E8800C92F9630F900552F0130F4007408F9077E
:100E980001300310FD0CFC0CFB0CFA0CFF3E031D8B
:100EA8004D2FFE307D05031D5A2F5B2F482F772FBE
:100EB8000130F4007408F9070130FA07003003180C
:100EC8000130FB07003003180130FC07003003181D
:100ED8000130FD0701300310FD0CFC0CFB0CFA0C73
:100EE800FF3E031D6F2FFF307D05031D7C2F7D2FD7
:100EF8005C2F892F0130F9020130F4000310FA0D3C
:100F0800FB0DFC0DFD0DF40B822FFC1B8C2F8D2F80
:100F1800932F023079020318922F932F7E2F79187E
:100F2800962F972F9F2FFF30FA05FF30FB057F3054
:100F3800FC05FF30FD050310F90C7908F400F501F4
:100F4800F601F70118300310F40DF50DF60DF70D45
:100F5800FF3E031DA72F7408FA047508FB047608E2
:100F6800FC047708FD0478080319BB2FBC2FC12F98
:100F7800F31FBF2FC02FC12FFD177D08F3007C087A
:100F8800F2007B08F1007A08F000080083160313CA
:100F9800C100BD01BE013908BB00BC013B08BF0050
:100FA8003C08C000411CD92FDA2FE02F3F08BD07AD
:100FB8000318BE0A4008BE0701300310BF0DC00D5C
:100FC800FF3E031DE12F0310C10C4108031DED2F47
:100FD800EE2FD62F3E08BA003D08B900080064007D
:100FE8008001840A0406031900340406F42F01342E
:020FF8000134C2
:10101C0083160313A9002903031D15281628A728D6
:10102C00250883120313C1008316031324088312AB
:10103C000313C00083160313230883120313BF008A
:10104C0083160313220883120313BE004030BD0025
:10105C008030BC000030BB000030BA000A128A118C
:10106C00CD230A128A15831203133D08A7003C08EE
:10107C00A6003B08A5003A08A4003630A300863031
:10108C00A2003730A100BD30A0000A168A112D260F
:10109C000A128A15831203132308EB002208EA00B4
:1010AC002108E9002008E8000A168A116C220A12AD
:1010BC008A1583120313690883160313AB0083127A
:1010CC000313680883160313AA002B08A7002A0829
:1010DC00A600270DA70CA60C270DA70CA60C2608FE
:1010EC00A23EFF3A013E83120313950083160313AD
:1010FC002A080139A600A60E8312031317088316BB
:10110C0003132606EF392606831203139700831662
:10111C0003132B08A7002A08A600270DA70CA60C62
:10112C0026080139A800A80EA80D8312031317086E
:10113C00831603132806DF3928068312031397003E
:10114C003B2902302906031DAC28AD283B29250874
:10115C0083120313C1008316031324088312031391
:10116C00C00083160313230883120313BF008316D6
:10117C000313220883120313BE004030BD008030DD
:10118C00BC000030BB000030BA000A128A11CD231B
:10119C000A128A15831203133D08A7003C08A60007
:1011AC003B08A5003A08A4003630A3008630A20004
:1011BC003730A100BD30A0000A168A112D260A1264
:1011CC008A15831203132308EB002208EA00210876
:1011DC00E9002008E8000A168A116C220A128A1506
:1011EC0083120313690883160313AD0083120313D0
:1011FC00680883160313AC002D08A7002C08A60062
:10120C00270DA70CA60C270DA70CA60C26083C3EF8
:10121C00831203139B00831603132C080139A600B9
:10122C00A60E831203131D08831603132606EF392B
:10123C002606831203139D00831603132D08A700A3
:10124C002C08A600270DA70CA60C26080139A8000F
:10125C00A80EA80D831203131D088316031328066A
:10126C00DF392806831203139D0008008316031729
:10127C0031088039BB003108B2003207C200B01F00
:10128C00482949294A294214420803194E294F2951
:10129C005F29420A031D532954295C290030B100EF
:1012AC000030B0000030AF000030AE00B017B1011C
:1012BC0067290030B1000030B0000030AF000030C2
:1012CC00AE002D088039B2003208BB062D08B200E2
:1012DC003207C300AC1F73297429752943144308C2
:1012EC00031979297A298A29430A031D7E297F2922
:1012FC0087290030AD000030AC000030AB0000306E
:10130C00AA00AC17AD0192290030AD000030AC0042
:10131C000030AB000030AA002D082C042B042A044A
:10132C00031D99299A29B3290030B1000030B0006F
:10133C000030AF000030AE008030B0047F30B1041C
:10134C003B08B2003208B1043108AD003008AC00E3
:10135C002F08AB002E08AA000E2B4208031DB7293C
:10136C00B829C1290030AD000030AC000030AB0012
:10137C000030AA000E2B4208B200B3013308B500AE
:10138C0043083202B400031CB50334087F3EBC0092
:10139C0035080318013E003EBD003108BA00300884
:1013AC00B9002F08B8002E08B7000030B10000308B
:1013BC00B0000030AF000030AE000030C100003093
:1013CC00C0000030BF000030BE00C301372A430804
:1013DC000319F129F229122A0130B2000310B70DBA
:1013EC00B80DB90DBA0DB20BF4290130B2000310CF
:1013FC00AE0DAF0DB00DB10DB20BFD29C11F072AFB
:10140C00082A092A2E140130B2000310BE0DBF0D9C
:10141C00C00DC10DB20B0B2A2D083A02031D202A58
:10142C002C083902031D202A2B083802031D202A00
:10143C002A083702031C232A242A332A41172A0894
:10144C00B7022B08031C2B0FB8022C08031C2C0F03
:10145C00B9022D08031C2D0FBA020130B20032085C
:10146C00C3071A304302031C3C2A3D2AED293A08D3
:10147C003904380437040319442A452A642A3E14D3
:10148C00642A0130B2000310AE0DAF0DB00DB10DDA
:10149C00B20B492AC11F532A542A552A2E14013043
:1014AC00B2000310BE0DBF0DC00DC10DB20B572AFB
:1014BC00FF30BC070318BD0AFF30BD07B01F672AF9
:1014CC00682A472AC301C11F6C2A6D2A892AFF305A
:1014DC003E05B200FF303F05B300FF304005B400BD
:1014EC007F304105B5003508340433043204031948
:1014FC00802A812A842AC301C30A892A2E1C872A9E
:10150C00882A892A812A430803198D2A8E2ABF2A00
:10151C000130AE07003003180130AF07003003185C
:10152C000130B007003003180130B107311C9F2A7D
:10153C00A02ABF2A2E08B2002F08B3003008B4002E
:10154C003108B5000130B600350DB50CB40CB30C38
:10155C00B20CB60BAA2A3508B1003408B000330817
:10156C00AF003208AE000130BC070318BD0A0030D2
:10157C00BD073D08803AFF0080307F02031DC82A5A
:10158C00FF303C02031CCB2ACC2ADA2AFF3083160C
:10159C000317BC000030BD000030B1000030B000BB
:1015AC000030AF000030AE00831603173D08803AC0
:1015BC00FF0080307F02031DE52A01303C02031836
:1015CC00E82AE92AF62A83160317BC01BD0100306C
:1015DC00B1000030B0000030AF000030AE00BB01F5
:1015EC00831603173C08C200421CFD2AFE2A002B5E
:1015FC00B017042B7F30B2003208B0054208B2009D
:10160C000310320CB1003B08B2003208B104AA2915
:10161C0008008312031357088039E4005708DC00D4
:10162C005C07E600D61F1B2B1C2B1D2B66146608B3
:10163C000319212B222B322B660A031D262B272B59
:10164C002F2B0030D7000030D6000030D5000030F2
:10165C00D400D617D7013A2B0030D7000030D60073
:10166C000030D5000030D4005B088039E5006508F7
:10167C0064060319422B432B442B64175B08DC00D4
:10168C005C07E500DA1F4B2B4C2B4D2B65146508C2
:10169C000319512B522B622B650A031D562B572B0A
:1016AC005F2B0030DB000030DA000030D900003056
:1016BC00D800DA17DB016A2B0030DB000030DA00CF
:1016CC000030D9000030D8006608650203186F2B73
:1016DC00702B962B641F732B742B782B8030DC00B3
:1016EC005C08E4066608E7006508E6006708E500A4
:1016FC005408E7005808D4006708D8005508E700DC
:10170C005908D5006708D9005608E7005A08D600D2
:10171C006708DA005708E7005B08D7006708DB00AA
:10172C00E7016508DC00DD015D08DF0066085C028E
:10173C00DE00031CDF035F08803AFF0080307F026D
:10174C00031DAA2B1A305E02031CAD2BAE2BE52B0E
:10175C00831203135708560455045404031DB72B66
:10176C00B92B0130BA2B0030E7000030D700003025
:10177C00D6000030D5000030D4006508E600ED2B13
:10178C00671CC92BCA2BD12B6708DC0003105C0C1F
:10179C000138E700D32B0310E70C541CD62BD72BA6
:1017AC00D82BE7170130DC00570DD70CD60CD50C15
:1017BC00D40CDC0BDA2B0130DC005C08E60783125E
:1017CC00031365086602031CEC2BED2BC62B641B64
:1017DC00F02BF12B3A2C6608031DF52BF62BFF2B67
:1017EC000030D7000030D6000030D5000030D400D7
:1017FC00662D5808D407590803110318013E031924
:10180C00082CD5075A0803110318013E03190F2C95
:10181C00D6075B0803110318013E0319162CD707D2
:10182C00571C192C1A2CEE2C671C1D2C1E2C252C2D
:10183C006708DC0003105C0C0138E700272C031050
:10184C00E70C541C2A2C2B2C2C2CE7170130DC0019
:10185C00570DD70CD60CD50CD40CDC0B2E2C013020
:10186C00DC005C08E607EE2C5708803AFF005B08AA
:10187C00803A7F02031D4C2C5A085602031D4C2C37
:10188C0059085502031D4C2C5808540203184F2CB0
:10189C00502CA82CFF30DC00FF30DD00FF30DE00C8
:1018AC00FF30DF005808E0005908E1005A08E20058
:1018BC005B08E3005408E0025508031C550F672C25
:1018CC00682CE1025608031C560F6D2C6E2CE2029C
:1018DC005708031C570F732C742CE3026008DC07A9
:1018EC0061080318610F7B2C7C2CDD076208031840
:1018FC00620F812C822CDE0763080318630ADF0752
:10190C005F08D7005E08D6005D08D5005C08D400DF
:10191C008030DC005C08E406E709E70A6708031D71
:10192C00982C992CB62C0130D407003003180130B8
:10193C00D507003003180130D607003003180130EA
:10194C00D707B62C5808D4025908031C590FD502D6
:10195C005A08031C5A0FD6025B08031C5B0FD702F4
:10196C005708560455045404031DBD2CBE2CEA2CF8
:10197C006708031DC22CC32CEA2C0030D7000030A2
:10198C00D6000030D5000030D400662D0130DC00CC
:10199C000310D40DD50DD60DD70DDC0BCE2CE71FB7
:1019AC00D82CD92CDA2C5414671CDD2CDE2CE12C11
:1019BC000314E70DE32C0310E70D66080319E72C5D
:1019CC00E82CEA2C0130E602D61FED2CEE2CCC2CA8
:1019DC00E501E71FF22CF32C012D67087F39031961
:1019EC00F82CF92CFC2CE501E50A012D541CFF2CDC
:1019FC00002D012DF92C65080319052D062D3A2D06
:101A0C000130D407003003180130D507003003181B
:101A1C000130D607003003180130D707571C172D9B
:101A2C00182D3A2D5408DC005508DD005608DE0050
:101A3C005708DF000130E0005F0DDF0CDE0CDD0C21
:101A4C00DC0CE00B222D5F08D7005E08D6005D0889
:101A5C00D5005C08D400660A0319352D362D3A2DB5
:101A6C000130DC005C08E607660A03193E2D3F2DA9
:101A7C00442D6608031D432D442D522D0030D700F4
:101A8C000030D6000030D5000030D4006608031DAD
:101A9C00502D512D522DE401661C552D562D582DCF
:101AAC00D6175C2D7F30DC005C08D6056608DC00A0
:101ABC0003105C0CD700E41F642D652D662DD71721
:101ACC0008000B1D6A2D6B2D712D0A168A11CE2163
:101ADC000A128A150B110B1C742D752D812D831276
:101AEC00031386187A2D7B2D802D8316031356082D
:101AFC00013ED6000B10831203130C1F862D872D6D
:101B0C00F52F1F0C83160313AE002E0C0F39003A61
:101B1C00031D912D922D472E831203131E0883163D
:101B2C000313AE00AF01B001B1013108F30030086E
:101B3C00F2002F08F1002E08F00001300A128A1171
:101B4C0012270A128A15730883120313C100720834
:101B5C00C0007108BF007008BE003F30BD00663089
:101B6C00BC006630BB006630BA000A128A11CD2365
:101B7C000A128A15831203133D08EB003C08EA0095
:101B8C003B08E9003A08E8000A168A116C220A128E
:101B9C008A1583120313690883160313D200831268
:101BAC000313680883160313D1003930831203130F
:101BBC00BD008330BC001230BB006F30BA00433024
:101BCC00A3007F30A2000030A1000030A0001E084E
:101BDC0083160313AE00AF01B001B1013108F3005D
:101BEC003008F2002F08F1002E08F00001300A1224
:101BFC008A1112270A128A15730883120313A7007D
:101C0C007208A6007108A5007008A4000A168A11B3
:101C1C002D260A128A15831203132308C1002208E9
:101C2C00C0002108BF002008BE000A128A11CD2373
:101C3C000A128A15831203133D0883160313B80086
:101C4C00831203133C0883160313B7008312031388
:101C5C003B0883160313B600831203133A0883164A
:101C6C000313B5003808A5003708A4003608A300F4
:101C7C003508A20001300A128A150E200A128A15A4
:101C8C00F22F831203131F0C83160313AE002E0CBA
:101C9C000F39013A031D532E542EAF2E831203130A
:101CAC001E0883160313AE00AF01B001B101310859
:101CBC00F3003008F2002F08F1002E08F00001307C
:101CCC000A128A1112270A128A1573088312031337
:101CDC00C1007208C0007108BF007008BE003D3022
:101CEC00BD00F030BC00F030BB00F130BA000A127D
:101CFC008A11CD230A128A15831203133D08DB00C7
:101D0C003C08DA003B08D9003A08D8004030D7002C
:101D1C00C030D6000030D5000030D4000A128A152D
:101D2C000F230A128A15831203135708EB00560867
:101D3C00EA005508E9005408E8000A168A116C22DA
:101D4C000A128A1583120313680883160317E80016
:101D5C00F22F831203131F0C83160313AE002E0CE9
:101D6C000F39023A031DBB2EBC2E172F83120313FF
:101D7C001E0883160313AE00AF01B001B101310888
:101D8C00F3003008F2002F08F1002E08F0000130AB
:101D9C000A128A1112270A128A1573088312031366
:101DAC00C1007208C0007108BF007008BE003D3051
:101DBC00BD00F030BC00F030BB00F130BA000A12AC
:101DCC008A11CD230A128A15831203133D08DB00F6
:101DDC003C08DA003B08D9003A08D8004030D7005C
:101DEC00C030D6000030D5000030D4000A128A155D
:101DFC000F230A128A15831203135708EB00560897
:101E0C00EA005508E9005408E8000A168A116C2209
:101E1C000A128A1583120313680883160317E70046
:101E2C00F22F831203131F0C83160313AE002E0C18
:101E3C000F39033A031D232F242FD92F8312031399
:101E4C001E0883160313AE00AF01B001B1013108B7
:101E5C00F3003008F2002F08F1002E08F0000130DA
:101E6C000A128A1112270A128A1573088312031395
:101E7C00C1007208C0007108BF007008BE003F307E
:101E8C00BD006630BC006630BB006630BA000A127A
:101E9C008A11CD230A128A15831203133D08EB0015
:101EAC003C08EA003B08E9003A08E8000A168A11E7
:101EBC006C220A128A158312031369088316031302
:101ECC00D00083120313680883160313CF00393034
:101EDC0083120313BD008330BC001230BB006F3083
:101EEC00BA004330A3007F30A2000030A1000030C4
:101EFC00A0001E0883160313AE00AF01B001B101A0
:101F0C003108F3003008F2002F08F1002E08F00021
:101F1C0001300A128A1112270A128A1573088312C9
:101F2C000313A7007208A6007108A5007008A4008E
:101F3C000A168A112D260A128A15831203132308F6
:101F4C00C1002208C0002108BF002008BE000A12F0
:101F5C008A11CD230A128A15831203133D088316A6
:101F6C000313B800831203133C0883160313B70042
:101F7C00831203133B0883160313B6008312031357
:101F8C003A0883160313B5003808A5003708A400D7
:101F9C003608A3003508A20002300A128A150E205A
:101FAC000A128A15F22F831203131F0C83160313C4
:101FBC00AE002E0C0F39043A031DE52FE62FF22F3D
:101FCC00831203131E0883160313AE00AF012E08F1
:101FDC00C9002F08CA00F22F831203130C138316A7
:101FEC0003133408FF0033088A00320E8300FE0E00
:041FFC007E0E09004C
:10234E00F800F401F5017008F200F3017208F600CE
:10235E007308F700781CB429B529BB297608F40751
:10236E000318F50A7708F50701300310F60DF70D7F
:10237E00FF3E031DBC290310F80C7808031DC82965
:10238E00C929B1297508F1007408F00008008316F8
:10239E0003135603031DD429D529EB2983120313E6
:1023AE00071EDA29DB29E32983160317680883122F
:1023BE00031381000712062A831603176809831276
:1023CE00031381000716062A02305606031DF02954
:1023DE00F129062A83120313871EF629F729FF29EE
:1023EE008316031767088312031381008712062AC8
:1023FE0083160317670983120313810087160800DB
:10240E0083160313C400831603174F08B1004E083A
:10241E00B0004D08AF004C08AE003730AD0086302E
:10242E00AC003730AB00BD30AA000A128A153C2131
:10243E000A168A11831603172D08C7002C08C6002A
:10244E002B08C5002A08C4000A168A11FA220A1699
:10245E008A1183160317440883160313920044034C
:10246E00031D3A2A3B2A492A07153F3083120313CC
:10247E0097051708F0390D389700FF3095001712A1
:10248E009712572A02304406031D4E2A4F2A572A06
:10249E0087140F30831203139D049B011D129D128E
:1024AE0083128C100330920412158C1C5F2A602A42
:1024BE005C2A8C10831603134403031D672A682AB3
:1024CE006A2A07116B2A8710080003108312031360
:1024DE006A0D6B0D83160313A1002108031D782AC4
:1024EE00792A842A003083120313EB000030EA00AD
:1024FE000030E9000030E800F92A8312031368085F
:10250E00EC006908ED006A08EE006B08EF001F3062
:10251E000310EF0CEE0CED0CEC0CFF3E031D8F2A9E
:10252E006C0883160313A00083120313EA17FF30FF
:10253E00E805FF30E905FF30EA050030EB0596307F
:10254E0083160313A102A11FAD2AAE2ACC2A21089D
:10255E00803A973E0318B42AB52AB62A792A013052
:10256E00031083120313EB0CEA0CE90CE80CFF3E8C
:10257E00031DB72A0130EC006C0883160313A10764
:10258E00031DCA2ACB2AB62AE72A20302102031CB1
:10259E00D12AD22AE22A792A013083120313EC00BF
:1025AE000310E80DE90DEA0DEB0DEC0BD72A013007
:1025BE0083160313A1022108031DE62AE72AD32A54
:1025CE0020080319EB2AEC2AF92A83120313E809CF
:1025DE00E909EA09EB09E80A0319E90A0319EA0A03
:1025EE000319EB0A0800031083160317460D470D57
:1025FE0083160313C3004308031D062B072B122B50
:10260E00003083160317C7000030C6000030C50027
:10261E000030C400872B831603174408C8004508F2
:10262E00C9004608CA004708CB001F300310CB0C68
:10263E00CA0CC90CC80CFF3E031D1D2B480883167F
:10264E000313C20083160317C617FF30C405FF30ED
:10265E00C505FF30C6050030C70596308316031337
:10266E00C302C31F3B2B3C2B5A2B4308803A973E89
:10267E000318422B432B442B072B013003108316D8
:10268E000317C70CC60CC50CC40CFF3E031D452B0F
:10269E000130C800480883160313C307031D582BC7
:1026AE00592B442B752B20304302031C5F2B602BC0
:1026BE00702B072B013083160317C8000310C40DAF
:1026CE00C50DC60DC70DC80B652B01308316031340
:1026DE00C3024308031D742B752B612B420803198B
:1026EE00792B7A2B872B83160317C409C509C609C4
:1026FE00C709C40A0319C50A0319C60A0319C70A6A
:10270E000800831603170814881408158815081670
:10271E0089010F3083160313860087018801890112
:10272E0083120313850186018701880189018316AF
:10273E00031381137F3096000F088F3960388F0096
:10274E000F148112811101158110011483120313CC
:10275E0081010B108B150B118B160C130B17831697
:10276E0003130C178B17831203139F14C3309F058B
:10277E00831603131F129F12831203131F083F3970
:10278E0080389F00831603139F13831203131F14A5
:10279E00C73083160317D800D42BD80BD32BD72BC7
:1027AE003C3083160317CF00A330CE00D730CD00B8
:1027BE000A30CC0001300A168A1107220A168A1135
:1027CE00393083160317CF008330CE001230CD0080
:1027DE006F30CC0001300A168A1118240A168A119D
:1027EE003C3083160317CF00A330CE00D730CD0078
:1027FE000A30CC0002300A168A1107220A168A11F4
:10280E00393083160317CF008330CE001230CD003F
:10281E006F30CC0002300A168A1118240A168A115B
:10282E00080083160317D3005303031D1F2C202CFF
:10283E009D2C4F0897004E0896004D0895004C08A9
:10284E0094004030930080309200003091000030B0
:10285E0090000A128A112E200A168A118316031767
:10286E001308B1001208B0001108AF001008AE0036
:10287E003630AD008630AC003730AB00BD30AA002C
:10288E000A128A153C210A168A11831603172D087F
:10289E00C7002C08C6002B08C5002A08C4000A165B
:1028AE008A11FA220A168A11831603174508D500D3
:1028BE004408D4005508D1005408D000510DD10C55
:1028CE00D00C510DD10CD00C5008A23EFF3A013E57
:1028DE008312031395008316031754080139D00091
:1028EE00D00E831203131708831603175006EF3901
:1028FE005006831203139700831603175508D10051
:10290E005408D000510DD10CD00C50080139D20012
:10291E00D20ED20D83120313170883160317520615
:10292E00DF3952068312031397001D2D0230530612
:10293E00031DA22CA32C1D2D4F0897004E089600A8
:10294E004D0895004C089400403093008030920062
:10295E0000309100003090000A128A112E200A16C3
:10296E008A11831603171308B1001208B00011085C
:10297E00AF001008AE003630AD008630AC003730F8
:10298E00AB00BD30AA000A128A153C210A168A1124
:10299E00831603172D08C7002C08C6002B08C50088
:1029AE002A08C4000A168A11FA220A168A118316F8
:1029BE0003174508D7004408D6005708D10056081B
:1029CE00D000510DD10CD00C510DD10CD00C5008A3
:1029DE003C3E831203139B008316031756080139DE
:1029EE00D000D00E831203131D0883160317500652
:1029FE00EF395006831203139D00831603175708F1
:102A0E00D1005608D000510DD10CD00C5008013910
:102A1E00D200D20ED20D831203131D088316031794
:102A2E005206DF395206831203139D00080006304A
:102A3E0083160317E5000030E6002430E300003073
:102A4E00E4000630E8000630E7000A168A118823F3
:102A5E000A168A11831203139F140330831603136D
:102A6E005606031D3B2D3C2D3E2DD601D60A831650
:102A7E0003176608803A803C031D472D65086802DF
:102A8E00031C4A2D4B2D552D831603176808D900AC
:102A9E00DA015908DB005A08DC005B2D8316031798
:102AAE006608DC006508DB005B08E8006408803A15
:102ABE00D90080305902031D662D68086302031C7D
:102ACE00692D6A2D742D831603176808D900DA0153
:102ADE005908DD005A08DE007A2D831603176408A4
:102AEE00DE006308DD005D08E8006608803A803C81
:102AFE00031D832D65086702031C862D872D912DDE
:102B0E00831603176708D900DA015908DF005A083F
:102B1E00E000972D831603176608E0006508DF00B6
:102B2E005F08E7006408803AD90080305902031D1F
:102B3E00A22D67086302031CA52DA62DB02D8316AA
:102B4E0003176708D900DA015908E1005A08E200B4
:102B5E00B62D831603176408E2006308E1006108CE
:102B6E00E700831203139F18BD2DBE2D342D1F0CAD
:102B7E0083160317D900590C0F39003A031DC82DBF
:102B8E00C92DD02D831203131F08C33910389F008F
:102B9E001E2E831203131F0C83160317D900590C14
:102BAE000F39043A031DDC2DDD2DE42D83120313A2
:102BBE001F08C3390C389F001E2E831203131F0CDF
:102BCE0083160317D900590C0F39033A031DF02D44
:102BDE00F12DF82D831203131F08C33908389F00F7
:102BEE001E2E831203131F0C83160317D900590CC4
:102BFE000F39023A031D042E052E0C2E83120313D9
:102C0E001F08C33904389F001E2E831203131F0C96
:102C1E0083160317D900590C0F39013A031D182ECC
:102C2E00192E1E2EC330831203139F051E2EC7307E
:102C3E0083160317D900232ED90B222E262E83128C
:102C4E0003139F14342D0A128A11102883120313B2
:102C5E0027088039B1002708A8002807B800A61F4A
:102C6E00392E3A2E3B2E3814380803193F2E402E9B
:102C7E00502E380A031D442E452E4D2E0030A7002F
:102C8E000030A6000030A5000030A400A617A70152
:102C9E00582E0030A7000030A6000030A5000030EE
:102CAE00A40023088039A8002808B1062308A8002C
:102CBE002807B900A21F642E652E662E3914390816
:102CCE0003196A2E6B2E7B2E390A031D6F2E702E62
:102CDE00782E0030A3000030A2000030A10000309A
:102CEE00A000A217A301832E0030A3000030A20083
:102CFE000030A1000030A00023082204210420048B
:102D0E00031D8A2E8B2EA42E0030A7000030A600A5
:102D1E000030A5000030A4008030A6047F30A70448
:102D2E003108A8002808A7042708A3002608A20037
:102D3E002508A1002408A000FF2F3808031DA82E87
:102D4E00A92EB22E0030A3000030A2000030A10048
:102D5E000030A000FF2F3808A800A9012908AB00F9
:102D6E0039082802AA00031CAB032A087F3EB200D2
:102D7E002B080318013E003EB3002708B0002608BA
:102D8E00AF002508AE002408AD000030A7000030CB
:102D9E00A6000030A5000030A4000030B7000030BF
:102DAE00B6000030B5000030B400B901282F390844
:102DBE000319E22EE32E032F0130A8000310AD0DF0
:102DCE00AE0DAF0DB00DA80BE52E0130A80003100F
:102DDE00A40DA50DA60DA70DA80BEE2EB71FF82E50
:102DEE00F92EFA2E24140130A8000310B40DB50DDF
:102DFE00B60DB70DA80BFC2E23083002031D112FA4
:102E0E0022082F02031D112F21082E02031D112F40
:102E1E0020082D02031C142F152F242F37172008DE
:102E2E00AD022108031C210FAE022208031C220F43
:102E3E00AF022308031C230FB0020130A80028089C
:102E4E00B9071A303902031C2D2F2E2FDE2E300813
:102E5E002F042E042D040319352F362F552F34141D
:102E6E00552F0130A8000310A40DA50DA60DA70D1A
:102E7E00A80B3A2FB71F442F452F462F241401308D
:102E8E00A8000310B40DB50DB60DB70DA80B482F45
:102E9E00FF30B2070318B30AFF30B307A61F582F2F
:102EAE00592F382FB901B71F5D2F5E2F7A2FFF30A4
:102EBE003405A800FF303505A900FF303605AA00FD
:102ECE007F303705AB002B082A0429042804031988
:102EDE00712F722F752FB901B90A7A2F241C782FF2
:102EEE00792F7A2F722F390803197E2F7F2FB02F4B
:102EFE000130A407003003180130A5070030031875
:102F0E000130A607003003180130A707271C902FA9
:102F1E00912FB02F2408A8002508A9002608AA0082
:102F2E002708AB000130AC002B0DAB0CAA0CA90C82
:102F3E00A80CAC0B9B2F2B08A7002A08A60029086B
:102F4E00A5002808A4000130B2070318B30A003008
:102F5E00B3073308803AFF0080307F02031DB92F7C
:102F6E00FF303202031CBC2FBD2FCB2FFF3083123C
:102F7E000313B2000030B3000030A7000030A600EB
:102F8E000030A5000030A400831203133308803AEA
:102F9E00FF0080307F02031DD62F0130320203184E
:102FAE00D92FDA2FE72F83120313B201B3010030AA
:102FBE00A7000030A6000030A5000030A400B1012B
:102FCE00831203133208B800381CEE2FEF2FF12FA7
:102FDE00A617F52F7F30A8002808A6053808A800E8
:102FEE000310280CA7003108A8002808A7049B2E60
:022FFE000800C9
:08400000FF3FFF3FFF3FFF3FC0
:04400E00D420FF3F7C
:00000001FF
