:060000000A128A11122809
:10000800FE00030E83160313BD000408BE000A0891
:10001800BF007F08C0000A128A15C5290A128A1172
:100028001528831603130A168A1108200A128A1142
:10003800D6000A168A1109200A128A11D7000A1650
:100048008A110A200A128A11D80083172F308400D7
:1000580037300A128A11F7270A128A118313C5301A
:100068008400D6300A128A11F7270A128A118301EE
:100078000A128A15D82C831603173B088039C50045
:100088003B08C0004007CB00BA1F4B284C284D281E
:100098004B144B0803195128522861284B0A031D99
:1000A800562857285F280030BB000030BA000030BF
:1000B800B9000030B800BA1769280030BB0000301A
:1000C800BA000030B9000030B8003F088039C000DD
:1000D8004008C5063F08C0004007C600BE1F752877
:1000E800762877284614460803197B287C288B280D
:1000F800460A031D8028812889280030BF00003067
:10010800BE000030BD000030BC00BE179328003090
:10011800BF000030BE000030BD000030BC00460803
:100128000319972898289D284B08031D9C289D286B
:10013800A6280030BB000030BA000030B9000030FB
:10014800B800832B380890003E080A168A15FA2151
:100158000A128A11831603171108D1001008D0005B
:100168005008C000C101C201C3014308CA004208C7
:10017800C9004108C8004008C7005108C000C101B3
:10018800C201C3014308CF004208CE004108CD0098
:100198004008CC00390890003D080A168A15FA2153
:1001A8000A128A11831603171108D1001008D0000B
:1001B8005008C000C101C201C3014008C707410877
:1001C80003110318013E0319EA28C807420803115E
:1001D8000318013E0319F128C9074308031103183E
:1001E800013E0319F828CA075108C000C101C2011D
:1001F800C3014008CC07410803110318013E031945
:100208000629CD07420803110318013E03190D29D9
:10021800CE07430803110318013E03191429CF0719
:100228003A0890003C080A168A15FA210A128A111F
:10023800831603171108D1001008D0005008C00019
:10024800C101C201C3014008C707410803110318CF
:10025800013E03193029C807420803110318013E5B
:1002680003193729C907430803110318013E031965
:100278003E29CA075108C000C101C201C301400894
:10028800CC07410803110318013E03194C29CD0777
:10029800420803110318013E03195329CE074308E6
:1002A80003110318013E03195A29CF070830C0006B
:1002B8000310C70DC80DC90DCA0DC00B5C2939083C
:1002C80090003C080A168A15FA210A128A11831628
:1002D80003171108D1001008D0005008C0005108B9
:1002E800C100C201C3014008C70741080311031830
:1002F800013E03198029C807420803110318013E6B
:1003080003198729C907430803110318013E031974
:100318008E29CA07380890003D080A168A15FA215E
:100328000A128A11831603171108D1001008D00089
:100338005008C0005108C100C201C3014008C707E6
:10034800410803110318013E0319AB29C8074208E5
:1003580003110318013E0319B229C9074308031101
:100368000318013E0319B929CA070830C000031051
:10037800C70DC80DC90DCA0DC00BBB2938089000A0
:100388003C080A168A15FA210A128A1183160317DD
:100398001108D1001008D0005008C0005108C10051
:1003A800C201C3014008C707410803110318013EF1
:1003B8000319DF29C807420803110318013E03196E
:1003C800E629C907430803110318013E0319ED295B
:1003D800CA07390890003E080A168A15FA210A1237
:1003E8008A11831603171108D1001008D00050088D
:1003F800C0005108C100C201C3014008CC07410830
:1004080003110318013E03190A2ACD0742080311F4
:100418000318013E0319112ACE07430803110318D4
:10042800013E0319182ACF073A0890003D080A161A
:100438008A15FA210A128A11831603171108D100A6
:100448001008D0005008C0005108C100C201C30103
:100458004008CC07410803110318013E0319352A47
:10046800CD07420803110318013E03193C2ACE07A1
:10047800430803110318013E0319432ACF073A081A
:1004880090003E080A168A15FA210A128A11831664
:1004980003171108D1001008D0005008C0005108F7
:1004A800C100C201C30108300310C00DC10DC20D47
:1004B800C30DFF3E031D582A4008CC07410803110D
:1004C8000318013E0319692ACD07420803110318CE
:1004D800013E0319702ACE07430803110318013E91
:1004E8000319772ACF074708C0004808C100490800
:1004F800C2004A08C30018300310C30CC20CC10C58
:10050800C00CFF3E031D802A4008CC074108031198
:100518000318013E0319912ACD0742080311031855
:10052800013E0319982ACE07430803110318013E18
:1005380003199F2ACF070830C0000310C70DC80D44
:10054800C90DCA0DC00BA12A4B084607C000C1013E
:10055800C10D4008823ED00041080318013EFF3E0D
:10056800D100D32A0130C0000310CC0DCD0DCE0D23
:10057800CF0DC00BB82ACA1FC22AC32AC42A4C14DA
:100588000130C0000310C70DC80DC90DCA0DC00B3E
:10059800C62AFF30D0070318D10AFF30D107CE1F73
:1005A800D62AD72AB62AC601CA1FDB2ADC2AF82A85
:1005B800FF304705C000FF304805C100FF3049053E
:1005C800C2007F304A05C300430842044104400486
:1005D8000319EF2AF02AF32AC601C60AF82A4C1C86
:1005E800F62AF72AF82AF02A46080319FC2AFD2ACF
:1005F8002E2B0130CC07003003180130CD07003016
:1006080003180130CE07003003180130CF074F1C04
:100618000E2B0F2B2E2B4C08C0004D08C1004E0886
:10062800C2004F08C3000130C400430DC30CC20C04
:10063800C10CC00CC40B192B4308CF004208CE00D4
:100648004108CD004008CC000130D0070318D10A7A
:100658000030D1075108803AFF0080307F02031D27
:10066800372BFF305002031C3A2B3B2B462B7F3095
:1006780083160317CF008030CE000030CD00003045
:10068800CC00772B831603175108803AFF0080307F
:100698007F02031D512B013050020318542B552B98
:1006A800612B003083160317CF000030CE000030D6
:1006B800CD000030CC00C501772B831603175008F6
:1006C800CB00FF30CC05FF30CD057F30CE050030A4
:1006D800CF054B1C702B712B722BCE174B08C0000B
:1006E8000310400CCF004508C0004008CF044F0855
:1006F800BB004E08BA004D08B9004C08B800080005
:10070800831203133D088039C7003D08C200420721
:10071800CD00BC1F902B912B922B4D144D08031923
:10072800962B972BA62B4D0A031D9B2B9C2BA42B9A
:100738000030BD000030BC000030BB000030BA0003
:10074800BC17AE2B0030BD000030BC000030BB0031
:100758000030BA0041088039C2004208C706410883
:10076800C2004207CC00C01FBA2BBB2BBC2B4C14B9
:100778004C080319C02BC12BD02B4C0A031DC52BC9
:10078800C62BCE2B0030C1000030C0000030BF00A7
:100798000030BE00C017D82B0030C1000030C000A8
:1007A8000030BF000030BE004C080319DC2BDD2BE5
:1007B800E22B4D08031DE12BE22BEB2B0030BD0093
:1007C8000030BC000030BB000030BA00C82E3A0828
:1007D800F00040080A168A15D3210A128A117108F6
:1007E80083120313D3007008D2005208C200C30159
:1007F800C401C5014508CB004408CA004308C90024
:100808004208C8005308C200C301C401C501450815
:10081800D1004408D0004308CF004208CE003B086E
:10082800F0003F080A168A15D3210A128A117108A6
:1008380083120313D3007008D2005208C200C30108
:10084800C401C5014208C807430803110318013E43
:1008580003192F2CC907440803110318013E031973
:10086800362CCA07450803110318013E03193D2C0D
:10087800CB075308C200C301C401C5014208CE0713
:10088800430803110318013E03194B2CCF074408F2
:1008980003110318013E0319522CD0074508031110
:1008A8000318013E0319592CD1073C08F0003E08F3
:1008B8000A168A15D3210A128A11710883120313A2
:1008C800D3007008D2005208C200C301C401C50198
:1008D8004208C807430803110318013E0319752C81
:1008E800C907440803110318013E03197C2CCA07E1
:1008F800450803110318013E0319832CCB0753083D
:10090800C200C301C401C5014208CE074308031150
:100918000318013E0319912CCF074408031103184B
:10092800013E0319982CD007450803110318013E0E
:1009380003199F2CD1070830C2000310C80DC90D38
:10094800CA0DCB0DC20BA12C3B08F0003E080A16BD
:100958008A15D3210A128A11710883120313D3004E
:100968007008D2005208C2005308C300C401C50170
:100978004208C807430803110318013E0319C52C90
:10098800C907440803110318013E0319CC2CCA07F0
:10099800450803110318013E0319D32CCB073A0865
:1009A800F0003F080A168A15D3210A128A11710825
:1009B80083120313D3007008D2005208C2005308F0
:1009C800C300C401C5014208C8074308031103183E
:1009D800013E0319F02CC907440803110318013E0E
:1009E8000319F72CCA07450803110318013E031918
:1009F800FE2CCB070830C2000310C80DC90DCA0D64
:100A0800CB0DC20B002D3A08F0003E080A168A15D5
:100A1800D3210A128A11710883120313D3007008B4
:100A2800D2005208C2005308C300C401C5014208DD
:100A3800C807430803110318013E0319242DC907E9
:100A4800440803110318013E03192B2DCA07450852
:100A580003110318013E0319322DCB073B08F000A0
:100A680040080A168A15D3210A128A1171088312BE
:100A78000313D3007008D2005208C2005308C30001
:100A8800C401C5014208CE07430803110318013EFB
:100A980003194F2DCF07440803110318013E03190A
:100AA800562DD007450803110318013E03195D2D83
:100AB800D1073C08F0003F080A168A15D3210A120C
:100AC8008A11710883120313D3007008D2005208E8
:100AD800C2005308C300C401C5014208CE07430839
:100AE80003110318013E03197A2DCF074408031197
:100AF8000318013E0319812DD00745080311031877
:100B0800013E0319882DD1073C08F00040080A1659
:100B18008A15D3210A128A11710883120313D3008C
:100B28007008D2005208C2005308C300C401C501AE
:100B380008300310C20DC30DC40DC50DFF3E031DC3
:100B48009D2D4208CE07430803110318013E0319DF
:100B5800AE2DCF07440803110318013E0319B52D24
:100B6800D007450803110318013E0319BC2DD1070E
:100B78004808C2004908C3004A08C4004B08C50019
:100B880018300310C50CC40CC30CC20CFF3E031D67
:100B9800C52D4208CE07430803110318013E031967
:100BA800D62DCF07440803110318013E0319DD2D84
:100BB800D007450803110318013E0319E42DD10796
:100BC8000830C2000310C80DC90DCA0DCB0DC20BE9
:100BD800E62D4D084C07C200C301C30D4208823EF2
:100BE800D20043080318013EFF3ED300182E0130FF
:100BF800C2000310CE0DCF0DD00DD10DC20BFD2DAF
:100C0800CB1F072E082E092E4E140130C2000310E8
:100C1800C80DC90DCA0DCB0DC20B0B2EFF30D20764
:100C28000318D30AFF30D307D01F1B2E1C2EFB2D11
:100C3800CC01CB1F202E212E3D2EFF304805C200AF
:100C4800FF304905C300FF304A05C4007F304B051B
:100C5800C50045084404430442040319342E352EC4
:100C6800382ECC01CC0A3D2E4E1C3B2E3C2E3D2E60
:100C7800352E4C080319412E422E732E0130CE0713
:100C8800003003180130CF07003003180130D007B7
:100C9800003003180130D107511C532E542E732EE7
:100CA8004E08C2004F08C3005008C4005108C500D0
:100CB8000130C600450DC50CC40CC30CC20CC60BD4
:100CC8005E2E4508D1004408D0004308CF004208F2
:100CD800CE000130D2070318D30A0030D3075308D7
:100CE800803AFF0080307F02031D7C2EFF305202C5
:100CF800031C7F2E802E8B2E7F3083120313D1008E
:100D08008030D0000030CF000030CE00BC2E8312DF
:100D180003135308803AFF0080307F02031D962E8C
:100D2800013052020318992E9A2EA62E00308312F3
:100D38000313D1000030D0000030CF000030CE00C7
:100D4800C701BC2E831203135208CD00FF30CE0515
:100D5800FF30CF057F30D0050030D1054D1CB52EB2
:100D6800B62EB72ED0174D08C2000310420CD10082
:100D78004708C2004208D1045108BD005008BC0011
:100D88004F08BB004E08BA000800831203179700EB
:100D98001703031DD02ED12E622F130883160317B5
:100DA800BF0083120317120883160317BE008312AD
:100DB8000317110883160317BD00831203171008C1
:100DC80083160317BC004030BB008030BA000030E7
:100DD800B9000030B8000A128A113F200A128A119D
:100DE800831603173B08A5003A08A4003908A30096
:100DF8003808A2003630A1008630A00037309F00A6
:100E0800BD309E000A168A117D210A128A118316A6
:100E180003172108E9002008E8001F08E7001E085A
:100E2800E6000A168A155C220A128A11831603172D
:100E3800670883120317990083160317660883123D
:100E4800031798001908950018089400150D950CBB
:100E5800940C150D950C940C1408BB3EFF3A013EFA
:100E6800831203139500831203171808013994009D
:100E7800940E831203131708831203171406EF390D
:100E88001406831203139700831203171908950099
:100E980018089400150D950C940C14080139960047
:100EA800960E960D8312031317088312031716065E
:100EB800DF391606831203139700F62F0230170640
:100EC800031D672F682FF62F130883160317BF001B
:100ED80083120317120883160317BE008312031721
:100EE800110883160317BD00831203171008831611
:100EF8000317BC004030BB008030BA000030B90096
:100F08000030B8000A128A113F200A128A1183168B
:100F180003173B08A5003A08A4003908A3003808BD
:100F2800A2003630A1008630A00037309F00BD30C7
:100F38009E000A168A117D210A128A118316031748
:100F48002108E9002008E8001F08E7001E08E6005D
:100F58000A168A155C220A128A1183160317670873
:100F6800831203179B00831603176608831203175F
:100F78009A001B0895001A089400150D950C940CFE
:100F8800150D950C940C14083C3E831203139B001A
:100F9800831203171A0801399400940E831203135D
:100FA8001D08831203171406EF391406831203135E
:100FB8009D00831203171B0895001A089400150D4D
:100FC800950C940C140801399600960E960D831210
:100FD80003131D08831203171606DF39160683123A
:100FE80003139D00080064008001840A04060319A5
:060FF80000340406F82F8E
:10100400831603170814881408158815081689010F
:10101400FF30831603138600FF308500C03087003D
:1010240088018901D101D20183120313850186014C
:10103400870188018901831603138113FF30960009
:101044000F088F3960388F000F1481128111011538
:10105400811001148312031381010B108B150B11E2
:101064008B160C130B17831603130C178B17831291
:1010740003139F14C3309F05831603131F129F127B
:10108400831203131F083F3980389F00831603130C
:101094009F13831203131F14C730831203179C007A
:1010A40053289C0B522856283C3083120317930074
:1010B400A3309200D73091000A30900001300A1614
:1010C4008A15D4220A128A15393083120317930021
:1010D40083309200123091006F30900001300A1278
:1010E4008A11C9260A128A153C3083120317930009
:1010F400A3309200D73091000A30900002300A16D3
:101104008A15D4220A128A153930831203179300E0
:1011140083309200123091006F30900002300A1236
:101124008A11C9260A128A15080083160313A90016
:101134002903031D9E289F283029250883120313A1
:10114400C10083160313240883120313C0008316FB
:101154000313230883120313BF0083160313220807
:1011640083120313BE004030BD008030BC00003049
:10117400BB000030BA000A128A1184230A128A15AD
:10118400831203133D08A7003C08A6003B08A500F2
:101194003A08A4003630A3008630A2003730A100FC
:1011A400BD30A0000A168A152D260A128A1583124C
:1011B40003132308EB002208EA002108E9002008B1
:1011C400E8000A168A15CE230A128A15831203131D
:1011D400690883160313AB0083120313680883168C
:1011E4000313AA002B08A7002A08A600270DA70CA2
:1011F400A60C270DA70CA60C2608BB3EFF3A013E01
:10120400831203139500831603132A080139A600D9
:10121400A60E831203131708831603132606EF3949
:101224002606831203139700831603132B08A700C3
:101234002A08A600270DA70CA60C26080139A80029
:10124400A80EA80D83120313170883160313280688
:10125400DF392806831203139700C42902302906B4
:10126400031D35293629C429250883120313C10017
:1012740083160313240883120313C0008316031375
:10128400230883120313BF00831603132208831257
:101294000313BE004030BD008030BC000030BB00F2
:1012A4000030BA000A128A1184230A128A158312A2
:1012B40003133D08A7003C08A6003B08A5003A0814
:1012C400A4003630A3008630A2003730A100BD3020
:1012D400A0000A168A152D260A128A1583120313F2
:1012E4002308EB002208EA002108E9002008E800AE
:1012F4000A168A15CE230A128A1583120313690863
:1013040083160313AD0083120313680883160313B3
:10131400AC002D08A7002C08A600270DA70CA60CCE
:10132400270DA70CA60C26083C3E831203139B0032
:10133400831603132C080139A600A60E8312031387
:101344001D08831603132606EF392606831203139A
:101354009D00831603132D08A7002C08A600270D53
:10136400A70CA60C26080139A800A80EA80D831204
:1013740003131D08831603132806DF392806831276
:1013840003139D0008000B1DC829C929CF290A167B
:101394008A1523220A128A150B11831203138C1E39
:1013A400D429D529DA290A168A154F230A128A154F
:1013B4000B1CDD29DE294C2A831203130618E329AA
:1013C400E429EF29831603135108013ED100520882
:1013D4000318013E003ED2004B2A8618F229F32955
:1013E400F929831603135808013ED8004B2A06191D
:1013F400FC29FD29082A013083160313B900390892
:10140400D50783120317B301B4014B2A86190B2A9B
:101414000C2A112A013083160313D502032A061A53
:10142400142A152A202A831603135308F00055089A
:101434000A168A1567210A128A15032A861A232A8C
:10144400242A402A8316031355080A168A155021A4
:101454000A128A1583160313D40083120317B301E7
:10146400B401831603135208AF005108AE005408A8
:101474000A168A155C240A128A154B2A061B432A6B
:10148400442A4B2A013083120317B3000030B400FE
:101494004B2A0B10831203130C1F512A522ACB2CF4
:1014A4008316031351085204031D592A5A2AAB2CDC
:1014B400831203131F0C83160313B900390C0F395D
:1014C400003A031D662A672A182B831203131E0889
:1014D40083160313B900BA01BB01BC013C08F30035
:1014E4003B08F2003A08F1003908F00001300A160E
:1014F4008A110B200A128A15730883120313C10080
:101504007208C0007108BF007008BE003F30BD0003
:101514001930BC009930BB009A30BA000A128A1103
:1015240084230A128A15831203133D08EB003C0836
:10153400EA003B08E9003A08E8000A168A15CE23B7
:101544000A128A1583120313690883160313D00041
:1015540083120313680883160313CF0039308312F0
:101564000313BD008330BC001230BB006F30BA00DF
:101574004330A3007F30A2000030A1000030A0005F
:10158400831603134F08F0005008F1000030F11BDC
:10159400FF30F200F30001300A168A110B200A1200
:1015A4008A15730883120313A7007208A600710832
:1015B400A5007008A4000A168A152D260A128A1599
:1015C400831203132308C1002208C0002108BF00AE
:1015D4002008BE000A128A1184230A128A15831273
:1015E40003133D0883160313C400831203133C083A
:1015F40083160313C300831203133B0883160313D8
:10160400C200831203133A0883160313C10044086B
:10161400A5004308A4004208A3004108A200013029
:101624000A128A1597200A128A15C82C83120313EA
:101634001F0C83160313B900390C0F39013A031D2B
:10164400242B252B802B831203131E0883160313CC
:10165400B900BA01BB01BC013C08F3003B08F2002D
:101664003A08F1003908F00001300A168A110B20FB
:101674000A128A15730883120313C1007208C0008A
:101684007108BF007008BE003D30BD004030BC0092
:101694008330BB001230BA000A128A1184230A1262
:1016A4008A15831203133D08DB003C08DA003B086B
:1016B400D9003A08D8004030D700C030D6000030F6
:1016C400D5000030D4000A168A1150230A128A1554
:1016D400831203135708EB005608EA005508E90083
:1016E4005408E8000A168A15CE230A128A158312B2
:1016F4000313680883120317B800C82C831203135A
:101704001F0C83160313B900390C0F39023A031D59
:101714008C2B8D2BE82B831203131E0883160313C3
:10172400B900BA01BB01BC013C08F3003B08F2005C
:101734003A08F1003908F00001300A168A110B202A
:101744000A128A15730883120313C1007208C000B9
:101754007108BF007008BE003D30BD004030BC00C1
:101764008330BB001230BA000A128A1184230A1291
:101774008A15831203133D08DB003C08DA003B089A
:10178400D9003A08D8004030D700C030D600003025
:10179400D5000030D4000A168A1150230A128A1583
:1017A400831203135708EB005608EA005508E900B2
:1017B4005408E8000A168A15CE230A128A158312E1
:1017C4000313680883120317B700C82C831203138A
:1017D4001F0C83160313B900390C0F39033A031D88
:1017E400F42BF52BAA2C831203131E088316031360
:1017F400B900BA01BB01BC013C08F3003B08F2008C
:101804003A08F1003908F00001300A168A110B2059
:101814000A128A15730883120313C1007208C000E8
:101824007108BF007008BE003F30BD006630BC00C8
:101834006630BB006630BA000A128A1184230A1289
:101844008A15831203133D08EB003C08EA003B08A9
:10185400E9003A08E8000A168A15CE230A128A1506
:1018640083120313690883160313CE008312031330
:10187400680883160313CD00393083120313BD00A7
:101884008330BC001230BB006F30BA004330A30079
:101894007F30A2000030A1000030A0001E08831693
:1018A4000313B900BA01BB01BC013C08F3003B08B7
:1018B400F2003A08F1003908F00001300A168A11E2
:1018C4000B200A128A15730883120313A7007208E7
:1018D400A6007108A5007008A4000A168A152D2612
:1018E4000A128A15831203132308C1002208C000B8
:1018F4002108BF002008BE000A128A1184230A129C
:101904008A15831203133D0883160313C40083123C
:1019140003133C0883160313C300831203133B0809
:1019240083160313C200831203133A0883160313A6
:10193400C1004408A5004308A4004208A3004108CC
:10194400A20002300A128A1597200A128A15C82C9E
:10195400C82C51035204031DB02CB12CC82C831283
:1019640003131F0C83160313B900390C0F39043AFF
:10197400031DBD2CBE2CC82C831203131E08831612
:101984000313D30083120317B301B40183120313A7
:101994000C13831603134008FF003F088A003E0817
:1019A40084003D0E8300FE0E7E0E09000630831275
:1019B4000317AD000030AE001330AB000030AC00B4
:1019C4000630B8000630B7000A128A1502200A123F
:1019D4008A150A168A15AE210A128A158312031370
:1019E4009F148312031731033204031DFA2CFB2CBA
:1019F4000C2DB101B2010130AF000030B0008312F0
:101A040003130808831203179D009E011D08B500E7
:101A14001E08B60033033404031D112D122D132D9B
:101A2400630083160313510883120313890083167A
:101A340003135208803AFF0080307F02031D242DD7
:101A440003305102031C272D282D2C2D831603133C
:101A5400D101D2010330831603135802031C332D22
:101A6400342D362DD801D80A831203172E08803A54
:101A7400803C031D3F2D2D083802031C422D432DAD
:101A84004D2D8312031738089D009E011D089F00E9
:101A94001E08A000532D831203172E08A0002D0842
:101AA4009F001F08B8002C08803A9D0080301D025A
:101AB400031D5E2D38082B02031C612D622D6C2D35
:101AC4008312031738089D009E011D08A1001E08FB
:101AD400A200722D831203172C08A2002B08A10068
:101AE4002108B8002E08803A803C031D7B2D2D0868
:101AF4003702031C7E2D7F2D892D8312031737088F
:101B04009D009E011D08A3001E08A4008F2D8312B2
:101B140003172E08A4002D08A3002308B7002C08DF
:101B2400803A9D0080301D02031D9A2D37082B0238
:101B3400031C9D2D9E2DA82D8312031737089D008D
:101B44009E011D08A5001E08A600AE2D83120317D2
:101B54002C08A6002B08A5002508B7008312031340
:101B64009F18B52DB62D212E1F0C831203179D002F
:101B74001D0C0F39003A031DC02DC12DC82D831231
:101B840003131F08C33910389F00162E8312031342
:101B94001F0C831203179D001D0C0F39043A031DFB
:101BA400D42DD52DDC2D831203131F08C3390C3813
:101BB4009F00162E831203131F0C831203179D001C
:101BC4001D0C0F39033A031DE82DE92DF02D831266
:101BD40003131F08C33908389F00162E83120313FA
:101BE4001F0C831203179D001D0C0F39023A031DAD
:101BF400FC2DFD2D042E831203131F08C339043852
:101C04009F00162E831203131F0C831203179D00CB
:101C14001D0C0F39013A031D102E112E162EC33040
:101C2400831203139F05162EC730831203179D00DA
:101C34001B2E9D0B1A2E1E2E831203139F14831228
:101C440003172F033004031D282E292EF32CAF0174
:101C5400B001350883160317900083120317360862
:101C64008316031791000030911BFF3092009300FC
:101C740001300A168A11C3200A128A158316031723
:101C84001308BF001208BE001108BD001008BC00F4
:101C94003D30BB004030BA008330B9001230B80088
:101CA4000A128A113F200A128A15831603173B0869
:101CB400D9003A08D8003908D7003808D60040308F
:101CC400D500C030D4000030D3000030D2000A1652
:101CD4008A11A8250A128A15831603175508E900E4
:101CE4005408E8005308E7005208E6000A168A156B
:101CF4005C220A128A1583160317660883120317D7
:101D0400B8003508831603179000831203173608AA
:101D14008316031791000030911BFF30920093004B
:101D240001300A168A11C3200A128A158316031772
:101D34001308BF001208BE001108BD001008BC0043
:101D44003D30BB004030BA008330B9001230B800D7
:101D54000A128A113F200A128A15831603173B08B8
:101D6400D9003A08D8003908D7003808D6004030DE
:101D7400D500C030D4000030D3000030D2000A16A1
:101D84008A11A8250A128A15831603175508E90033
:101D94005408E8005308E7005208E6000A168A15BA
:101DA4005C220A128A158316031766088312031726
:101DB400B7003508831603179000831203173608FB
:101DC4008316031791000030911BFF30920093009B
:101DD40001300A168A11C3200A128A1583160317C2
:101DE4001308BF001208BE001108BD001008BC0093
:101DF4003F30BB001930BA009930B9009A30B800AE
:101E04000A128A113F200A128A15831603173B0807
:101E1400E9003A08E8003908E7003808E6000A163D
:101E24008A155C220A128A1583160317670883161B
:101E34000313D00083160317660883160313CF0019
:101E4400393083160317BB008330BA001230B9004F
:101E54006F30B8004330A1007F30A00000309F00F5
:101E640000309E00831603134F0883160317900057
:101E74008316031350088316031791000030911B37
:101E8400FF309200930001300A168A11C3200A120F
:101E94008A15831603171308A5001208A400110855
:101EA400A3001008A2000A168A117D210A128A15BD
:101EB400831603172108BF002008BE001F08BD00B9
:101EC4001E08BC000A128A113F200A128A158316C2
:101ED40003173B0883120317AA00831603173A0853
:101EE40083120317A90083160317390883120317F3
:101EF400A80083160317380883120317A7002A08BB
:101F040093002908920028089100270890000130C6
:101F14000A128A11C9260A128A1539308316031740
:101F2400BB008330BA001230B9006F30B8004330C0
:101F3400A1007F30A00000309F0000309E0083127B
:101F44000317350883160317900083120317360806
:101F54008316031791000030911BFF309200930009
:101F640001300A168A11C3200A128A158316031730
:101F74001308A5001208A4001108A3001008A20069
:101F84000A168A117D210A128A158316031721085D
:101F9400BF002008BE001F08BD001E08BC000A12B6
:101FA4008A113F200A128A15831603173B088312ED
:101FB4000317AA00831603173A0883120317A9000C
:101FC40083160317390883120317A800831603170F
:101FD400380883120317A7002A08930029089200DF
:101FE400280891002708900002300A128A11C92695
:0C1FF4000A128A15F32C0A128A11122816
:10201000FF34FF340134F800780803191028112820
:102020002528F31F1428152825287009FA0071099E
:10203000FB007209FC007309FD00FA0A0319FB0A90
:102040000319FC0A0319FD0A2D287308FD00720804
:10205000FC007108FB007008FA0073087204710438
:102060007004031D342835283E280030F30000306A
:10207000F2000030F1000030F000C2289630F90084
:102080004E280130F4007408F90701300310FD0CEC
:10209000FC0CFB0CFA0CFF3E031D4628FE307D05B0
:1020A000031D53285428412870280130F400740877
:1020B000F9070130FA07003003180130FB07003040
:1020C00003180130FC07003003180130FD07013010
:1020D0000310FD0CFC0CFB0CFA0CFF3E031D6828E2
:1020E000FF307D05031D752876285528822801308C
:1020F000F9020130F4000310FA0DFB0DFC0DFD0D8B
:10210000F40B7B28FC1B852886288C28023079025A
:1021100003188B288C28772879188F2890289828DE
:10212000FF30FA05FF30FB057F30FC05FF30FD0571
:102130000310F90C7908F400F501F601F7011830E5
:102140000310F40DF50DF60DF70DFF3E031DA0284D
:102150007408FA047508FB047608FC047708FD048B
:1021600078080319B428B528BA28F31FB828B92865
:10217000BA28FD177D08F3007C08F2007B08F10007
:102180007A08F0000800831603179800180803194E
:10219000CA28CB28DF28931FCE28CF28DF28100994
:1021A0009A0011099B0012099C0013099D009A0ACC
:1021B00003199B0A03199C0A03199D0AE7281308AF
:1021C0009D0012089C0011089B0010089A0013083B
:1021D000120411041004031DEE28EF28F828003023
:1021E00093000030920000309100003090007C2974
:1021F000963099000829013094001408990701309D
:1022000003109D0C9C0C9B0C9A0CFF3E031D002997
:10221000FE301D05031D0D290E29FB282A2901303A
:1022200094001408990701309A0700300318013010
:102230009B070030031801309C0700300318013061
:102240009D07013003109D0C9C0C9B0C9A0CFF3ECB
:10225000031D2229FF301D05031D2F2930290F29B9
:102260003C29013099020130940003109A0D9B0D16
:102270009C0D9D0D940B35299C1B3F294029462917
:10228000023019020318452946293129191849290C
:102290004A295229FF309A05FF309B057F309C0563
:1022A000FF309D050310990C1908940095019601C3
:1022B000970118300310940D950D960D970DFF3E64
:1022C000031D5A2914089A0415089B0416089C0437
:1022D00017089D04180803196E296F297429931F84
:1022E0007229732974299D171D0893001C089200F8
:1022F0001B0891001A089000080083160317250890
:102300008039AF002508A6002607B600A41F89293A
:102310008A298B293614360803198F299029A02978
:10232000360A031D942995299D290030A500003007
:10233000A4000030A3000030A200A417A501A82922
:102340000030A5000030A4000030A3000030A2003F
:1023500021088039A6002608AF062108A600260716
:10236000B700A01FB429B529B629371437080319B7
:10237000BA29BB29CB29370A031DBF29C029C8297F
:102380000030A1000030A00000309F0000309E000F
:10239000A017A101D3290030A1000030A000003017
:1023A0009F0000309E00210820041F041E04031D0E
:1023B000DA29DB29F4290030A5000030A400003020
:1023C000A3000030A2008030A4047F30A5042F08B1
:1023D000A6002608A5042508A1002408A0002308BB
:1023E0009F0022089E004F2B3608031DF829F9296B
:1023F000022A0030A1000030A00000309F00003011
:102400009E004F2B3608A600A7012708A900370811
:102410002602A800031CA90328087F3EB000290853
:102420000318013E003EB1002508AE002408AD00AF
:102430002308AC002208AB000030A5000030A40047
:102440000030A3000030A2000030B5000030B4001E
:102450000030B3000030B200B701782A3708031902
:10246000322A332A532A0130A6000310AB0DAC0DDB
:10247000AD0DAE0DA60B352A0130A6000310A20D3E
:10248000A30DA40DA50DA60B3E2AB51F482A492A67
:102490004A2A22140130A6000310B20DB30DB40D68
:1024A000B50DA60B4C2A21082E02031D612A200817
:1024B0002D02031D612A1F082C02031D612A1E081C
:1024C0002B02031C642A652A742A35171E08AB02E6
:1024D0001F08031C1F0FAC022008031C200FAD02B5
:1024E0002108031C210FAE020130A6002608B70701
:1024F0001A303702031C7D2A7E2A2E2A2E082D042C
:102500002C042B040319852A862AA52A3214A52A0D
:102510000130A6000310A20DA30DA40DA50DA60B5E
:102520008A2AB51F942A952A962A22140130A600D9
:102530000310B20DB30DB40DB50DA60B982AFF30E4
:10254000B0070318B10AFF30B107A41FA82AA92AAF
:10255000882AB701B51FAD2AAE2ACA2AFF30320534
:10256000A600FF303305A700FF303405A8007F30F8
:102570003505A90029082804270426040319C12ABF
:10258000C22AC52AB701B70ACA2A221CC82AC92AE0
:10259000CA2AC22A37080319CE2ACF2A002B0130B3
:1025A000A207003003180130A307003003180130E0
:1025B000A407003003180130A507251CE02AE12AF2
:1025C000002B2208A6002308A7002408A80025083D
:1025D000A9000130AA00290DA90CA80CA70CA60C73
:1025E000AA0BEB2A2908A5002808A4002708A300A5
:1025F0002608A2000130B0070318B10A0030B10765
:102600003108803AFF0080307F02031D092BFF3024
:102610003002031C0C2B0D2B1B2BFF3083160317D2
:10262000B0000030B1000030A5000030A400003040
:10263000A3000030A200831603173108803AFF0080
:1026400080307F02031D262B013030020318292B16
:102650002A2B372B83160317B001B1010030A500D8
:102660000030A4000030A3000030A200AF018316A8
:1026700003173008B600361C3E2B3F2B412BA41706
:10268000452B7F30A6002608A4053608A6000310B7
:10269000260CA5002F08A6002608A504EB29080093
:1026A0008312031357088039E4005708DC005C07E5
:1026B000E600D61F5C2B5D2B5E2B661466080319A3
:1026C000622B632B732B660A031D672B682B702B01
:1026D0000030D7000030D6000030D5000030D400E4
:1026E000D617D7017B2B0030D7000030D600003042
:1026F000D5000030D4005B088039E5006508640629
:102700000319832B842B852B64175B08DC005C0783
:10271000E500DA1F8C2B8D2B8E2B651465080319B1
:10272000922B932BA32B650A031D972B982BA02B81
:102730000030DB000030DA000030D9000030D80073
:10274000DA17DB01AB2B0030DB000030DA000030A1
:10275000D9000030D800660865020318B02BB12BF1
:10276000D72B641FB42BB52BB92B8030DC005C0851
:10277000E4066608E7006508E6006708E500540817
:10278000E7005808D4006708D8005508E700590842
:10279000D5006708D9005608E7005A08D600670830
:1027A000DA005708E7005B08D7006708DB00E7019D
:1027B0006508DC00DD015D08DF0066085C02DE0004
:1027C000031CDF035F08803AFF0080307F02031D97
:1027D000EB2B1A305E02031CEE2BEF2B262C831200
:1027E00003135708560455045404031DF82BFA2B01
:1027F0000130FB2B0030E7000030D7000030D6005E
:102800000030D5000030D4006508E6002E2C671C8F
:102810000A2C0B2C122C6708DC0003105C0C01380E
:10282000E700142C0310E70C541C172C182C192C3F
:10283000E7170130DC00570DD70CD60CD50CD40CA3
:10284000DC0B1B2C0130DC005C08E6078312031351
:1028500065086602031C2D2C2E2C072C641B312CC2
:10286000322C7B2C6608031D362C372C402C003074
:10287000D7000030D6000030D5000030D400A72D9E
:102880005808D407590803110318013E0319492CAD
:10289000D5075A0803110318013E0319502CD60717
:1028A0005B0803110318013E0319572CD707571C67
:1028B0005A2C5B2C2F2D671C5E2C5F2C662C670816
:1028C000DC0003105C0C0138E700682C0310E70CF7
:1028D000541C6B2C6C2C6D2CE7170130DC00570D51
:1028E000D70CD60CD50CD40CDC0B6F2C0130DC00D3
:1028F0005C08E6072F2D5708803AFF005B08803AF6
:102900007F02031D8D2C5A085602031D8D2C590879
:102910005502031D8D2C580854020318902C912C3D
:10292000E92CFF30DC00FF30DD00FF30DE00FF303F
:10293000DF005808E0005908E1005A08E2005B088F
:10294000E3005408E0025508031C550FA82CA92CDD
:10295000E1025608031C560FAE2CAF2CE2025708BA
:10296000031C570FB42CB52CE3026008DC07610888
:102970000318610FBC2CBD2CDD0762080318620F21
:10298000C22CC32CDE0763080318630ADF075F0845
:10299000D7005E08D6005D08D5005C08D400803002
:1029A000DC005C08E406E709E70A6708031DD92C88
:1029B000DA2CF72C0130D407003003180130D5078A
:1029C000003003180130D607003003180130D70754
:1029D000F72C5808D4025908031C590FD5025A087D
:1029E000031C5A0FD6025B08031C5B0FD702570863
:1029F000560455045404031DFE2CFF2C2B2D670890
:102A0000031D032D042D2B2D0030D7000030D600E0
:102A10000030D5000030D400A72D0130DC000310B9
:102A2000D40DD50DD60DD70DDC0B0F2DE71F192DAD
:102A30001A2D1B2D5414671C1E2D1F2D222D03141F
:102A4000E70D242D0310E70D66080319282D292D05
:102A50002B2D0130E602D61F2E2D2F2D0D2DE50139
:102A6000E71F332D342D422D67087F390319392D87
:102A70003A2D3D2DE501E50A422D541C402D412DF6
:102A8000422D3A2D65080319462D472D7B2D013027
:102A9000D407003003180130D50700300318013087
:102AA000D607003003180130D707571C582D592D71
:102AB0007B2D5408DC005508DD005608DE00570861
:102AC000DF000130E0005F0DDF0CDE0CDD0CDC0C04
:102AD000E00B632D5F08D7005E08D6005D08D500C7
:102AE0005C08D400660A0319762D772D7B2D013002
:102AF000DC005C08E607660A03197F2D802D852D12
:102B00006608031D842D852D932D0030D7000030DD
:102B1000D6000030D5000030D4006608031D912D8A
:102B2000922D932DE401661C962D972D992DD61785
:102B30009D2D7F30DC005C08D6056608DC000310A4
:102B40005C0CD700E41FA52DA62DA72DD7170800D4
:102B50008316031755088039E2005508DA005A0732
:102B6000E400D41FB42DB52DB62D641464080319E8
:102B7000BA2DBB2DCB2D640A031DBF2DC02DC82D32
:102B80000030D5000030D4000030D3000030D20037
:102B9000D417D501D32D0030D5000030D40000303B
:102BA000D3000030D20059088039E3006308620680
:102BB0000319DB2DDC2DDD2D62175908DA005A07C9
:102BC000E300D81FE42DE52DE62D631463080319F7
:102BD000EA2DEB2DFB2D630A031DEF2DF02DF82DB3
:102BE0000030D9000030D8000030D7000030D600C7
:102BF000D817D901032E0030D9000030D80000309A
:102C0000D7000030D600640863020318082E092E8E
:102C10002F2E621F0C2E0D2E112E8030DA005A0836
:102C2000E2066408E5006308E4006508E300520872
:102C3000E5005608D2006508D6005308E50057089D
:102C4000D3006508D7005408E5005808D40065088B
:102C5000D8005508E5005908D5006508D900E501F8
:102C60006308DA00DB015B08DD0064085A02DC005F
:102C7000031CDD035D08803AFF0080307F02031DE6
:102C8000432E1A305C02031C462E472E7E2E8316DE
:102C900003175508540453045204031D502E522E9A
:102CA0000130532E0030E5000030D5000030D40054
:102CB0000030D3000030D2006308E400862E651C8B
:102CC000622E632E6A2E6508DA0003105A0C013852
:102CD000E5006C2E0310E50C521C6F2E702E712E29
:102CE000E5170130DA00550DD50CD40CD30CD20CFD
:102CF000DA0B732E0130DA005A08E4078316031743
:102D000063086402031C852E862E5F2E621B892EAB
:102D10008A2ED32E6408031D8E2E8F2E982E0030FF
:102D2000D5000030D4000030D3000030D200FF2F97
:102D30005608D207570803110318013E0319A12EA4
:102D4000D307580803110318013E0319A82ED4070E
:102D5000590803110318013E0319AF2ED507551C5E
:102D6000B22EB32E872F651CB62EB72EBE2E650849
:102D7000DA0003105A0C0138E500C02E0310E50CF0
:102D8000521CC32EC42EC52EE5170130DA00550D96
:102D9000D50CD40CD30CD20CDA0BC72E0130DA00D0
:102DA0005A08E407872F5508803AFF005908803AEF
:102DB0007F02031DE52E58085402031DE52E570817
:102DC0005302031DE52E560852020318E82EE92E81
:102DD000412FFF30DA00FF30DB00FF30DC00FF3036
:102DE000DD005608DE005708DF005808E0005908EB
:102DF000E1005208DE025308031C530F002F012F7D
:102E0000DF025408031C540F062F072FE002550859
:102E1000031C550F0C2F0D2FE1025E08DA075F0827
:102E200003185F0F142F152FDB0760080318600FBE
:102E30001A2F1B2FDC0761080318610ADD075D08E4
:102E4000D5005C08D4005B08D3005A08D20080305B
:102E5000DA005A08E206E509E50A6508031D312F84
:102E6000322F4F2F0130D207003003180130D30723
:102E7000003003180130D407003003180130D507A3
:102E80004F2F5608D2025708031C570FD302580879
:102E9000031C580FD4025908031C590FD5025508BA
:102EA000540453045204031D562F572F832F6508D3
:102EB000031D5B2F5C2F832F0030D5000030D40022
:102EC0000030D3000030D200FF2F0130DA000310B1
:102ED000D20DD30DD40DD50DDA0B672FE51F712F51
:102EE000722F732F5214651C762F772F7A2F0314AD
:102EF000E50D7C2F0310E50D64080319802F812F49
:102F0000832F0130E402D41F862F872F652FE30122
:102F1000E51F8B2F8C2F9A2F65087F390319912F6E
:102F2000922F952FE301E30A9A2F521C982F992F85
:102F30009A2F922F630803199E2F9F2FD32F0130B2
:102F4000D207003003180130D307003003180130D6
:102F5000D407003003180130D507551CB02FB12F0E
:102F6000D32F5208DA005308DB005408DC00550860
:102F7000DD000130DE005D0DDD0CDC0CDB0CDA0C5D
:102F8000DE0BBB2F5D08D5005C08D4005B08D300C6
:102F90005A08D200640A0319CE2FCF2FD32F013045
:102FA000DA005A08E407640A0319D72FD82FDD2F57
:102FB0006408031DDC2FDD2FEB2F0030D50000301F
:102FC000D4000030D3000030D2006408031DE92F84
:102FD000EA2FEB2FE201641CEE2FEF2FF12FD41715
:102FE000F52F7F30DA005A08D4056408DA000310A0
:102FF0005A0CD500E21FFD2FFE2FFF2FD51708001A
:1032A000F000831603178C185629572951290C183A
:1032B0005A295B2951297008831203178D00831640
:1032C00003178C130C14831203170C080800F10069
:1032D000831603178C186D296E29682971088312CB
:1032E00003178D0070088C00831603178C130C15C0
:1032F00000308B1B0130F2008B1355308D00AA304B
:103300008D008C140C11720C031C8B1303188B177B
:103310000800F401F501701C8E298F299529720887
:10332000F4070318F50A7308F50701300310F20DCE
:10333000F30DFF3E031D962901300310F10CF00C34
:10334000FF3E031D9D2970087104031DA829A929AA
:103350008B297508F1007408F000080019308316F5
:10336000031399009A011815831603178711831206
:1033700003131816831603131812831203139817D6
:10338000831603139816831203131813831603135B
:103390009816831203130C12831603138C168312D0
:1033A00003138C120800F800F401F5017008F20014
:1033B000F3017208F6007308F700781CE029E12990
:1033C000E7297608F4070318F50A7708F5070130AE
:1033D0000310F60DF70DFF3E031DE8290310F80C4E
:1033E0007808031DF429F529DD297508F100740812
:1033F000F000080083160317980094019501100847
:10340000920093011208960013089700181C092ACD
:103410000A2A102A160894070318950A1708950710
:1034200001300310960D970DFF3E031D112A031066
:10343000980C1808031D1D2A1E2A062A150891003B
:10344000140890000800831603135803031D292A4B
:103450002A2A402A83120313071E2F2A302A382AC9
:1034600083120317380883120313810007125B2AA3
:1034700083120317380983120313810007165B2A8E
:1034800002305806031D452A462A5B2A831203137D
:10349000871E4B2A4C2A542A83120317370883129B
:1034A0000313810087125B2A8312031737098312E3
:1034B0000313810087160800031083160317680D95
:1034C000690DEF006F08031D662A672A702A003015
:1034D000E9000030E8000030E7000030E600D32AC1
:1034E0006608EA006708EB006808EC006908ED0070
:1034F0001F300310ED0CEC0CEB0CEA0CFF3E031D2F
:10350000792A6A08EE00E817FF30E605FF30E70584
:10351000FF30E8050030E9059630EF02EF1F912AF1
:10352000922AAC2A6F08803A973E0318982A992A63
:103530009A2A672A01300310E90CE80CE70CE60C24
:10354000FF3E031D9B2A0130EA006A08EF07031DB6
:10355000AA2AAB2A9A2AC32A20306F02031CB12A56
:10356000B22ABE2A672A0130EA000310E60DE70DF1
:10357000E80DE90DEA0BB52A0130EF026F08031DD3
:10358000C22AC32AB32A6E080319C72AC82AD32A13
:10359000E609E709E809E909E60A0319E70A031950
:1035A000E80A0319E90A08008312031794001308B4
:1035B00083160317A5008312031712088316031737
:1035C000A40083120317110883160317A3008312A4
:1035D0000317100883160317A2003730A1008630A6
:1035E000A00037309F00BD309E000A168A117D2151
:1035F0000A168A15831603172108E9002008E80037
:103600001F08E7001E08E6000A168A155C220A1643
:103610008A15831603176608831603139200831214
:1036200003171403031D152B162B262B83160313C8
:1036300007153F308312031397051708F0390D382B
:103640009700FF30950017129712362B02301406A0
:10365000031D2B2B2C2B362B8316031387140F30B3
:10366000831203139D049B011D129D1203138C10E2
:103670000330920412158C1C3E2B3F2B3B2B8C10DD
:10368000831203171403031D462B472B4B2B831662
:10369000031307114E2B8316031387100800023003
:1036A0008316031351065204031D572B582BCD2BA1
:1036B00083128C1E5C2B5D2B582B01308316031359
:1036C000D6070318D70A0030D7075608C73E84002C
:1036D000831203131A0883138000831603135608FA
:1036E000C73E84000008D03EC500FF3003180030FC
:1036F000C6005608CB3E84004508800002305606BE
:103700005704031D842B852BCD2BFF30D600FF30B3
:10371000D700013083120317B1000030B2008316C6
:1037200003134B08F600F7017608F0007708F10064
:103730006430F2000030F3000A168A1589210A1657
:103740008A157008F8007108F900831603134C08F5
:10375000FA00FB017A08F0007B08F1000A30F20061
:103760000030F3000A168A1589210A168A15700896
:103770007807FC0071080318710A7907FD008316A9
:1037800003134D087C07C9000030031801307D0782
:10379000CA0049088312031388000800031083122B
:1037A00003136A0D6B0D83160313A1002108031D7B
:1037B000DA2BDB2BE62B003083120313EB000030F7
:1037C000EA000030E9000030E8005B2C83120313AC
:1037D0006808EC006908ED006A08EE006B08EF006D
:1037E0001F300310EF0CEE0CED0CEC0CFF3E031D34
:1037F000F12B6C0883160313A00083120313EA173E
:10380000FF30E805FF30E905FF30EA050030EB0541
:10381000963083160313A102A11F0F2C102C2E2CFF
:103820002108803A973E0318162C172C182CDB2BF6
:103830000130031083120313EB0CEA0CE90CE80CC3
:10384000FF3E031D192C0130EC006C088316031396
:10385000A107031D2C2C2D2C182C492C20302102C3
:10386000031C332C342C442CDB2B01308312031328
:10387000EC000310E80DE90DEA0DEB0DEC0B392C13
:10388000013083160313A1022108031D482C492C83
:10389000352C200803194D2C4E2C5B2C831203135E
:1038A000E809E909EA09EB09E80A0319E90A031931
:1038B000EA0A0319EB0A080083160313B8002E0363
:1038C0002F04031D642C652C2C2E3808B000B10188
:1038D000B201B3013308F3003208F2003108F100FD
:1038E0003008F00001300A168A110B200A168A15DA
:1038F000730883120313C1007208C0007108BF006F
:103900007008BE003D30BD004030BC008330BB00BD
:103910001230BA000A128A1184230A168A158312F9
:1039200003133D08DB003C08DA003B08D9003A08E5
:10393000D8004030D700C030D6000030D50000306D
:10394000D4000A168A1150230A168A15831203130B
:103950005708EB005608EA005508E9005408E8004B
:103960000A168A15CE230A168A15831203136808CD
:1039700083120317B800831603133808B000B1018F
:10398000B201B3013308F3003208F2003108F1004C
:103990003008F00001300A168A110B200A168A1529
:1039A000730883120313C1007208C0007108BF00BE
:1039B0007008BE003D30BD004030BC008330BB000D
:1039C0001230BA000A128A1184230A168A15831249
:1039D00003133D08DB003C08DA003B08D9003A0835
:1039E000D8004030D700C030D6000030D5000030BD
:1039F000D4000A168A1150230A168A15831203135B
:103A00005708EB005608EA005508E9005408E8009A
:103A10000A168A15CE230A168A158312031368081C
:103A200083120317B700831603133808B000B101DF
:103A3000B201B3013308F3003208F2003108F1009B
:103A40003008F00001300A168A110B200A168A1578
:103A5000730883120313C1007208C0007108BF000D
:103A60007008BE003F30BD001930BC009930BB006B
:103A70009A30BA000A128A1184230A168A15831210
:103A800003133D08EB003C08EA003B08E9003A0854
:103A9000E8000A168A15CE230A168A158312031324
:103AA000690883160313D000831203136808831672
:103AB0000313CF00393083120313BD008330BC00E1
:103AC0001230BB006F30BA004330A3007F30A20039
:103AD0000030A1000030A000831603134F08F0004F
:103AE0005008F1000030F11BFF30F200F30001300C
:103AF0000A168A110B200A168A15730883120313FB
:103B0000A7007208A6007108A5007008A4000A1694
:103B10008A152D260A168A15831203132308C1005D
:103B20002208C0002108BF002008BE000A128A1126
:103B300084230A168A15831203133D088316031380
:103B4000B700831203133C0883160313B6008312D5
:103B500003133B0883160313B500831203133A08BB
:103B600083160313B4003708A5003608A4003508EF
:103B7000A3003408A20001300A128A1597200A1601
:103B80008A15393083120313BD008330BC00123014
:103B9000BB006F30BA004330A3007F30A20000307A
:103BA000A1000030A000831603133808B000B10153
:103BB000B201B3013308F3003208F2003108F1001A
:103BC0003008F00001300A168A110B200A168A15F7
:103BD000730883120313A7007208A6007108A500DA
:103BE0007008A4000A168A152D260A168A15831253
:103BF00003132308C1002208C0002108BF002008C9
:103C0000BE000A128A1184230A168A15831203132E
:103C10003D0883160313B700831203133C08831671
:103C20000313B600831203133B0883160313B50076
:103C3000831203133A0883160313B4003708A50050
:103C40003608A4003508A3003408A20002300A1286
:103C50008A1597200A168A1508008312031327086D
:103C60008039B1002708A8002807B800A61F392E00
:103C70003A2E3B2E3814380803193F2E402E502E72
:103C8000380A031D442E452E4D2E0030A70000306B
:103C9000A6000030A5000030A400A617A701582EEA
:103CA0000030A7000030A6000030A5000030A400BE
:103CB00023088039A8002808B1062308A80028078F
:103CC000B900A21F642E652E662E39143908031917
:103CD0006A2E6B2E7B2E390A031D6F2E702E782EC6
:103CE0000030A3000030A2000030A1000030A0008E
:103CF000A217A301832E0030A3000030A2000030E1
:103D0000A1000030A0002308220421042004031D88
:103D10008A2E8B2EA42E0030A7000030A600003083
:103D2000A5000030A4008030A6047F30A70431082D
:103D3000A8002808A7042708A3002608A200250831
:103D4000A1002408A000FF2F3808031DA82EA92ECB
:103D5000B22E0030A3000030A2000030A1000030DD
:103D6000A000FF2F3808A800A9012908AB003908D6
:103D70002802AA00031CAB032A087F3EB2002B08CE
:103D80000318013E003EB3002708B0002608AF002C
:103D90002508AE002408AD000030A7000030A600C2
:103DA0000030A5000030A4000030B7000030B6009D
:103DB0000030B5000030B400B901282F39080319CC
:103DC000E22EE32E032F0130A8000310AD0DAE0D3F
:103DD000AF0DB00DA80BE52E0130A8000310A40D07
:103DE000A50DA60DA70DA80BEE2EB71FF82EF92EC8
:103DF000FA2E24140130A8000310B40DB50DB60D31
:103E0000B70DA80BFC2E23083002031D112F22082A
:103E10002F02031D112F21082E02031D112F200830
:103E20002D02031C142F152F242F37172008AD0245
:103E30002108031C210FAE022208031C220FAF022F
:103E40002308031C230FB0020130A8002808B9077B
:103E50001A303902031C2D2F2E2FDE2E30082F048E
:103E60002E042D040319352F362F552F3414552FBA
:103E70000130A8000310A40DA50DA60DA70DA80BD9
:103E80003A2FB71F442F452F462F24140130A80086
:103E90000310B40DB50DB60DB70DA80B482FFF30AC
:103EA000B2070318B30AFF30B307A61F582F592FC4
:103EB000382FB901B71F5D2F5E2F7A2FFF303405E1
:103EC000A800FF303505A900FF303605AA007F3075
:103ED0003705AB002B082A04290428040319712F85
:103EE000722F752FB901B90A7A2F241C782F792FD8
:103EF0007A2F722F390803197E2F7F2FB02F0130B0
:103F0000A407003003180130A50700300318013062
:103F1000A607003003180130A707271C902F912F08
:103F2000B02F2408A8002508A9002608AA00270801
:103F3000AB000130AC002B0DAB0CAA0CA90CA80CEB
:103F4000AC0B9B2F2B08A7002A08A6002908A50068
:103F50002808A4000130B2070318B30A0030B307E1
:103F60003308803AFF0080307F02031DB92FFF30F5
:103F70003202031CBC2FBD2FCB2FFF308312031343
:103F8000B2000030B3000030A7000030A6000030BF
:103F9000A5000030A400831203133308803AFF0009
:103FA00080307F02031DD62F013032020318D92F33
:103FB000DA2FE72F83120313B201B3010030A700F9
:103FC0000030A6000030A5000030A400B10183122B
:103FD00003133208B800381CEE2FEF2FF12FA6176D
:103FE000F52F7F30A8002808A6053808A800031080
:103FF000280CA7003108A8002808A7049B2E080059
:08400000FF3FFF3FFF3FFF3FC0
:04400E00D420FF3F7C
:00000001FF
