:060000000A128A1110280B
:10000800FE00030E83160313B2000A08B3007F082C
:10001800B4000A128A15B72A0A128A1113288316FD
:1000280003130A128A11FB270A128A11D6008316B3
:100038000317DE01DF01E001E101E201E301E40170
:10004800E50183160313CE01CF01D001D101D201FE
:10005800D301D401D50183010A168A11DA2B83163C
:100068000317130880399800130883160313C70071
:100078004707831603179E00921F432844284528E4
:100088001E141E08031949284A2859281E0A031D48
:100098004E284F2857280030930000309200003037
:1000A80091000030900092176128003093000030D2
:1000B80092000030910000309000170880398316B4
:1000C8000313C700470883160317980617088316F3
:1000D8000313C7004707831603179900961F75284F
:1000E800762877281914190803197B287C288B2867
:1000F800190A031D802881288928003097000030BC
:100108009600003095000030940096179328003030
:1001180097000030960000309500003094001908D0
:100128000319972898289D281E08031D9C289D2898
:10013800A628003093000030920000309100003073
:100148009000632D100883160313B9008316031754
:1001580016080A128A11BC270A128A118316031379
:100168003A0883160317A400831603133908831665
:100178000317A300230883160313C700C801C90186
:10018800CA014A08831603179D00831603134908FA
:10019800831603179C008316031348088316031756
:1001A8009B00831603134708831603179A00240835
:1001B80083160313C700C801C901CA014A08831678
:1001C8000317A20083160313490883160317A10017
:1001D80083160313480883160317A0008316031316
:1001E8004708831603179F00110883160313B900E5
:1001F8008316031715080A128A11BC270A128A11D6
:10020800831603133A0883160317A40083160313EF
:10021800390883160317A300230883160313C7009E
:10022800C801C901CA014708831603179A0783162C
:100238000313480803110318013E031926298316DE
:1002480003179B0783160313490803110318013E7C
:1002580003193129831603179C07831603134A08C9
:1002680003110318013E03193C29831603179D0740
:100278008316031383160317240883160313C70072
:10028800C801C901CA014708831603179F078316C7
:100298000313480803110318013E0319562983164E
:1002A8000317A00783160313490803110318013E17
:1002B8000319612983160317A107831603134A0834
:1002C80003110318013E03196C2983160317A207AB
:1002D8008316031383160317120883160313B90032
:1002E8008316031714080A128A11BC270A128A11E6
:1002F800831603133A0883160317A40083160313FF
:10030800390883160317A300230883160313C700AD
:10031800C801C901CA014708831603179A0783163B
:100328000313480803110318013E03199E29831675
:1003380003179B0783160313490803110318013E8B
:100348000319A929831603179C07831603134A0860
:1003580003110318013E0319B429831603179D07D7
:100368008316031383160317240883160313C70081
:10037800C801C901CA014708831603179F078316D6
:100388000313480803110318013E0319CE298316E5
:100398000317A00783160313490803110318013E26
:1003A8000319D92983160317A107831603134A08CB
:1003B80003110318013E0319E42983160317A20742
:1003C8008316031383160317083083160313C70015
:1003D8000310831603179A0D9B0D9C0D9D0D831614
:1003E8000313C70BEC29831603171108831603138D
:1003F800B9008316031714080A128A11BC270A12B7
:100408008A11831603133A0883160317A400831668
:100418000313390883160317A3002308831603134D
:10042800C70083160317240883160313C800C901DD
:10043800CA014708831603179A0783160313480847
:1004480003110318013E03192C2A831603179B076F
:1004580083160313490803110318013E0319372AA9
:10046800831603179C07831603134A0803110318FE
:10047800013E0319422A831603179D0783160313A7
:1004880083160317100883160313B900831603177E
:1004980015080A128A11BC270A128A118316031337
:1004A8003A0883160317A400831603133908831622
:1004B8000317A300230883160313C7008316031723
:1004C800240883160313C800C901CA014708831604
:1004D80003179A0783160313480803110318013EEC
:1004E8000319792A831603179B07831603134908F0
:1004F80003110318013E0319842A831603179C0766
:10050800831603134A0803110318013E03198F2A9F
:10051800831603179D0783160313831603170830E2
:1005280083160313C7000310831603179A0D9B0D38
:100538009C0D9D0D83160313C70B972A831603176B
:10054800100883160313B9008316031714080A1238
:100558008A11BC270A128A11831603133A088316D4
:100568000317A40083160313390883160317A3007F
:10057800230883160313C70083160317240883165A
:100588000313C800C901CA014708831603179A074D
:1005980083160313480803110318013E0319D72AC9
:1005A800831603179B0783160313490803110318BF
:1005B800013E0319E22A831603179C0783160313C7
:1005C8004A0803110318013E0319ED2A831603177D
:1005D8009D07831603138316031711088316031345
:1005E800B9008316031716080A128A11BC270A12C3
:1005F8008A11831603133A0883160317A400831677
:100608000313390883160317A3002308831603135B
:10061800C70083160317240883160313C800C901EB
:10062800CA014708831603179F0783160313480850
:1006380003110318013E0319242B83160317A0077F
:1006480083160313490803110318013E03192F2BBE
:1006580083160317A107831603134A080311031807
:10066800013E03193A2B83160317A20783160313B7
:1006780083160317120883160313B900831603178A
:1006880015080A128A11BC270A128A118316031345
:100698003A0883160317A400831603133908831630
:1006A8000317A300230883160313C7008316031731
:1006B800240883160313C800C901CA014708831612
:1006C80003179F0783160313480803110318013EF5
:1006D8000319712B83160317A00783160313490800
:1006E80003110318013E03197C2B83160317A10776
:1006F800831603134A0803110318013E0319872BB5
:1007080083160317A2078316031383160317120809
:1007180083160313B9008316031716080A128A11E1
:10072800BC270A128A11831603133A088316031783
:10073800A40083160313390883160317A30023089C
:1007480083160313C700831603172408831603139D
:10075800C800C901CA0108300310C70DC80DC90D6A
:10076800CA0DFF3E031DB02B4708831603179F07CA
:1007780083160313480803110318013E0319C72BF6
:1007880083160317A00783160313490803110318D8
:10079800013E0319D22B83160317A10783160313EF
:1007A8004A0803110318013E0319DD2B83160317AA
:1007B800A20783160313831603171A088316031355
:1007C800C700831603171B0883160313C800831674
:1007D80003171C0883160313C900831603171D0883
:1007E80083160313CA0018300310CA0CC90CC80CAE
:1007F800C70CFF3E031DF82B4708831603179F07F6
:1008080083160313480803110318013E03190F2C1C
:1008180083160317A0078316031349080311031847
:10082800013E03191A2C83160317A1078316031315
:100838004A0803110318013E0319252C83160317D0
:10084800A2078316031383160317083083160313AE
:10085800C7000310831603179A0D9B0D9C0D9D0D61
:1008680083160313C70B2D2C831603171E081907AD
:1008780083160313C700C801C80D4708823E8316B4
:100888000317A3008316031348080318013EFF3E0D
:1008980083160317A4007D2C013083160313C700A9
:1008A8000310831603179F0DA00DA10DA20D83162B
:1008B8000313C70B542C831603179D1F642C652C38
:1008C800662C1F14013083160313C7000310831608
:1008D80003179A0D9B0D9C0D9D0D83160313C70BD3
:1008E8006A2CFF3083160317A3070318A40AFF30E6
:1008F800A407A11F802C812C502C99019D1F852CA9
:10090800862CB42CFF301A0583160313C700FF305A
:10091800831603171B0583160313C800FF308316BD
:1009280003171C0583160313C9007F3083160317AA
:100938001D0583160313CA004A08490448044704DE
:100948000319A72CA82CAD2C831603179901990A13
:10095800B42C831603171F1CB22CB32CB42CA82C50
:1009680019080319B82CB92C062D01309F0700303F
:1009780003180130A007003003180130A107003028
:1009880003180130A207221CCA2CCB2C062D1F08E5
:1009980083160313C700831603172008831603134F
:1009A800C80083160317210883160313C90083168A
:1009B8000317220883160313CA000130CB004A0D1F
:1009C800CA0CC90CC80CC70CCB0BE32C4A088316FD
:1009D8000317A20083160313490883160317A100FF
:1009E80083160313480883160317A00083160313FE
:1009F8004708831603179F000130A3070318A40AAA
:100A08000030A4072408803AFF0080307F02031DCD
:100A18000F2DFF302302031C122D132D1E2D7F30A6
:100A280083160317A2008030A1000030A000003018
:100A38009F00532D831603172408803AFF00803047
:100A48007F02031D292D0130230203182C2D2D2D83
:100A5800392D003083160317A2000030A1000030A2
:100A6800A00000309F009801532D83160317230818
:100A78009E00FF309F05FF30A0057F30A1050030A4
:100A8800A2051E1C482D492D4A2DA1171E088316A4
:100A98000313C7000310470C83160317A200180896
:100AA80083160313C700470883160317A2042208F6
:100AB800930021089200200891001F089000080068
:100AC8008312031357088039E4005708DC005C07D9
:100AD800E600D61F702D712D722D66146608031955
:100AE800762D772D872D660A031D7B2D7C2D842D71
:100AF8000030D7000030D6000030D5000030D400D8
:100B0800D617D7018F2D0030D7000030D60000301F
:100B1800D5000030D4005B088039E500650864061C
:100B28000319972D982D992D64175B08DC005C0735
:100B3800E500DA1FA02DA12DA22D65146508031963
:100B4800A62DA72DB72D650A031DAB2DAC2DB42DF1
:100B58000030DB000030DA000030D9000030D80067
:100B6800DA17DB01BF2D0030DB000030DA0000307F
:100B7800D9000030D800660865020318C42DC52DB9
:100B8800EB2D641FC82DC92DCD2D8030DC005C08ED
:100B9800E4066608E7006508E6006708E50054080B
:100BA800E7005808D4006708D8005508E700590836
:100BB800D5006708D9005608E7005A08D600670824
:100BC800DA005708E7005B08D7006708DB00E70191
:100BD8006508DC00DD015D08DF0066085C02DE00F8
:100BE800031CDF035F08803AFF0080307F02031D8B
:100BF800FF2D1A305E02031C022E032E3A2E83129A
:100C080003135708560455045404031D0C2E0E2EC6
:100C180001300F2E0030E7000030D7000030D6003A
:100C28000030D5000030D4006508E600422E671C6D
:100C38001E2E1F2E262E6708DC0003105C0C0138C0
:100C4800E700282E0310E70C541C2B2E2C2E2D2EDB
:100C5800E7170130DC00570DD70CD60CD50CD40C97
:100C6800DC0B2F2E0130DC005C08E607831203132F
:100C780065086602031C412E422E1B2E641B452E5E
:100C8800462E8F2E6608031D4A2E4B2E542E0030FA
:100C9800D7000030D6000030D5000030D400BB2F7C
:100CA8005808D407590803110318013E03195D2E8B
:100CB800D5075A0803110318013E0319642ED607F5
:100CC8005B0803110318013E03196B2ED707571C45
:100CD8006E2E6F2E432F671C722E732E7A2E670886
:100CE800DC0003105C0C0138E7007C2E0310E70CD5
:100CF800541C7F2E802E812EE7170130DC00570D03
:100D0800D70CD60CD50CD40CDC0B832E0130DC00B0
:100D18005C08E607432F5708803AFF005B08803AD3
:100D28007F02031DA12E5A085602031DA12E590841
:100D38005502031DA12E580854020318A42EA52EEF
:100D4800FD2EFF30DC00FF30DD00FF30DE00FF301D
:100D5800DF005808E0005908E1005A08E2005B0883
:100D6800E3005408E0025508031C550FBC2EBD2EA5
:100D7800E1025608031C560FC22EC32EE202570882
:100D8800031C570FC82EC92EE3026008DC07610850
:100D98000318610FD02ED12EDD0762080318620FE9
:100DA800D62ED72EDE0763080318630ADF075F080D
:100DB800D7005E08D6005D08D5005C08D4008030F6
:100DC800DC005C08E406E709E70A6708031DED2E66
:100DD800EE2E0B2F0130D407003003180130D50751
:100DE800003003180130D607003003180130D70748
:100DF8000B2F5808D4025908031C590FD5025A085A
:100E0800031C5A0FD6025B08031C5B0FD702570856
:100E1800560455045404031D122F132F3F2F67083F
:100E2800031D172F182F3F2F0030D7000030D60092
:100E38000030D5000030D400BB2F0130DC00031097
:100E4800D40DD50DD60DD70DDC0B232FE71F2D2F75
:100E58002E2F2F2F5414671C322F332F362F0314A5
:100E6800E70D382F0310E70D660803193C2F3D2FB7
:100E78003F2F0130E602D61F422F432F212FE501D5
:100E8800E71F472F482F562F67087F3903194D2F23
:100E98004E2F512FE501E50A562F541C542F552F7C
:100EA800562F4E2F650803195A2F5B2F8F2F0130AD
:100EB800D407003003180130D5070030031801307B
:100EC800D607003003180130D707571C6C2F6D2F39
:100ED8008F2F5408DC005508DD005608DE0057083F
:100EE800DF000130E0005F0DDF0CDE0CDD0CDC0CF8
:100EF800E00B772F5F08D7005E08D6005D08D500A5
:100F08005C08D400660A03198A2F8B2F8F2F0130B3
:100F1800DC005C08E607660A0319932F942F992FC3
:100F28006608031D982F992FA72F0030D70000308F
:100F3800D6000030D5000030D4006608031DA52F68
:100F4800A62FA72FE401661CAA2FAB2FAD2FD6170B
:100F5800B12F7F30DC005C08D6056608DC00031082
:100F68005C0CD700E41FB92FBA2FBB2FD717080086
:100F780083160313C100BD01BE013908BB00BC01C3
:100F88003B08BF003C08C000411CCB2FCC2FD22F00
:100F98003F08BD070318BE0A4008BE07013003100A
:100FA800BF0DC00DFF3E031DD32F0310C10C410818
:100FB800031DDF2FE02FC82F3E08BA003D08B900F7
:100FC800080083120313071EEA2FEB2FF32F831653
:100FD800031767088312031381000712FA2F831679
:100FE80003176709831203138100071608000134E9
:10100600F800F401F5017008F200F3017208F60029
:101016007308F700781C1028112817287608F4079B
:101026000318F50A7708F50701300310F60DF70DDA
:10103600FF3E031D18280310F80C7808031D24280A
:1010460025280D287508F1007408F000080083169D
:101056000313C10041080319312832284628BC1F52
:101066003528362846283909C3003A09C4003B0901
:10107600C5003C09C600C30A0319C40A0319C50AF8
:101086000319C60A4E283C08C6003B08C5003A08A4
:10109600C4003908C3003C083B043A043904031D64
:1010A600552856285F280030BC000030BB000030B1
:1010B600BA000030B900E3289630C2006F2801302C
:1010C600BD003D08C20701300310C60CC50CC40C98
:1010D600C30CFF3E031D6728FE304605031D74281A
:1010E6007528622891280130BD003D08C2070130ED
:1010F600C307003003180130C4070030031801305D
:10110600C507003003180130C60701300310C60CAE
:10111600C50CC40CC30CFF3E031D8928FF304605D1
:10112600031D962897287628A3280130C20201308D
:10113600BD000310C30DC40DC50DC60DBD0B9C2807
:10114600C51BA628A728AD28023042020318AC28E2
:10115600AD2898284218B028B128B928FF30C30511
:10116600FF30C4057F30C505FF30C6050310C20C2D
:101176004208BD00BE01BF01C00118300310BD0DFD
:10118600BE0DBF0DC00DFF3E031DC1283D08C304A3
:101196003E08C4043F08C5044008C60441080319B4
:1011A600D528D628DB28BC1FD928DA28DB28C6177D
:1011B6004608BC004508BB004408BA004308B9000D
:1011C6000800831603172C088039B6002C08AD00DA
:1011D6002D07BD00AB1FF028F128F2283D143D086D
:1011E6000319F628F72807293D0A031DFB28FC28C2
:1011F60004290030AC000030AB000030AA000030FB
:10120600A900AB17AC010F290030AC000030AB00D1
:101216000030AA000030A90028088039AD002D084A
:10122600B6062808AD002D07BE00A71F1B291C29DE
:101236001D293E143E0803192129222932293E0A76
:10124600031D262927292F290030A8000030A700D2
:101256000030A6000030A500A717A8013A290030E3
:10126600A8000030A7000030A6000030A50028081E
:10127600270426042504031D412942295B29003041
:10128600AC000030AB000030AA000030A90080306E
:10129600AB047F30AC043608AD002D08AC042C0836
:1012A600A8002B08A7002A08A6002908A500B62A28
:1012B6003D08031D5F29602969290030A800003018
:1012C600A7000030A6000030A500B62A3D08AD00F4
:1012D600AE012E08B0003E082D02AF00031CB0037D
:1012E6002F087F3EB70030080318013E003EB800C5
:1012F6002C08B5002B08B4002A08B3002908B20050
:101306000030AC000030AB000030AA000030A9006D
:101316000030BC000030BB000030BA000030B9001D
:10132600BE01DF293E08031999299A29BA290130F5
:10133600AD000310B20DB30DB40DB50DAD0B9C2968
:101346000130AD000310A90DAA0DAB0DAC0DAD0B10
:10135600A529BC1FAF29B029B12929140130AD0038
:101366000310B90DBA0DBB0DBC0DAD0BB329280882
:101376003502031DC82927083402031DC82926087B
:101386003302031DC82925083202031CCB29CC29A8
:10139600DB293C172508B2022608031C260FB302D8
:1013A6002708031C270FB4022808031C280FB502C0
:1013B6000130AD002D08BE071A303E02031CE42999
:1013C600E529952935083404330432040319EC2938
:1013D600ED290C2A39140C2A0130AD000310A90D91
:1013E600AA0DAB0DAC0DAD0BF129BC1FFB29FC29D9
:1013F600FD2929140130AD000310B90DBA0DBB0D3E
:10140600BC0DAD0BFF29FF30B7070318B80AFF3034
:10141600B807AB1F0F2A102AEF29BE01BC1F142ADA
:10142600152A312AFF303905AD00FF303A05AE00E6
:10143600FF303B05AF007F303C05B00030082F047D
:101446002E042D040319282A292A2C2ABE01BE0A95
:10145600312A291C2F2A302A312A292A3E08031923
:10146600352A362A672A0130A907003003180130C9
:10147600AA07003003180130AB070030031801300B
:10148600AC072C1C472A482A672A2908AD002A08D7
:10149600AE002B08AF002C08B0000130B100300DB3
:1014A600B00CAF0CAE0CAD0CB10B522A3008AC0030
:1014B6002F08AB002E08AA002D08A9000130B70797
:1014C6000318B80A0030B8073808803AFF008030A1
:1014D6007F02031D702AFF303702031C732A742A09
:1014E600822AFF3083160317B7000030B800003099
:1014F600AC000030AB000030AA000030A900831613
:1015060003173808803AFF0080307F02031D8D2ABA
:10151600013037020318902A912A9E2A8316031750
:10152600B701B8010030AC000030AB000030AA00B3
:101536000030A900B601831603173708BD003D1C0D
:10154600A52AA62AA82AAB17AC2A7F30AD002D08FB
:10155600AB053D08AD0003102D0CAC003608AD0000
:101566002D08AC04522908000B1DBA2ABB2AC12A31
:101576000A128A11E5270A128A150B110B1CC42AB6
:10158600C52AC62A0B10831203130C1FCB2ACC2A9A
:10159600B02C1F0C83160313AE002E0C0F39003A25
:1015A600031DD62AD72AD82AAD2C831203131F0C63
:1015B60083160313AE002E0C0F39043A031DE42ADA
:1015C600E52A462C831203131E0883160313AE0066
:1015D600AF01B001B1013108F3003008F2002F0865
:1015E600F1002E08F00001300A168A111C220A1298
:1015F6008A15730883120313C1007208C0007108AC
:10160600BF007008BE003E30BD00BD30BC0070306B
:10161600BB00A430BA000A128A15BB240A128A1526
:10162600831203133D08EB003C08EA003B08E9007F
:101636003A08E8000A168A1172200A128A158312DD
:101646000313690883160313D10083120313680872
:1016560083160313D000831203131E088316031385
:10166600AE00AF01B001B1013108F3003008F2005D
:101676002F08F1002E08F00001300A168A111C22EC
:101686000A128A15730883120313C1007208C00078
:101696007108BF007008BE003E30BD00BD30BC0002
:1016A6007030BB00A430BA000A128A15BB240A1295
:1016B6008A15831203133D08EB003C08EA003B0839
:1016C600E9003A08E8000A168A1172200A128A15F9
:1016D60083120313690883160313D30083120313BB
:1016E600680883160313D200393083120313BD0032
:1016F600B730BC008030BB003430BA004330A300A2
:101706007F30A2000030A1000030A0008316031332
:101716005008F0005108F1000030F11BFF30F200D4
:10172600F30001300A168A111C220A128A15730860
:1017360083120313A7007208A6007108A50070089B
:10174600A4000A168A112D260A128A15831203137B
:101756002308C1002208C0002108BF002008BE00DF
:101766000A128A15BB240A128A15831203133D082E
:1017760083160313B800831203133C08831603135E
:10178600B700831203133B0883160313B6008312B4
:1017960003133A0883160313B5003808A500370863
:1017A600A4003608A3003508A20002300A168A11E2
:1017B600FF240A128A15393083120313BD00B7308D
:1017C600BC008030BB003430BA004330A3007F3009
:1017D600A2000030A1000030A000831603135208B7
:1017E600F0005308F1000030F11BFF30F200F30067
:1017F60001300A168A111C220A128A1573088312EE
:101806000313A7007208A6007108A5007008A400BB
:101816000A168A112D260A128A1583120313230823
:10182600C1002208C0002108BF002008BE000A121D
:101836008A15BB240A128A15831203133D088316E0
:101846000313B800831203133C0883160313B7006F
:10185600831203133B0883160313B6008312031384
:101866003A0883160313B5003808A5003708A40004
:101876003608A3003508A20001300A168A11FF2493
:101886000A128A15AD2C831203131F0C8316031339
:10189600AE002E0C0F39023A031D522C532CAD2CE0
:1018A600831203131E0883160313AE00AF01B001A3
:1018B600B1013108F3003008F2002F08F1002E08BC
:1018C600F00001300A168A111C220A128A157308C2
:1018D60083120313C1007208C0007108BF007008AC
:1018E600BE003D30BD009030BC009030BB00913052
:1018F600BA000A128A15BB240A128A158312031328
:101906003D08DB003C08DA003B08D9003A08D8005D
:101916004130D7006030D6000030D5000030D4000A
:101926000A128A1164250A128A15831203135708AC
:10193600EB005608EA005508E9005408E8000A16C4
:101946008A1172200A128A158312031368088316F5
:101956000317E700831203130C13831603133408CB
:10196600FF0033088A00320E8300FE0E7E0E090049
:10197600831203133D088039C7003D08C2004207A1
:10198600CD00BC1FC72CC82CC92C4D144D080319FB
:10199600CD2CCE2CDD2C4D0A031DD22CD32CDB2CCA
:1019A6000030BD000030BC000030BB000030BA0083
:1019B600BC17E52C0030BD000030BC000030BB0079
:1019C6000030BA0041088039C2004208C706410803
:1019D600C2004207CC00C01FF12CF22CF32C4C1491
:1019E6004C080319F72CF82C072D4C0A031DFC2C68
:1019F600FD2C052D0030C1000030C0000030BF00B6
:101A06000030BE00C0170F2D0030C1000030C000EE
:101A16000030BF000030BE004C080319132D142DF2
:101A2600192D4D08031D182D192D222D0030BD002E
:101A36000030BC000030BB000030BA00FF2F3A086F
:101A4600F00040080A128A1503200A128A15710846
:101A560083120313D3007008D2005208C200C301D8
:101A6600C401C5014508CB004408CA004308C900A3
:101A76004208C8005308C200C301C401C501450895
:101A8600D1004408D0004308CF004208CE003B08EE
:101A9600F0003F080A128A1503200A128A157108F7
:101AA60083120313D3007008D2005208C200C30188
:101AB600C401C5014208C807430803110318013EC3
:101AC6000319662DC907440803110318013E0319BB
:101AD6006D2DCA07450803110318013E0319742D1D
:101AE600CB075308C200C301C401C5014208CE0793
:101AF600430803110318013E0319822DCF0744083A
:101B060003110318013E0319892DD0074508031157
:101B16000318013E0319902DD1073C08F0003E083A
:101B26000A128A1503200A128A15710883120313F2
:101B3600D3007008D2005208C200C301C401C50117
:101B46004208C807430803110318013E0319AC2DC8
:101B5600C907440803110318013E0319B32DCA0728
:101B6600450803110318013E0319BA2DCB07530884
:101B7600C200C301C401C5014208CE0743080311D0
:101B86000318013E0319C82DCF0744080311031893
:101B9600013E0319CF2DD007450803110318013E56
:101BA6000319D62DD1070830C2000310C80DC90D80
:101BB600CA0DCB0DC20BD82D3B08F0003E080A1209
:101BC6008A1503200A128A15710883120313D3009B
:101BD6007008D2005208C2005308C300C401C501F0
:101BE6004208C807430803110318013E0319FC2DD8
:101BF600C907440803110318013E0319032ECA0737
:101C0600450803110318013E03190A2ECB073A08AB
:101C1600F0003F080A128A1503200A128A15710875
:101C260083120313D3007008D2005208C20053086F
:101C3600C300C401C5014208C807430803110318BD
:101C4600013E0319272EC907440803110318013E54
:101C560003192E2ECA07450803110318013E03195E
:101C6600352ECB070830C2000310C80DC90DCA0DAA
:101C7600CB0DC20B372E3A08F0003E080A128A1521
:101C860003200A128A15710883120313D300700801
:101C9600D2005208C2005308C300C401C50142085D
:101CA600C807430803110318013E03195B2EC90731
:101CB600440803110318013E0319622ECA0745089A
:101CC60003110318013E0319692ECB073B08F000E8
:101CD60040080A128A1503200A128A15710883120F
:101CE6000313D3007008D2005208C2005308C30081
:101CF600C401C5014208CE07430803110318013E7B
:101D06000319862ECF07440803110318013E031951
:101D16008D2ED007450803110318013E0319942E92
:101D2600D1073C08F0003F080A128A1503200A1260
:101D36008A15710883120313D3007008D200520863
:101D4600C2005308C300C401C5014208CE074308B8
:101D560003110318013E0319B12ECF0744080311DE
:101D66000318013E0319B82ED007450803110318BE
:101D7600013E0319BF2ED1073C08F00040080A12A5
:101D86008A1503200A128A15710883120313D300D9
:101D96007008D2005208C2005308C300C401C5012E
:101DA60008300310C20DC30DC40DC50DFF3E031D43
:101DB600D42E4208CE07430803110318013E031927
:101DC600E52ECF07440803110318013E0319EC2E34
:101DD600D007450803110318013E0319F32ED10756
:101DE6004808C2004908C3004A08C4004B08C50099
:101DF60018300310C50CC40CC30CC20CFF3E031DE7
:101E0600FC2E4208CE07430803110318013E0319AE
:101E16000D2FCF07440803110318013E0319142F91
:101E2600D007450803110318013E03191B2FD107DC
:101E36000830C2000310C80DC90DCA0DCB0DC20B68
:101E46001D2F4D084C07C200C301C30D4208823E38
:101E5600D20043080318013EFF3ED3004F2F013046
:101E6600C2000310CE0DCF0DD00DD10DC20B342FF5
:101E7600CB1F3E2F3F2F402F4E140130C2000310C0
:101E8600C80DC90DCA0DCB0DC20B422FFF30D207AC
:101E96000318D30AFF30D307D01F522F532F322FE8
:101EA600CC01CB1F572F582F742FFF304805C20087
:101EB600FF304905C300FF304A05C4007F304B059B
:101EC600C500450844044304420403196B2F6C2FD4
:101ED6006F2FCC01CC0A742F4E1C722F732F742FC8
:101EE6006C2F4C080319782F792FAA2F0130CE07B3
:101EF600003003180130CF07003003180130D00737
:101F0600003003180130D107511C8A2F8B2FAA2FBE
:101F16004E08C2004F08C3005008C4005108C5004F
:101F26000130C600450DC50CC40CC30CC20CC60B53
:101F3600952F4508D1004408D0004308CF00420839
:101F4600CE000130D2070318D30A0030D307530856
:101F5600803AFF0080307F02031DB32FFF3052020C
:101F6600031CB62FB72FC22F7F3083120313D10065
:101F76008030D0000030CF000030CE00F32F831227
:101F860003135308803AFF0080307F02031DCD2FD4
:101F9600013052020318D02FD12FDD2F00308312CB
:101FA6000313D1000030D0000030CF000030CE0047
:101FB600C701F32F831203135208CD00FF30CE055D
:101FC600FF30CF057F30D0050030D1054D1CEC2FFA
:101FD600ED2FEE2FD0174D08C2000310420CD10092
:101FE6004708C2004208D1045108BD005008BC0091
:0A1FF6004F08BB004E08BA000800B7
:1020080083160317CB004A08AC004908AB00480800
:10201800AA004708A9003730A8008630A700373043
:10202800A600BD30A5000A128A15E4200A168A11F6
:10203800831603172808C2002708C1002608C00015
:102048002508BF000A168A1100210A168A1183166C
:1020580003173F08831603139200831603174B03D5
:10206800031D3728382848288316031307153F30DF
:102078008312031397051708F0390D389700FF30BE
:10208800950017129712582802304B06031D4D2849
:102098004E2858288316031387140F30831203130E
:1020A8009D049B011D129D12831203138C10033093
:1020B800920412158C1C612862285E288C108316E5
:1020C80003174B03031D69286A286E288316031318
:1020D8000711712883160313871008000310831251
:1020E80003136A0D6B0D83160313A1002108031D4A
:1020F8007E287F288A28003083120313EB000030E3
:10210800EA000030E9000030E800FF2883120313DA
:102118006808EC006908ED006A08EE006B08EF003B
:102128001F300310EF0CEE0CED0CEC0CFF3E031D02
:1021380095286C0883160313A00083120313EA176B
:10214800FF30E805FF30E905FF30EA050030EB0510
:10215800963083160313A102A11FB328B428D228EE
:102168002108803A973E0318BA28BB28BC287F2844
:102178000130031083120313EB0CEA0CE90CE80C92
:10218800FF3E031DBD280130EC006C0883160313C5
:10219800A107031DD028D128BC28ED282030210212
:1021A800031CD728D828E8287F2801308312031376
:1021B800EC000310E80DE90DEA0DEB0DEC0BDD2842
:1021C800013083160313A1022108031DEC28ED2812
:1021D800D92820080319F128F228FF2883120313AD
:1021E800E809E909EA09EB09E80A0319E90A031900
:1021F800EA0A0319EB0A0800031083160317410DB6
:10220800420D83160313CD004D08031D0C290D291B
:102218001829003083160317C2000030C1000030AF
:10222800C0000030BF008D29831603173F08C30084
:102238004008C4004108C5004208C6001F3003100A
:10224800C60CC50CC40CC30CFF3E031D2329430850
:1022580083160313CC0083160317C117FF30BF057D
:10226800FF30C005FF30C1050030C2059630831627
:102278000313CD02CD1F4129422960294D08803A18
:10228800973E0318482949294A290D290130031086
:1022980083160317C20CC10CC00CBF0CFF3E031DF4
:1022A8004B290130C300430883160313CD07031DD0
:1022B8005E295F294A297B2920304D02031C6529A4
:1022C800662976290D29013083160317C3000310E8
:1022D800BF0DC00DC10DC20DC30B6B290130831694
:1022E8000313CD024D08031D7A297B2967294C0861
:1022F80003197F2980298D2983160317BF09C0096F
:10230800C109C209BF0A0319C00A0319C10A03197E
:10231800C20A08008316031708140815081689014D
:102328000F30831603138600870188018901831201
:102338000313850186018701880189018316031328
:1023480081137F3096000F088F3960388F000F1483
:102358008112811101158110011483120313810167
:102368000B108B150B118B160C130B1783160313FD
:102378000C178B17831203139F14C3309F05831602
:1023880003131F129F12831203131F083F3980384B
:102398009F00831603139F13831203131F14C73060
:1023A80083160317D300D829D30BD729DB293C3050
:1023B80083160317CA00A330C900D730C8000A30F3
:1023C800C70001300A168A1104200A168A1139300A
:1023D80083160317CA00B730C9008030C8003430EC
:1023E800C70001300A168A11D4220A168A113C3015
:1023F80083160317CA00A330C900D730C8000A30B3
:10240800C70002300A168A1104200A168A113930C8
:1024180083160317CA00B730C9008030C8003430AB
:10242800C70002300A168A11D4220A168A11080037
:10243800F80078080319212A222A362AF31F252AA8
:10244800262A362A7009FA007109FB007209FC0075
:102458007309FD00FA0A0319FB0A0319FC0A031998
:10246800FD0A3E2A7308FD007208FC007108FB0093
:102478007008FA007308720471047004031D452A79
:10248800462A4F2A0030F3000030F2000030F100F5
:102498000030F000D32A9630F9005F2A0130F400AA
:1024A8007408F90701300310FD0CFC0CFB0CFA0C46
:1024B800FF3E031D572AFE307D05031D642A652A49
:1024C800522A812A0130F4007408F9070130FA070A
:1024D800003003180130FB07003003180130FC07F7
:1024E800003003180130FD0701300310FD0CFC0C0F
:1024F800FB0CFA0CFF3E031D792AFF307D05031DF6
:10250800862A872A662A932A0130F9020130F400C4
:102518000310FA0DFB0DFC0DFD0DF40B8C2AFC1BB2
:10252800962A972A9D2A0230790203189C2A9D2A06
:10253800882A7918A02AA12AA92AFF30FA05FF308B
:10254800FB057F30FC05FF30FD050310F90C790809
:10255800F400F501F601F70118300310F40DF50D3C
:10256800F60DF70DFF3E031DB12A7408FA0475082D
:10257800FB047608FC047708FD0478080319C52ACB
:10258800C62ACB2AF31FC92ACA2ACB2AFD177D08D7
:10259800F3007C08F2007B08F1007A08F0000800DC
:1025A80083160317CE004E03031DDB2ADC2A592BA2
:1025B8004A0897004908960048089500470894007B
:1025C800403093008030920000309100003090003D
:1025D8000A128A1133200A168A1183160317130860
:1025E800AC001208AB001108AA001008A900363088
:1025F800A8008630A7003730A600BD30A5000A1213
:102608008A15E4200A168A11831603172808C200BF
:102618002708C1002608C0002508BF000A168A112D
:1026280000210A168A11831603174008D0003F08B4
:10263800CF005008CC004F08CB004C0DCC0CCB0C75
:102648004C0DCC0CCB0C4B08A23EFF3A013E83123A
:1026580003139500831603174F080139CB00CB0EDF
:10266800831203131708831603174B06EF394B061B
:10267800831203139700831603175008CC004F08E2
:10268800CB004C0DCC0CCB0C4B080139CD00CD0E3A
:10269800CD0D831203131708831603174D06DF3970
:1026A8004D06831203139700D92B02304E06031DE3
:1026B8005E2B5F2BD92B4A089700490896004808DB
:1026C8009500470894004030930080309200003015
:1026D8009100003090000A128A1133200A168A11DC
:1026E800831603171308AC001208AB001108AA00E0
:1026F8001008A9003630A8008630A7003730A60099
:10270800BD30A5000A128A15E4200A168A1183161C
:1027180003172808C2002708C1002608C00025089A
:10272800BF000A168A1100210A168A118316031798
:102738004008D2003F08D1005208CC005108CB0015
:102748004C0DCC0CCB0C4C0DCC0CCB0C4B085E3E82
:10275800831203139B008316031751080139CB001A
:10276800CB0E831203131D08831603174B06EF398C
:102778004B06831203139D00831603175208CC00DF
:102788005108CB004C0DCC0CCB0C4B080139CD00BB
:10279800CD0ECD0D831203131D08831603174D06A6
:1027A800DF394D06831203139D0008000E3083168F
:1027B8000317DC000030DD002030DA000030DB00D9
:1027C8000E30E7000E30E6000A168A118E210A162E
:1027D8008A11831203139F14831603175D08803A26
:1027E800803C031DF92B5C086702031CFC2BFD2BA6
:1027F800072C831603176708D400D5015408D600A0
:102808005508D7000D2C831603175D08D7005C0800
:10281800D6005608E7005B08803AD400803054029E
:10282800031D182C67085A02031C1B2C1C2C262C71
:10283800831603176708D400D5015408D800550833
:10284800D9002C2C831603175B08D9005A08D80026
:102858005808E7004230A800C830A7000030A6009A
:102868000030A5003E309300C8309200C830910077
:10287800C9309000640883160313B9008316031740
:10288800650883160313BA000030BA1BFF30BB007B
:10289800BC0001300A128A152A200A168A118316EA
:1028A80003133C08831603179700831603133B088A
:1028B800831603179600831603133A088316031723
:1028C80095008316031339088316031794000A1218
:1028D8008A1133200A168A11831603171308AC00CD
:1028E8001208AB001108AA001008A9000A128A15DC
:1028F800E4200A168A11831603172808E30027081C
:10290800E2002608E1002508E00063089700620855
:102918009600610895006008940033309300D63023
:102928009200BF309100953090000A128A1133202E
:102938000A168A11831603171308C2001208C10069
:102948001108C0001008BF000A168A1100210A16D3
:102958008A11831603174008DF003F08DE00831240
:1029680003139F18B82CB92CF02B1F0C83160317D0
:10297800D400540C0F39003A031DC32CC42CCB2CA3
:10298800831203131F08C33910389F00F02C8312D9
:1029980003131F0C83160317D400540C0F39043A81
:1029A800031DD72CD82CDF2C831203131F08C3391F
:1029B80008389F00F02C831203131F0C831603178B
:1029C800D400540C0F39023A031DEB2CEC2CF02CDC
:1029D800C330831203139F05C73083160317D4002F
:1029E800F52CD40BF42CF82C831203139F14F02B22
:1029F8000A128A11102883160313A9002903031D3C
:102A0800062D072D982D250883120313C100831660
:102A18000313240883120313C00083160313230827
:102A280083120313BF0083160313220883120313B0
:102A3800BE004030BD008030BC000030BB0000301C
:102A4800BA000A128A15BB240A168A1183120313C4
:102A58003D08A7003C08A6003B08A5003A08A400CA
:102A68003630A3008630A2003730A100BD30A00068
:102A78000A168A112D260A168A11831203132308AF
:102A8800EB002208EA002108E9002008E8000A16FD
:102A98008A1172200A168A11831203136908831691
:102AA8000313AB0083120313680883160313AA00E9
:102AB8002B08A7002A08A600270DA70CA60C270D8F
:102AC800A70CA60C2608A23EFF3A013E8312031368
:102AD8009500831603132A080139A600A60E83124F
:102AE80003131708831603132606EF3926068312E5
:102AF80003139700831603132B08A7002A08A600C0
:102B0800270DA70CA60C26080139A800A80EA80DA9
:102B1800831203131708831603132806DF392806C0
:102B28008312031397002C2E02302906031D9D2DB6
:102B38009E2D2C2E250883120313C1008316031320
:102B4800240883120313C000831603132308831277
:102B58000313BF0083160313220883120313BE0056
:102B68004030BD008030BC000030BB000030BA00EF
:102B78000A128A15BB240A168A11831203133D0808
:102B8800A7003C08A6003B08A5003A08A400363078
:102B9800A3008630A2003730A100BD30A0000A167D
:102BA8008A112D260A168A11831203132308EB00B3
:102BB8002208EA002108E9002008E8000A168A111C
:102BC80072200A168A1183120313690883160313E5
:102BD800AD0083120313680883160313AC002D0895
:102BE800A7002C08A600270DA70CA60C270DA70CDC
:102BF800A60C26085E3E831203139B00831603135C
:102C08002C080139A600A60E831203131D0883168B
:102C180003132606EF392606831203139D00831635
:102C280003132D08A7002C08A600270DA70CA60C37
:102C380026080139A800A80EA80D831203131D0841
:102C4800831603132806DF392806831203139D0011
:102C580008008312031327088039B1002708A80049
:102C68002807B800A61F392E3A2E3B2E38143808EC
:102C780003193F2E402E502E380A031D442E452E90
:102C88004D2E0030A7000030A6000030A50000300F
:102C9800A400A617A701582E0030A7000030A600F0
:102CA8000030A5000030A40023088039A8002808B7
:102CB800B1062308A8002807B900A21F642E652EB4
:102CC800662E3914390803196A2E6B2E7B2E390AA1
:102CD800031D6F2E702E782E0030A3000030A20046
:102CE8000030A1000030A000A217A301832E0030FD
:102CF800A3000030A2000030A1000030A00023088B
:102D0800220421042004031D8A2E8B2EA42E0030B9
:102D1800A7000030A6000030A5000030A4008030D5
:102D2800A6047F30A7043108A8002808A7042708AC
:102D3800A3002608A2002508A1002408A000FF2F50
:102D48003808031DA82EA92EB22E0030A30000308B
:102D5800A2000030A1000030A000FF2F3808A80012
:102D6800A9012908AB0039082802AA00031CAB03F3
:102D78002A087F3EB2002B080318013E003EB3002C
:102D88002708B0002608AF002508AE002408AD00CB
:102D98000030A7000030A6000030A5000030A400D5
:102DA8000030B7000030B6000030B5000030B40085
:102DB800B901282F39080319E22EE32E032F013019
:102DC800A8000310AD0DAE0DAF0DB00DA80BE52E8C
:102DD8000130A8000310A40DA50DA60DA70DA80B82
:102DE800EE2EB71FF82EF92EFA2E24140130A80063
:102DF8000310B40DB50DB60DB70DA80BFC2E2308A6
:102E08003002031D112F22082F02031D112F210844
:102E18002E02031D112F20082D02031C142F152F1D
:102E2800242F37172008AD022108031C210FAE02FA
:102E38002208031C220FAF022308031C230FB00231
:102E48000130A8002808B9071A303902031C2D2FB1
:102E58002E2FDE2E30082F042E042D040319352FB3
:102E6800362F552F3414552F0130A8000310A40D08
:102E7800A50DA60DA70DA80B3A2FB71F442F452F58
:102E8800462F24140130A8000310B40DB50DB60D5B
:102E9800B70DA80B482FFF30B2070318B30AFF304D
:102EA800B307A61F582F592F382FB901B71F5D2F09
:102EB8005E2F7A2FFF303405A800FF303505A900B2
:102EC800FF303605AA007F303705AB002B082A04EF
:102ED800290428040319712F722F752FB901B90A13
:102EE8007A2F241C782F792F7A2F722F39080319FB
:102EF8007E2F7F2FB02F0130A40700300318013038
:102F0800A507003003180130A60700300318013068
:102F1800A707271C902F912FB02F2408A800250859
:102F2800A9002608AA002708AB000130AC002B0D29
:102F3800AB0CAA0CA90CA80CAC0B9B2F2B08A70058
:102F48002A08A6002908A5002808A4000130B2070D
:102F58000318B30A0030B3073308803AFF00803003
:102F68007F02031DB92FFF303202031CBC2FBD2F77
:102F7800CB2FFF3083120313B2000030B3000030B0
:102F8800A7000030A6000030A5000030A40083127E
:102F980003133308803AFF0080307F02031DD62FC9
:102FA800013032020318D92FDA2FE72F83120313C7
:102FB800B201B3010030A7000030A6000030A50020
:102FC8000030A400B101831203133208B800381C82
:102FD800EE2FEF2FF12FA617F52F7F30A800280826
:102FE800A6053808A8000310280CA7003108A80077
:082FF8002808A7049B2E080025
:08400000FF3FFF3FFF3FFF3FC0
:04400E00D420FF3F7C
:00000001FF
