:060000000A128A11122809
:10000800FE00030E83160313BD000408BE000A0891
:10001800BF007F08C0000A128A15ED2C0A128A1147
:100028001528831603130A128A11FA270A128A114D
:10003800E0000A128A11FB270A128A11E1000A124B
:100048008A11FC270A128A11E20083160317E801B5
:10005800E9018313C5308400E0300A128A11F227BF
:100068000A128A1183010A168A11EE2A83160317C7
:100078001C088039A6001C08A1002107AC009B1FA2
:100088004628472848282C142C0803194C284D28A2
:100098005C282C0A031D512852285A2800309C003D
:1000A80000309B0000309A00003099009B176428AC
:1000B80000309C0000309B0000309A00003099000E
:1000C80020088039A1002108A6062008A1002107E0
:1000D800A7009F1F70287128722827142708031962
:1000E800762877288628270A031D7B287C288428D9
:1000F8000030A00000309F0000309E0000309D00BE
:100108009F178E280030A00000309F0000309E000E
:1001180000309D00270803199228932898282C0856
:10012800031D97289828A12800309C0000309B00C8
:1001380000309A00003099007E2B190890001F08A3
:100148000A168A15F2260A128A118316031711084D
:10015800B2001008B1003108A100A201A301A40156
:100168002408AB002308AA002208A9002108A80037
:100178003208A100A201A301A4012408B0002308A9
:10018800AF002208AE002108AD001A0890001E0832
:100198000A168A15F2260A128A11831603171108FD
:1001A800B2001008B1003108A100A201A301A40106
:1001B8002108A807220803110318013E0319E5289E
:1001C800A907230803110318013E0319EC28AA07FD
:1001D800240803110318013E0319F328AB0732085A
:1001E800A100A201A301A4012108AD07220803115F
:1001F8000318013E03190129AE0723080311031848
:10020800013E03190829AF07240803110318013E0A
:1002180003190F29B0071B0890001D080A168A1534
:10022800F2260A128A11831603171108B200100861
:10023800B1003108A100A201A301A4012108A80767
:10024800220803110318013E03192B29A9072308C3
:1002580003110318013E03193229AA0724080311C0
:100268000318013E03193929AB073208A100A2017E
:10027800A301A4012108AD07220803110318013EB8
:1002880003194729AE07230803110318013E031970
:100298004E29AF07240803110318013E03195529F5
:1002A800B0070830A1000310A80DA90DAA0DAB0DC9
:1002B800A10B57291A0890001D080A168A15F2265C
:1002C8000A128A11831603171108B2001008B10028
:1002D8003108A1003208A200A301A4012108A8073F
:1002E800220803110318013E03197B29A9072308D3
:1002F80003110318013E03198229AA0724080311D0
:100308000318013E03198929AB07190890001E0834
:100318000A168A15F2260A128A118316031711087B
:10032800B2001008B1003108A1003208A200A301F0
:10033800A4012108A807220803110318013E031984
:10034800A629A907230803110318013E0319AD299B
:10035800AA07240803110318013E0319B429AB079F
:100368000830A1000310A80DA90DAA0DAB0DA10B13
:10037800B629190890001D080A168A15F2260A12CD
:100388008A11831603171108B2001008B10031084A
:10039800A1003208A200A301A4012108A80722088D
:1003A80003110318013E0319DA29A90723080311C9
:1003B8000318013E0319E129AA07240803110318A9
:1003C800013E0319E829AB071A0890001F080A160E
:1003D8008A15F2260A128A11831603171108B20029
:1003E8001008B1003108A1003208A200A301A4013D
:1003F8002108AD07220803110318013E0319052A35
:10040800AE07230803110318013E03190C2AAF078E
:10041800240803110318013E0319132AB0071B0807
:1004280090001E080A168A15F2260A128A118316E7
:1004380003171108B2001008B1003108A1003208F2
:10044800A200A301A4012108AD0722080311031883
:10045800013E0319302AAE07230803110318013E91
:100468000319372AAF07240803110318013E03199B
:100478003E2AB0071B0890001F080A168A15F226A4
:100488000A128A11831603171108B2001008B10066
:100498003108A1003208A200A301A401083003100A
:1004A800A10DA20DA30DA40DFF3E031D532A210883
:1004B800AD07220803110318013E0319642AAE0789
:1004C800230803110318013E03196B2AAF072408F8
:1004D80003110318013E0319722AB0072808A10066
:1004E8002908A2002A08A3002B08A400183003102A
:1004F800A40CA30CA20CA10CFF3E031D7B2A21080F
:10050800AD07220803110318013E03198C2AAE0710
:10051800230803110318013E0319932AAF0724087F
:1005280003110318013E03199A2AB0070830A100E5
:100538000310A80DA90DAA0DAB0DA10B9C2A2C0820
:100548002707A100A201A20D2108823EB1002208BE
:100558000318013EFF3EB200CE2A0130A10003106D
:10056800AD0DAE0DAF0DB00DA10BB32AAB1FBD2A5B
:10057800BE2ABF2A2D140130A1000310A80DA90D11
:10058800AA0DAB0DA10BC12AFF30B1070318B20A9F
:10059800FF30B207AF1FD12AD22AB12AA701AB1F59
:1005A800D62AD72AF32AFF302805A100FF302905CB
:1005B800A200FF302A05A3007F302B05A4002408E1
:1005C8002304220421040319EA2AEB2AEE2AA701AC
:1005D800A70AF32A2D1CF12AF22AF32AEB2A270864
:1005E8000319F72AF82A292B0130AD070030031820
:1005F8000130AE07003003180130AF070030031890
:100608000130B007301C092B0A2B292B2D08A1001B
:100618002E08A2002F08A3003008A4000130A5006E
:10062800240DA40CA30CA20CA10CA50B142B2408BC
:10063800B0002308AF002208AE002108AD00013049
:10064800B1070318B20A0030B2073208803AFF0037
:1006580080307F02031D322BFF303102031C352B03
:10066800362B412B7F3083160317B0008030AF0044
:100678000030AE000030AD00722B8316031732082D
:10068800803AFF0080307F02031D4C2B013031027D
:1006980003184F2B502B5C2B003083160317B00028
:1006A8000030AF000030AE000030AD00A601722B64
:1006B800831603173108AC00FF30AD05FF30AE05D7
:1006C8007F30AF050030B0052C1C6B2B6C2B6D2BCD
:1006D800AF172C08A1000310210CB0002608A100B8
:1006E8002108B00430089C002F089B002E089A00AF
:1006F8002D0899000800831203133D088039C700AC
:100708003D08C2004207CD00BC1F8B2B8C2B8D2BC4
:100718004D144D080319912B922BA12B4D0A031D43
:10072800962B972B9F2B0030BD000030BC0000306B
:10073800BB000030BA00BC17A92B0030BD00003048
:10074800BC000030BB000030BA0041088039C2004C
:100758004208C7064108C2004207CC00C01FB52B9B
:10076800B62BB72B4C144C080319BB2BBC2BCB2B2B
:100778004C0A031DC02BC12BC92B0030C10000300F
:10078800C0000030BF000030BE00C017D32B0030BF
:10079800C1000030C0000030BF000030BE004C086F
:1007A8000319D72BD82BDD2B4D08031DDC2BDD2B94
:1007B800E62B0030BD000030BC000030BB0000302C
:1007C800BA00C32E3A08F00040080A168A15CB264C
:1007D8000A128A11710883120313D3007008D20019
:1007E8005208C200C301C401C5014508CB00440832
:1007F800CA004308C9004208C8005308C200C30120
:10080800C401C5014508D1004408D0004308CF0001
:100818004208CE003B08F0003F080A168A15CB268E
:100828000A128A11710883120313D3007008D200C8
:100838005208C200C301C401C5014208C8074308E1
:1008480003110318013E03192A2CC9074408031190
:100858000318013E0319312CCA0745080311031870
:10086800013E0319382CCB075308C200C301C40149
:10087800C5014208CE07430803110318013E0319B6
:10088800462CCF07440803110318013E03194D2CC9
:10089800D007450803110318013E0319542CD1074A
:1008A8003C08F0003E080A168A15CB260A128A115F
:1008B800710883120313D3007008D2005208C200D3
:1008C800C301C401C5014208C8074308031103183E
:1008D800013E0319702CC907440803110318013E8F
:1008E8000319772CCA07450803110318013E031999
:1008F8007E2CCB075308C200C301C401C5014208BE
:10090800CE07430803110318013E03198C2CCF07A7
:10091800440803110318013E0319932CD007450816
:1009280003110318013E03199A2CD1070830C2009D
:100938000310C80DC90DCA0DCB0DC20B9C2C3B086A
:10094800F0003E080A168A15CB260A128A11710889
:1009580083120313D3007008D2005208C200530850
:10096800C300C401C5014208C8074308031103189E
:10097800013E0319C02CC907440803110318013E9E
:100988000319C72CCA07450803110318013E0319A8
:10099800CE2CCB073A08F0003F080A168A15CB265A
:1009A8000A128A11710883120313D3007008D20047
:1009B8005208C2005308C300C401C5014208C80751
:1009C800430803110318013E0319EB2CC907440817
:1009D80003110318013E0319F22CCA074508031135
:1009E8000318013E0319F92CCB070830C200031085
:1009F800C80DC90DCA0DCB0DC20BFB2C3A08F0006F
:100A08003E080A168A15CB260A128A117108831223
:100A18000313D3007008D2005208C2005308C30061
:100A2800C401C5014208C807430803110318013E61
:100A380003191F2DC907440803110318013E0319A0
:100A4800262DCA07450803110318013E03192D2D49
:100A5800CB073B08F00040080A168A15CB260A1275
:100A68008A11710883120313D3007008D200520848
:100A7800C2005308C300C401C5014208CE07430899
:100A880003110318013E03194A2DCF074408031127
:100A98000318013E0319512DD00745080311031807
:100AA800013E0319582DD1073C08F0003F080A16EB
:100AB8008A15CB260A128A11710883120313D300F0
:100AC8007008D2005208C2005308C300C401C5010F
:100AD8004208CE07430803110318013E0319752D78
:100AE800CF07440803110318013E03197C2DD007D2
:100AF800450803110318013E0319832DD1073C084B
:100B0800F00040080A168A15CB260A128A117108C5
:100B180083120313D3007008D2005208C20053088E
:100B2800C300C401C50108300310C20DC30DC40DB4
:100B3800C50DFF3E031D982D4208CE07430803113B
:100B48000318013E0319A92DCF0744080311031800
:100B5800013E0319B02DD007450803110318013EC3
:100B68000319B72DD1074808C2004908C3004A082D
:100B7800C4004B08C50018300310C50CC40CC30CC6
:100B8800C20CFF3E031DC02D4208CE0743080311C7
:100B98000318013E0319D12DCF0744080311031888
:100BA800013E0319D82DD007450803110318013E4B
:100BB8000319DF2DD1070830C2000310C80DC90D75
:100BC800CA0DCB0DC20BE12D4D084C07C200C30165
:100BD800C30D4208823ED20043080318013EFF3E7F
:100BE800D300132E0130C2000310CE0DCF0DD00D4F
:100BF800D10DC20BF82DCB1F022E032E042E4E143E
:100C08000130C2000310C80DC90DCA0DCB0DC20BAF
:100C1800062EFF30D2070318D30AFF30D307D01FA0
:100C2800162E172EF62DCC01CB1F1B2E1C2E382E60
:100C3800FF304805C200FF304905C300FF304A05B0
:100C4800C4007F304B05C5004508440443044204F2
:100C580003192F2E302E332ECC01CC0A382E4E1CE1
:100C6800362E372E382E302E4C0803193C2E3D2EAA
:100C78006E2E0130CE07003003180130CF07003048
:100C880003180130D007003003180130D107511C78
:100C98004E2E4F2E6E2E4E08C2004F08C30050082D
:100CA800C4005108C5000130C600450DC50CC40C70
:100CB800C30CC20CC60B592E4508D1004408D000FD
:100CC8004308CF004208CE000130D2070318D30AE8
:100CD8000030D3075308803AFF0080307F02031D9D
:100CE800772EFF305202031C7A2E7B2E862E7F3001
:100CF80083120313D1008030D0000030CF000030C1
:100D0800CE00B72E831203135308803AFF008030B9
:100D18007F02031D912E013052020318942E952E46
:100D2800A12E003083120313D1000030D000003010
:100D3800CF000030CE00C701B72E8312031352082C
:100D4800CD00FF30CE05FF30CF057F30D005003015
:100D5800D1054D1CB02EB12EB22ED0174D08C200B1
:100D68000310420CD1004708C2004208D1045108C0
:100D7800BD005008BC004F08BB004E08BA00080070
:100D880083160313A9002903031DCB2ECC2E5D2F38
:100D9800250883120313C100831603132408831242
:100DA8000313C00083160313230883120313BF0021
:100DB80083160313220883120313BE004030BD00BC
:100DC8008030BC000030BB000030BA000A128A1123
:100DD8007F230A128A11831203133D08A7003C08D7
:100DE800A6003B08A5003A08A4003630A3008630C8
:100DF800A2003730A100BD30A0000A168A112D26A6
:100E08000A128A11831203132308EB002208EA004E
:100E18002108E9002008E8000A168A11C9200A12E8
:100E28008A1183120313690883160313AB00831214
:100E38000313680883160313AA002B08A7002A08BF
:100E4800A600270DA70CA60C270DA70CA60C260894
:100E5800BB3EFF3A013E831203139500831603132A
:100E68002A080139A600A60E831203131708831651
:100E780003132606EF3926068312031397008316F9
:100E880003132B08A7002A08A600270DA70CA60CF9
:100E980026080139A800A80EA80D83120313170805
:100EA800831603132806DF392806831203139700D5
:100EB800F12F02302906031D622F632FF12F250819
:100EC80083120313C1008316031324088312031328
:100ED800C00083160313230883120313BF0083166D
:100EE8000313220883120313BE004030BD00803074
:100EF800BC000030BB000030BA000A128A117F2300
:100F08000A128A11831203133D08A7003C08A600A1
:100F18003B08A5003A08A4003630A3008630A2009A
:100F28003730A100BD30A0000A168A112D260A12FA
:100F38008A11831203132308EB002208EA00210810
:100F4800E9002008E8000A168A11C9200A128A1145
:100F580083120313690883160313AD008312031366
:100F6800680883160313AC002D08A7002C08A600F8
:100F7800270DA70CA60C270DA70CA60C26083C3E8F
:100F8800831203139B00831603132C080139A60050
:100F9800A60E831203131D08831603132606EF39C2
:100FA8002606831203139D00831603132D08A7003A
:100FB8002C08A600270DA70CA60C26080139A800A6
:100FC800A80EA80D831203131D0883160313280601
:100FD800DF392806831203139D000800640080018E
:100FE800840A0406031900340406F32FFF34FF347F
:020FF8000134C2
:10101400F800780803190F2810282428F31F132830
:10102400142824287009FA007109FB007209FC00D5
:101034007309FD00FA0A0319FB0A0319FC0A0319D0
:10104400FD0A2C287308FD007208FC007108FB00DF
:101054007008FA007308720471047004031D3328C5
:1010640034283D280030F3000030F2000030F10055
:101074000030F000C1289630F9004D280130F4000A
:101084007408F90701300310FD0CFC0CFB0CFA0C7E
:10109400FF3E031D4528FE307D05031D52285328BD
:1010A40040286F280130F4007408F9070130FA076A
:1010B400003003180130FB07003003180130FC072F
:1010C400003003180130FD0701300310FD0CFC0C47
:1010D400FB0CFA0CFF3E031D6728FF307D05031D42
:1010E40074287528542881280130F9020130F4004D
:1010F4000310FA0DFB0DFC0DFD0DF40B7A28FC1BFF
:10110400842885288B280230790203188A288B28A2
:10111400762879188E288F289728FF30FA05FF3013
:10112400FB057F30FC05FF30FD050310F90C790841
:10113400F400F501F601F70118300310F40DF50D74
:10114400F60DF70DFF3E031D9F287408FA04750879
:10115400FB047608FC047708FD0478080319B32817
:10116400B428B928F31FB728B828B928FD177D0873
:10117400F3007C08F2007B08F1007A08F000080014
:10118400831603173A088039C4003A08BB003B07AA
:10119400CB00B91FCE28CF28D0284B144B080319F5
:1011A400D428D528E5284B0A031DD928DA28E228B3
:1011B4000030BA000030B9000030B8000030B70089
:1011C400B917BA01ED280030BA000030B900003078
:1011D400B8000030B70036088039BB003B08C406AD
:1011E4003608BB003B07CC00B51FF928FA28FB28BA
:1011F4004C144C080319FF28002910294C0A031D1C
:10120400042905290D290030B6000030B50000304E
:10121400B4000030B300B517B60118290030B60089
:101224000030B5000030B4000030B3003608350497
:1012340034043304031D1F29202939290030BA003E
:101244000030B9000030B8000030B7008030B90475
:101254007F30BA044408BB003B08BA043A08B6001D
:101264003908B5003808B4003708B300942A4B088D
:10127400031D3D293E2947290030B6000030B50042
:101284000030B4000030B300942A4B08BB00BC010A
:101294003C08BE004C083B02BD00031CBE033D08D5
:1012A4007F3EC5003E080318013E003EC6003A08D2
:1012B400C3003908C2003808C1003708C000003034
:1012C400BA000030B9000030B8000030B700003078
:1012D400CA000030C9000030C8000030C700CC018B
:1012E400BD294C0803197729782998290130BB00B6
:1012F4000310C00DC10DC20DC30DBB0B7A29013003
:10130400BB000310B70DB80DB90DBA0DBB0B832983
:10131400CA1F8D298E298F2937140130BB00031071
:10132400C70DC80DC90DCA0DBB0B91293608430260
:10133400031DA62935084202031DA62934084102CB
:10134400031DA62933084002031CA929AA29B92987
:101354004A173308C0023408031C340FC10235088D
:10136400031C350FC2023608031C360FC3020130BA
:10137400BB003B08CC071A304C02031CC229C3290A
:10138400732943084204410440040319CA29CB29A0
:10139400EA294714EA290130BB000310B70DB80D40
:1013A400B90DBA0DBB0BCF29CA1FD929DA29DB29FC
:1013B40037140130BB000310C70DC80DC90DCA0D89
:1013C400BB0BDD29FF30C5070318C60AFF30C6076B
:1013D400B91FED29EE29CD29CC01CA1FF229F32921
:1013E4000F2AFF304705BB00FF304805BC00FF3023
:1013F4004905BD007F304A05BE003E083D043C045B
:101404003B040319062A072A0A2ACC01CC0A0F2A0C
:10141400371C0D2A0E2A0F2A072A4C080319132AEF
:10142400142A452A0130B707003003180130B807E1
:10143400003003180130B907003003180130BA072F
:101444003A1C252A262A452A3708BB003808BC003E
:101454003908BD003A08BE000130BF003E0DBE0C85
:10146400BD0CBC0CBB0CBF0B302A3E08BA003D08B7
:10147400B9003C08B8003B08B7000130C5070318A1
:10148400C60A0030C6074608803AFF0080307F0253
:10149400031D4E2AFF304502031C512A522A602A9A
:1014A400FF3083160317C5000030C6000030BA00B1
:1014B4000030B9000030B8000030B70083160317BD
:1014C4004608803AFF0080307F02031D6B2A0130FA
:1014D400450203186E2A6F2A7C2A83160317C50156
:1014E400C6010030BA000030B9000030B800003046
:1014F400B700C401831603174508CB004B1C832A8D
:10150400842A862AB9178A2A7F30BB003B08B9058A
:101514004B08BB0003103B0CBA004408BB003B085B
:10152400BA04302908008312031357088039E400F1
:101534005708DC005C07E600D61FA12AA22AA32ACA
:10154400661466080319A72AA82AB82A660A031D7E
:10155400AC2AAD2AB52A0030D7000030D6000030BE
:10156400D5000030D400D617D701C02A0030D700E8
:101574000030D6000030D5000030D4005B0880393C
:10158400E500650864060319C82AC92ACA2A64172B
:101594005B08DC005C07E500DA1FD12AD22AD32AD3
:1015A400651465080319D72AD82AE82A650A031D91
:1015B400DC2ADD2AE52A0030DB000030DA000030C6
:1015C400D9000030D800DA17DB01F02A0030DB0044
:1015D4000030DA000030D9000030D8006608650217
:1015E4000318F52AF62A1C2B641FF92AFA2AFE2A64
:1015F4008030DC005C08E4066608E7006508E60065
:101604006708E5005408E7005808D4006708D800C4
:101614005508E7005908D5006708D9005608E700BF
:101624005A08D6006708DA005708E7005B08D700B5
:101634006708DB00E7016508DC00DD015D08DF0009
:1016440066085C02DE00031CDF035F08803AFF00CB
:1016540080307F02031D302B1A305E02031C332BB3
:10166400342B6B2B8312031357085604550454046C
:10167400031D3D2B3F2B0130402B0030E700003091
:10168400D7000030D6000030D5000030D400650803
:10169400E600732B671C4F2B502B572B6708DC007D
:1016A40003105C0C0138E700592B0310E70C541CA1
:1016B4005C2B5D2B5E2BE7170130DC00570DD70C3C
:1016C400D60CD50CD40CDC0B602B0130DC005C0890
:1016D400E6078312031365086602031C722B732B3F
:1016E4004C2B641B762B772BC02B6608031D7B2B9E
:1016F4007C2B852B0030D7000030D6000030D5007D
:101704000030D400EC2C5808D407590803110318EE
:10171400013E03198E2BD5075A0803110318013E05
:101724000319952BD6075B0803110318013E03190F
:101734009C2BD707571C9F2BA02B742C671CA32B07
:10174400A42BAB2B6708DC0003105C0C0138E7000A
:10175400AD2B0310E70C541CB02BB12BB22BE717A5
:101764000130DC00570DD70CD60CD50CD40CDC0B97
:10177400B42B0130DC005C08E607742C5708803A6F
:10178400FF005B08803A7F02031DD22B5A085602E1
:10179400031DD22B59085502031DD22B580854029D
:1017A4000318D52BD62B2E2CFF30DC00FF30DD00A8
:1017B400FF30DE00FF30DF005808E0005908E10088
:1017C4005A08E2005B08E3005408E0025508031CD1
:1017D400550FED2BEE2BE1025608031C560FF32B8D
:1017E400F42BE2025708031C570FF92BFA2BE302E0
:1017F4006008DC0761080318610F012C022CDD0767
:1018040062080318620F072C082CDE07630803180C
:10181400630ADF075F08D7005E08D6005D08D500BD
:101824005C08D4008030DC005C08E406E709E70AC1
:101834006708031D1E2C1F2C3C2C0130D4070030DC
:1018440003180130D507003003180130D6070030E3
:1018540003180130D7073C2C5808D4025908031C3C
:10186400590FD5025A08031C5A0FD6025B08031CF1
:101874005B0FD7025708560455045404031D432C28
:10188400442C702C6708031D482C492C702C003004
:10189400D7000030D6000030D5000030D400EC2C46
:1018A4000130DC000310D40DD50DD60DD70DDC0BA3
:1018B400542CE71F5E2C5F2C602C5414671C632C83
:1018C400642C672C0314E70D692C0310E70D6608DC
:1018D40003196D2C6E2C702C0130E602D61F732C6C
:1018E400742C522CE501E71F782C792C872C67087F
:1018F4007F3903197E2C7F2C822CE501E50A872C85
:10190400541C852C862C872C7F2C650803198B2C62
:101914008C2CC02C0130D407003003180130D507BB
:10192400003003180130D607003003180130D70700
:10193400571C9D2C9E2CC02C5408DC005508DD003F
:101944005608DE005708DF000130E0005F0DDF0CB1
:10195400DE0CDD0CDC0CE00BA82C5F08D7005E0865
:10196400D6005D08D5005C08D400660A0319BB2CB8
:10197400BC2CC02C0130DC005C08E607660A0319A5
:10198400C42CC52CCA2C6608031DC92CCA2CD82CFF
:101994000030D7000030D6000030D5000030D4002D
:1019A4006608031DD62CD72CD82CE401661CDB2C2E
:1019B400DC2CDE2CD617E22C7F30DC005C08D6054C
:1019C4006608DC0003105C0CD700E41FEA2CEB2C47
:1019D400EC2CD71708000B1DF02CF12CF72C0A1651
:1019E4008A1118200A128A150B11831203138C1EF4
:1019F400FC2CFD2C022D0A168A1589270A128A1539
:101A04000B1C052D062D742D8312031306180B2DA4
:101A14000C2D172D831603135B08013EDB005C08B5
:101A24000318013E003EDC00732D86181A2D1B2D71
:101A3400212D831603136208013EE200732D06195B
:101A4400242D252D302D013083160313B9003908B8
:101A5400DF0783160317E801E901732D8619332D77
:101A6400342D392D013083160313DF022B2D061A72
:101A74003C2D3D2D482D831603135D08F0005F08AF
:101A84000A168A155F260A128A152B2D861A4B2DE3
:101A94004C2D682D831603135F080A168A11012042
:101AA4000A128A1583160313DE0083160317E8014E
:101AB400E901831603135C08AF005B08AE005E08FF
:101AC4000A168A115C240A128A15732D061B6B2DC3
:101AD4006C2D732D013083160317E8000030E900E4
:101AE400732D0B10831203130C1F792D7A2DF32FF2
:101AF400831603135B085C04031D812D822DD32FF1
:101B0400831203131F0C83160313B900390C0F3906
:101B1400003A031D8E2D8F2D402E831203131E08B1
:101B240083160313B900BA01BB01BC013C08F300DE
:101B34003B08F2003A08F1003908F00001300A12BB
:101B44008A150A200A128A15730883120313C10026
:101B54007208C0007108BF007008BE003F30BD00AD
:101B64001930BC009930BB009A30BA000A128A11AD
:101B74007F230A128A15831203133D08EB003C08E5
:101B8400EA003B08E9003A08E8000A168A11C9206D
:101B94000A128A1583120313690883160313DA00E1
:101BA40083120313680883160313D9003930831290
:101BB4000313BD008330BC001230BB006F30BA0089
:101BC4004330A3007F30A2000030A1000030A00009
:101BD400831603135908F0005A08F1000030F11B72
:101BE400FF30F200F30001300A128A150A200A12AB
:101BF4008A15730883120313A7007208A6007108DC
:101C0400A5007008A4000A168A112D260A128A1546
:101C1400831203132308C1002208C0002108BF0057
:101C24002008BE000A128A117F230A128A15831221
:101C340003133D0883160313C400831203133C08E3
:101C440083160313C300831203133B088316031381
:101C5400C200831203133A0883160313C100440815
:101C6400A5004308A4004208A3004108A2000130D3
:101C74000A128A11C4260A128A15F02F831203133A
:101C84001F0C83160313B900390C0F39013A031DD5
:101C94004C2E4D2EA82E831203131E0883160313F5
:101CA400B900BA01BB01BC013C08F3003B08F200D7
:101CB4003A08F1003908F00001300A128A150A20A6
:101CC4000A128A15730883120313C1007208C00034
:101CD4007108BF007008BE003D30BD004030BC003C
:101CE4008330BB001230BA000A128A117F230A1211
:101CF4008A15831203133D08DB003C08DA003B0815
:101D0400D9003A08D8004030D700C030D60000309F
:101D1400D5000030D4000A128A1595220A128A15B9
:101D2400831203135708EB005608EA005508E9002C
:101D34005408E8000A168A11C9200A128A15831267
:101D44000313680883160317E700F02F83120313A5
:101D54001F0C83160313B900390C0F39023A031D03
:101D6400B42EB52E102F831203131E0883160313EB
:101D7400B900BA01BB01BC013C08F3003B08F20006
:101D84003A08F1003908F00001300A128A150A20D5
:101D94000A128A15730883120313C1007208C00063
:101DA4007108BF007008BE003D30BD004030BC006B
:101DB4008330BB001230BA000A128A117F230A1240
:101DC4008A15831203133D08DB003C08DA003B0844
:101DD400D9003A08D8004030D700C030D6000030CF
:101DE400D5000030D4000A128A1595220A128A15E9
:101DF400831203135708EB005608EA005508E9005C
:101E04005408E8000A168A11C9200A128A15831296
:101E14000313680883160317E600F02F83120313D5
:101E24001F0C83160313B900390C0F39033A031D31
:101E34001C2F1D2FD22F831203131E088316031386
:101E4400B900BA01BB01BC013C08F3003B08F20035
:101E54003A08F1003908F00001300A128A150A2004
:101E64000A128A15730883120313C1007208C00092
:101E74007108BF007008BE003F30BD006630BC0072
:101E84006630BB006630BA000A128A117F230A1238
:101E94008A15831203133D08EB003C08EA003B0853
:101EA400E9003A08E8000A168A11C9200A128A15BC
:101EB40083120313690883160313D80083120313D0
:101EC400680883160313D700393083120313BD0047
:101ED4008330BC001230BB006F30BA004330A30023
:101EE4007F30A2000030A1000030A0001E0883163D
:101EF4000313B900BA01BB01BC013C08F3003B0861
:101F0400F2003A08F1003908F00001300A128A158B
:101F14000A200A128A15730883120313A700720891
:101F2400A6007108A5007008A4000A168A112D26BF
:101F34000A128A15831203132308C1002208C00061
:101F44002108BF002008BE000A128A117F230A124A
:101F54008A15831203133D0883160313C4008312E6
:101F640003133C0883160313C300831203133B08B3
:101F740083160313C200831203133A088316031350
:101F8400C1004408A5004308A4004208A300410876
:101F9400A20002300A128A11C4260A128A15F02FEE
:101FA400F02F5B035C04031DD82FD92FF02F83126D
:101FB40003131F0C83160313B900390C0F39043AA9
:101FC400031DE52FE62FF02F831203131E0883163B
:101FD4000313DD0083160317E801E90183120313D9
:101FE4000C13831603134008FF003F088A003E08C1
:0C1FF40084003D0E8300FE0E7E0E0900EE
:10200200F000831603178C180728082802280C18DA
:102012000B280C2802287008831203178D008316E0
:1020220003178C130C14831203170C080800831671
:1020320003136203031D1E281F283528831203136E
:10204200071E242825282D288316031767088312C4
:10205200031381000712502883160317670983129E
:10206200031381000716502802306206031D3A2826
:102072003B28502883120313871E402841284928F1
:1020820083160317660883120313810087125028F0
:10209200831603176609831203138100871608004B
:1020A2000310831603174F0D500DD6005608031D5B
:1020B2005B285C2865280030D0000030CF0000305B
:1020C200CE000030CD00C8284D08D1004E08D20005
:1020D2004F08D3005008D4001F300310D40CD30C87
:1020E200D20CD10CFF3E031D6E285108D500CF172C
:1020F200FF30CD05FF30CE05FF30CF050030D005D3
:102102009630D602D61F86288728A1285608803AFC
:10211200973E03188D288E288F285C2801300310E3
:10212200D00CCF0CCE0CCD0CFF3E031D90280130FD
:10213200D1005108D607031D9F28A0288F28B82850
:1021420020305602031CA628A728B3285C28013099
:10215200D1000310CD0DCE0DCF0DD00DD10BAA287D
:102162000130D6025608031DB728B828A8285508FA
:102172000319BC28BD28C828CD09CE09CF09D0092A
:10218200CD0A0319CE0A0319CF0A0319D00A08008F
:102192000310831203136A0D6B0D83160313A10040
:1021A2002108031DD528D628E12800308312031305
:1021B200EB000030EA000030E9000030E800562968
:1021C200831203136808EC006908ED006A08EE0048
:1021D2006B08EF001F300310EF0CEE0CED0CEC0C53
:1021E200FF3E031DEC286C0883160313A000831224
:1021F2000313EA17FF30E805FF30E905FF30EA056F
:102202000030EB05963083160313A102A11F0A29A1
:102212000B2929292108803A973E031811291229EE
:102222001329D6280130031083120313EB0CEA0C96
:10223200E90CE80CFF3E031D14290130EC006C0888
:1022420083160313A107031D2729282913294429CB
:1022520020302102031C2E292F293F29D6280130A4
:1022620083120313EC000310E80DE90DEA0DEB0DE8
:10227200EC0B3429013083160313A1022108031D3C
:102282004329442930292008031948294929562974
:1022920083120313E809E909EA09EB09E80A0319B9
:1022A200E90A0319EA0A0319EB0A0800831603175D
:1022B200081488140815881508168901FF3083163A
:1022C20003138600FF3085008801890183120313FE
:1022D2008501860187018801890183160313811311
:1022E200FF3096000F088F3960388F000F1481126B
:1022F20081110115811001148312031381010B1046
:102302008B150B118B160C130B17831603130C175B
:102312008B17831203139F14C3309F058316031375
:102322001F129F12831203131F083F3980389F0028
:10233200831603139F13831203131F14C7308316CC
:102342000317E300A429E30BA329A7293C30831632
:102352000317DA00A330D900D730D8000A30D700EB
:1023620001300A168A151B270A168A11393083167C
:102372000317DA008330D9001230D8006F30D7004B
:1023820001300A168A11E8210A168A113C30831696
:102392000317DA00A330D900D730D8000A30D700AB
:1023A20002300A168A151B270A168A11393083163B
:1023B2000317DA008330D9001230D8006F30D7000B
:1023C20002300A168A11E8210A168A1108008316B9
:1023D2000317DE005E03031DEF29F0296D2A5A0858
:1023E200A00059089F0058089E0057089D004030E1
:1023F2009C0080309B0000309A00003099000A1245
:102402008A113A200A168A11831603171C08BA0089
:102412001B08B9001A08B8001908B7003630B60010
:102422008630B5003730B400BD30B3000A128A15C9
:10243200C2200A168A11831603173608D0003508FF
:10244200CF003408CE003308CD000A168A1151207D
:102452000A168A11831603174E08E0004D08DF00A2
:102462006008DC005F08DB005C0DDC0CDB0C5C0D43
:10247200DC0CDB0C5B08BB3EFF3A013E831203130C
:102482009500831603175F080139DB00DB0E831208
:1024920003131708831603175B06EF395B068312D3
:1024A20003139700831603176008DC005F08DB0044
:1024B2005C0DDC0CDB0C5B080139DD00DD0EDD0D93
:1024C200831203131708831603175D06DF395D06AF
:1024D200831203139700ED2A02305E06031D722A4F
:1024E200732AED2A5A08A00059089F0058089E0036
:1024F20057089D0040309C0080309B0000309A00BD
:10250200003099000A128A113A200A168A1183169B
:1025120003171C08BA001B08B9001A08B8001908EA
:10252200B7003630B6008630B5003730B400BD3063
:10253200B3000A128A15C2200A168A1183160317DB
:102542003608D0003508CF003408CE003308CD005D
:102552000A168A1151200A168A11831603174E0889
:10256200E2004D08E1006208DC006108DB005C0D5E
:10257200DC0CDB0C5C0DDC0CDB0C5B083C3E8312E0
:1025820003139B008316031761080139DB00DB0E7E
:10259200831203131D08831603175B06EF395B06CC
:1025A200831203139D00831603176208DC0061087F
:1025B200DB005C0DDC0CDB0C5B080139DD00DD0EA1
:1025C200DD0D831203131D08831603175D06DF3921
:1025D2005D06831203139D00080006308312031761
:1025E2009A0000309B0013309800003099000630AA
:1025F20083160317E7000630E6000A168A115721F0
:102602000A168A110A168A15A6260A168A11831232
:1026120003139F14831603134B034C04031D122B45
:10262200132B192BCB01CC014F0883120313880003
:102632008316031768036904031D202B212B222B09
:102642006300831603135B088312031389000330AC
:10265200831603135B065C04031D302B312B332BD3
:10266200DB01DC0103306206031D382B392B3B2BC7
:10267200E201E20A831203171B08803A803C031D21
:10268200462B1A08831603176702031C492B4A2B91
:102692005A2B831603176708E400E50164088312C6
:1026A200031790008316031765088312031791001E
:1026B200602B831203171B0891001A089000100860
:1026C20083160317E700831203171908803A83164B
:1026D2000317E40080306402031D732B6708831222
:1026E20003171802031C762B772B872B83160317ED
:1026F2006708E400E5016408831203179200831659
:10270200031765088312031793008D2B8312031797
:102712001908930018089200120883160317E7009D
:10272200831203171B08803A803C031D9C2B1A0856
:10273200831603176602031C9F2BA02BB02B831654
:1027420003176608E400E501640883120317940086
:10275200831603176508831203179500B62B83129D
:1027620003171B0895001A08940014088316031710
:10277200E600831203171908803A83160317E40050
:1027820080306402031DC92B6608831203171802E6
:10279200031CCC2BCD2BDD2B831603176608E4001C
:1027A200E501640883120317960083160317650870
:1027B200831203179700E32B83120317190897005C
:1027C20018089600160883160317E60083120313EF
:1027D2009F18EC2BED2B0B2B1F0C83160317E40019
:1027E200640C0F39003A031DF72BF82BFF2B8312D1
:1027F20003131F08C33910389F004D2C8312031393
:102802001F0C83160317E400640C0F39043A031DEE
:102812000B2C0C2C132C831203131F08C3390C38F6
:102822009F004D2C831203131F0C83160317E40021
:10283200640C0F39033A031D1F2C202C272C831202
:1028420003131F08C33908389F004D2C831203134A
:102852001F0C83160317E400640C0F39023A031DA0
:10286200332C342C3B2C831203131F08C339043836
:102872009F004D2C831203131F0C83160317E400D1
:10288200640C0F39013A031D472C482C4D2CC330E0
:10289200831203139F054D2CC73083160317E400E0
:1028A200522CE40B512C552C831203139F140B2B27
:1028B2000A128A11122883160313B8002E032F045A
:1028C200031D642C652C2C2E3808B000B101B20116
:1028D200B3013308F3003208F2003108F100300886
:1028E200F00001300A128A150A200A168A117308AA
:1028F20083120313C1007208C0007108BF00700880
:10290200BE003D30BD004030BC008330BB00123001
:10291200BA000A128A117F230A168A11831203133C
:102922003D08DB003C08DA003B08D9003A08D80031
:102932004030D700C030D6000030D5000030D4007F
:102942000A128A1595220A168A118312031357084E
:10295200EB005608EA005508E9005408E8000A1698
:102962008A11C9200A168A11831203136808831672
:102972000317E700831603133808B000B101B20150
:10298200B3013308F3003208F2003108F1003008D5
:10299200F00001300A128A150A200A168A117308F9
:1029A20083120313C1007208C0007108BF007008CF
:1029B200BE003D30BD004030BC008330BB00123051
:1029C200BA000A128A117F230A168A11831203138C
:1029D2003D08DB003C08DA003B08D9003A08D80081
:1029E2004030D700C030D6000030D5000030D400CF
:1029F2000A128A1595220A168A118312031357089E
:102A0200EB005608EA005508E9005408E8000A16E7
:102A12008A11C9200A168A118312031368088316C1
:102A22000317E600831603133808B000B101B201A0
:102A3200B3013308F3003208F2003108F100300824
:102A4200F00001300A128A150A200A168A11730848
:102A520083120313C1007208C0007108BF0070081E
:102A6200BE003F30BD001930BC009930BB009A3027
:102A7200BA000A128A117F230A168A1183120313DB
:102A82003D08EB003C08EA003B08E9003A08E80090
:102A92000A168A11C9200A168A11831203136908B9
:102AA20083160313DA0083120313680883160313D1
:102AB200D900393083120313BD008330BC001230B9
:102AC200BB006F30BA004330A3007F30A200003059
:102AD200A1000030A000831603135908F0005A0821
:102AE200F1000030F11BFF30F200F30001300A1256
:102AF2008A150A200A168A11730883120313A70083
:102B02007208A6007108A5007008A4000A168A11AE
:102B12002D260A168A11831203132308C1002208E4
:102B2200C0002108BF002008BE000A128A117F23BC
:102B32000A168A11831203133D0883160313B70082
:102B4200831203133C0883160313B6008312031384
:102B52003B0883160313B500831203133A08831646
:102B62000313B4003708A5003608A4003508A300F3
:102B72003408A20001300A128A11C4260A168A11E8
:102B8200393083120313BD008330BC001230BB0006
:102B92006F30BA004330A3007F30A2000030A100A2
:102BA2000030A000831603133808B000B101B2014F
:102BB200B3013308F3003208F2003108F1003008A3
:102BC200F00001300A128A150A200A168A117308C7
:102BD20083120313A7007208A6007108A5007008EB
:102BE200A4000A168A112D260A168A1183120313CB
:102BF2002308C1002208C0002108BF002008BE002F
:102C02000A128A117F230A168A11831203133D08BE
:102C120083160313B700831203133C0883160313AE
:102C2200B600831203133B0883160313B500831205
:102C320003133A0883160313B4003708A5003608B5
:102C4200A4003508A3003408A20002300A128A1137
:102C5200C4260A168A110800831203132708803932
:102C6200B1002708A8002807B800A61F392E3A2E5F
:102C72003B2E3814380803193F2E402E502E380AA6
:102C8200031D442E452E4D2E0030A7000030A60015
:102C92000030A5000030A400A617A701582E00306E
:102CA200A7000030A6000030A5000030A4002308D1
:102CB2008039A8002808B1062308A8002807B9000F
:102CC200A21F642E652E662E3914390803196A2E46
:102CD2006B2E7B2E390A031D6F2E702E782E00303C
:102CE200A3000030A2000030A1000030A000A21713
:102CF200A301832E0030A3000030A2000030A10007
:102D02000030A0002308220421042004031D8A2E7F
:102D12008B2EA42E0030A7000030A6000030A500A4
:102D22000030A4008030A6047F30A7043108A80038
:102D32002808A7042708A3002608A2002508A10046
:102D42002408A000FF2F3808031DA82EA92EB22E9A
:102D52000030A3000030A2000030A1000030A0002B
:102D6200FF2F3808A800A9012908AB00390828025A
:102D7200AA00031CAB032A087F3EB2002B080318EB
:102D8200013E003EB3002708B0002608AF00250828
:102D9200AE002408AD000030A7000030A6000030CD
:102DA200A5000030A4000030B7000030B6000030AB
:102DB200B5000030B400B901282F39080319E22EFA
:102DC200E32E032F0130A8000310AD0DAE0DAF0DA1
:102DD200B00DA80BE52E0130A8000310A40DA50D1F
:102DE200A60DA70DA80BEE2EB71FF82EF92EFA2E60
:102DF20024140130A8000310B40DB50DB60DB70DA3
:102E0200A80BFC2E23083002031D112F22082F02CB
:102E1200031D112F21082E02031D112F20082D0240
:102E2200031C142F152F242F37172008AD02210859
:102E3200031C210FAE022208031C220FAF0223083B
:102E4200031C230FB0020130A8002808B9071A306A
:102E52003902031C2D2F2E2FDE2E30082F042E04B4
:102E62002D040319352F362F552F3414552F0130C9
:102E7200A8000310A40DA50DA60DA70DA80B3A2FAF
:102E8200B71F442F452F462F24140130A8000310EA
:102E9200B40DB50DB60DB70DA80B482FFF30B20714
:102EA2000318B30AFF30B307A61F582F592F382F24
:102EB200B901B71F5D2F5E2F7A2FFF303405A800AE
:102EC200FF303505A900FF303605AA007F303705EF
:102ED200AB002B082A04290428040319712F722F2E
:102EE200752FB901B90A7A2F241C782F792F7A2FDE
:102EF200722F390803197E2F7F2FB02F0130A407BC
:102F0200003003180130A507003003180130A6076E
:102F1200003003180130A707271C902F912FB02FE4
:102F22002408A8002508A9002608AA002708AB0043
:102F32000130AC002B0DAB0CAA0CA90CA80CAC0BED
:102F42009B2F2B08A7002A08A6002908A5002808FD
:102F5200A4000130B2070318B30A0030B3073308E4
:102F6200803AFF0080307F02031DB92FFF3032020A
:102F7200031CBC2FBD2FCB2FFF3083120313B200D3
:102F82000030B3000030A7000030A6000030A500DA
:102F92000030A400831203133308803AFF0080300C
:102FA2007F02031DD62F013032020318D92FDA2FE8
:102FB200E72F83120313B201B3010030A7000030E0
:102FC200A6000030A5000030A400B1018312031353
:102FD2003208B800381CEE2FEF2FF12FA617F52F6D
:102FE2007F30A8002808A6053808A8000310280C7E
:0E2FF200A7003108A8002808A7049B2E08009D
:103CBE00F100831603178C18652E662E602E710880
:103CCE00831203178D0070088C00831603178C1354
:103CDE000C1500308B1B0130F2008B1355308D000C
:103CEE00AA308D008C140C11720C031C8B1303184C
:103CFE008B170800F401F501701C862E872E8D2E71
:103D0E007208F4070318F50A7308F507013003105B
:103D1E00F20DF30DFF3E031D8E2E01300310F10C3C
:103D2E00F00CFF3E031D952E70087104031DA02E8E
:103D3E00A12E832E7508F1007408F00008001930CA
:103D4E008316031399009A0118158316031787110A
:103D5E0083120313181683160313181283120313F8
:103D6E0098178316031398168312031318138316CA
:103D7E0003139816831203130C12831603138C1657
:103D8E00831203138C120800F800F401F501700879
:103D9E00F200F3017208F6007308F700781CD82EB3
:103DAE00D92EDF2E7608F4070318F50A7708F507E3
:103DBE0001300310F60DF70DFF3E031DE02E03102C
:103DCE00F80C7808031DEC2EED2ED52E7508F1009B
:103DDE007408F000080083160317980094019501EB
:103DEE001008920093011208960013089700181CF1
:103DFE00012F022F082F160894070318950A17088B
:103E0E00950701300310960D970DFF3E031D092FE8
:103E1E000310980C1808031D152F162FFE2E1508CB
:103E2E00910014089000080083160317DB005A084F
:103E3E00BA005908B9005808B8005708B70037300B
:103E4E00B6008630B5003730B400BD30B3000A126C
:103E5E008A15C2200A168A15831603173608D00053
:103E6E003508CF003408CE003308CD000A168A116B
:103E7E0051200A168A15831603174D08831603134D
:103E8E009200831603175B03031D4E2F4F2F5F2FD8
:103E9E008316031307153F30831203139705170874
:103EAE00F0390D389700FF309500171297126F2FCB
:103EBE0002305B06031D642F652F6F2F83160313CD
:103ECE0087140F30831203139D049B011D129D1244
:103EDE00831203138C100330920412158C1C782F4E
:103EEE00792F752F8C10831603175B03031D802FFC
:103EFE00812F852F831603130711882F8316031323
:103F0E00871008000230831603135B065C04031D42
:103F1E00912F922FFF2F83128C1E962F972F922F59
:103F2E00013083160313E0070318E10A0030E1079E
:103F3E006008CD3E8400831203131A088313800099
:103F4E00831603136008CD3E84000008D03EC900DE
:103F5E00FF3003180030CA006008D13E84004908C3
:103F6E008000023060066104031DBE2FBF2FFF2F9D
:103F7E00FF30E000FF30E1000130CB000030CC001C
:103F8E005108F600F7017608F0007708F10064306A
:103F9E00F2000030F3000A168A1581260A168A15D9
:103FAE007008F8007108F900831603135208FA001E
:103FBE00FB017A08F0007B08F1000A30F2000030B5
:103FCE00F3000A168A1581260A168A1570087807D4
:103FDE00FC0071080318710A7907FD00831603139C
:103FEE0053087C07CF000030031801307D07D00046
:0A3FFE000800FF3FFF3FFF3FFF3FB9
:04400E00D420FF3F7C
:00000001FF
